:020000040800F2
:1000000000500020E5190008371A0008431A0008BC
:10001000491A00084F1A0008551A0008000000008D
:100020000000000000000000000000005B1A000853
:10003000671A000800000000731A00087F1A000801
:10004000351A0008351A0008351A0008351A000854
:10005000351A0008351A0008351A0008351A000844
:10006000351A0008351A0008351A0008351A000834
:10007000351A0008351A0008351A0008351A000824
:10008000351A0008351A0008351A0008351A000814
:10009000351A0008351A0008351A0008351A000804
:1000A000351A0008351A0008351A0008351A0008F4
:1000B000351A0008351A0008351A0008351A0008E4
:1000C000351A0008351A0008351A0008351A0008D4
:1000D000351A00088D1A0008C11A0008351A0008E0
:1000E000351A0008351A0008351A0008000000000B
:1000F0000000000000000000000000000000000000
:0C01000000000000000000005FF808F1A3
:1001100010B5054C237833B9044B13B10448AFF341
:1001200000800123237010BD98060020000000000D
:10013000209F000808B5034B1BB103490348AFF3E8
:10014000008008BD000000009C060020209F0008E1
:1001500010F8012B11F8013B012A28BF9A42F7D071
:10016000D01A7047034613F8012B002AFBD1181A46
:100170000138704781F0004102E000BF83F0004386
:1001800030B54FEA41044FEA430594EA050F08BF32
:1001900090EA020F1FBF54EA000C55EA020C7FEAF6
:1001A000645C7FEA655C00F0E2804FEA5454D4EB73
:1001B0005555B8BF6D420CDD2C4480EA020281EA3D
:1001C000030382EA000083EA010180EA020281EA75
:1001D0000303362D88BF30BD11F0004F4FEA0131C7
:1001E0004FF4801C4CEA113102D0404261EB4101D6
:1001F00013F0004F4FEA03334CEA133302D052425C
:1002000063EB430394EA050F00F0A780A4F1010417
:10021000D5F1200E0DDB02FA0EFC22FA05F2801851
:1002200041F1000103FA0EF2801843FA05F3594137
:100230000EE0A5F120050EF1200E012A03FA0EFCB6
:1002400028BF4CF0020C43FA05F3C01851EBE371E0
:1002500001F0004507D54FF0000EDCF1000C7EEBFD
:1002600000006EEB0101B1F5801F1BD3B1F5001F3B
:100270000CD349085FEA30004FEA3C0C04F101045A
:100280004FEA445212F5800F80F09A80BCF1004F83
:1002900008BF5FEA500C50F1000041EB045141EA05
:1002A000050130BD5FEA4C0C404141EB010111F406
:1002B000801FA4F10104E9D191F0000F04BF0146B1
:1002C0000020B1FA81F308BF2033A3F10B03B3F18F
:1002D00020020CDA0C3208DD02F1140CC2F10C021F
:1002E00001FA0CF021FA02F10CE002F11402D8BF7D
:1002F000C2F1200C01FA02F120FA0CFCDCBF41EA49
:100300000C019040E41AA2BF01EB0451294330BD17
:100310006FEA04041F3C1CDA0C340EDC04F11404F4
:10032000C4F1200220FA04F001FA02F340EA0300CB
:1003300021FA04F345EA030130BDC4F10C04C4F111
:10034000200220FA02F001FA04F340EA03002946F1
:1003500030BD21FA04F0294630BD94F0000F83F43B
:10036000801306BF81F480110134013D4EE77FEA1E
:10037000645C18BF7FEA655C29D094EA050F08BF6A
:1003800090EA020F05D054EA000C04BF194610464B
:1003900030BD91EA030F1EBF0021002030BD5FEA8F
:1003A000545C05D14000494128BF41F0004130BDB7
:1003B00014F580043CBF01F5801130BD01F000450B
:1003C00045F0FE4141F470014FF0000030BD7FEA7E
:1003D000645C1ABF194610467FEA655C1CBF0B4679
:1003E000024650EA013406BF52EA033591EA030F90
:1003F00041F4002130BD00BF90F0000F04BF002188
:10040000704730B54FF4806404F132044FF00005BA
:100410004FF0000150E700BF90F0000F04BF002133
:10042000704730B54FF4806404F1320410F0004599
:1004300048BF40424FF000013EE700BF42004FEA94
:10044000E2014FEA31014FEA02701FBF12F07F4311
:1004500093F07F4F81F06051704792F0000F14BF0E
:1004600093F07F4F704730B54FF4607401F0004552
:1004700021F0004120E700BF50EA010208BF7047A9
:1004800030B54FF000050AE050EA010208BF70479E
:1004900030B511F0004502D5404261EB41014FF407
:1004A000806404F132045FEA915C3FF4DCAE4FF00B
:1004B00003025FEADC0C18BF03325FEADC0C18BFF2
:1004C000033202EBDC02C2F1200300FA03FC20FA43
:1004D00002F001FA03FE40EA0E0021FA02F1144490
:1004E000C1E600BF70B54FF0FF0C4CF4E06C1CEAA5
:1004F00011541DBF1CEA135594EA0C0F95EA0C0F1A
:1005000000F0DEF82C4481EA030621EA4C5123EA8C
:100510004C5350EA013518BF52EA033541F48011BB
:1005200043F4801338D0A0FB02CE4FF00005E1FB6E
:1005300002E506F00042E0FB03E54FF00006E1FBB8
:1005400003569CF0000F18BF4EF0010EA4F1FF04FB
:10055000B6F5007F64F5407404D25FEA4E0E6D413B
:1005600046EB060642EAC62141EA55514FEAC5204C
:1005700040EA5E504FEACE2EB4F1FD0C88BFBCF5C8
:10058000E06F1ED8BEF1004F08BF5FEA500E50F179
:10059000000041EB045170BD06F0004646EA01013F
:1005A00040EA020081EA0301B4EB5C04C2BFD4EB71
:1005B0000C0541EA045170BD41F480114FF0000E6A
:1005C000013C00F3AB8014F1360FDEBF002001F0D8
:1005D000004170BDC4F10004203C35DA0C341BDC52
:1005E00004F11404C4F1200500FA05F320FA04F024
:1005F00001FA05F240EA020001F0004221F0004158
:1006000010EBD37021FA04F642EB06015EEA430ECA
:1006100008BF20EAD37070BDC4F10C04C4F12005FA
:1006200000FA04F320FA05F001FA04F240EA0200AD
:1006300001F0004110EBD37041F100015EEA430E7E
:1006400008BF20EAD37070BDC4F1200500FA05F29E
:100650004EEA020E20FA04F301FA05F243EA02031D
:1006600021FA04F001F0004121FA04F220EA02002C
:1006700000EBD3705EEA430E08BF20EAD37070BD72
:1006800094F0000F0FD101F00046400041EB010152
:1006900011F4801F08BF013CF7D041EA060195F034
:1006A000000F18BF704703F00046520043EB0303EE
:1006B00013F4801F08BF013DF7D043EA06037047DB
:1006C00094EA0C0F0CEA135518BF95EA0C0F0CD0E6
:1006D00050EA410618BF52EA4306D1D181EA03012C
:1006E00001F000414FF0000070BD50EA410606BF26
:1006F0001046194652EA430619D094EA0C0F02D16B
:1007000050EA013613D195EA0C0F05D152EA0336AF
:100710001CBF104619460AD181EA030101F00041CD
:1007200041F0FE4141F470014FF0000070BD41F016
:10073000FE4141F4780170BD70B54FF0FF0C4CF4F0
:10074000E06C1CEA11541DBF1CEA135594EA0C0F0F
:1007500095EA0C0F00F0A7F8A4EB050481EA030E5C
:1007600052EA03354FEA013100F088804FEA033343
:100770004FF0805545EA131343EA12634FEA022211
:1007800045EA111545EA10654FEA00260EF00041D2
:100790009D4208BF964244F1FD0404F5407402D224
:1007A0005B084FEA3202B61A65EB03055B084FEAB5
:1007B00032024FF480104FF4002CB6EB020E75EBB2
:1007C000030E22BFB61A754640EA0C005B084FEADA
:1007D0003202B6EB020E75EB030E22BFB61A754657
:1007E00040EA5C005B084FEA3202B6EB020E75EBA2
:1007F000030E22BFB61A754640EA9C005B084FEA1A
:100800003202B6EB020E75EB030E22BFB61A754626
:1008100040EADC0055EA060E18D04FEA051545EA15
:1008200016754FEA06164FEAC30343EA52734FEABE
:10083000C2025FEA1C1CC0D111F4801F0BD141EA37
:1008400000014FF000004FF0004CB6E711F4801F9C
:1008500004BF01430020B4F1FD0C88BFBCF5E06F7C
:100860003FF6AFAEB5EB030C04BFB6EB020C5FEA8C
:10087000500C50F1000041EB045170BD0EF0004EE1
:100880004EEA113114EB5C04C2BFD4EB0C0541EA13
:10089000045170BD41F480114FF0000E013C90E610
:1008A00045EA060E8DE60CEA135594EA0C0F08BFD4
:1008B00095EA0C0F3FF43BAF94EA0C0F0AD150EAD3
:1008C00001347FF434AF95EA0C0F7FF425AF104666
:1008D00019462CE795EA0C0F06D152EA03353FF48E
:1008E000FDAE1046194622E750EA410618BF52EA0B
:1008F00043067FF4C5AE50EA41047FF40DAF52EADF
:1009000043057FF4EBAE12E74FF0FF3C06E000BF7B
:100910004FF0010C02E000BF4FF0010C4DF804CD88
:100920004FEA410C7FEA6C5C4FEA430C18BF7FEA48
:100930006C5C1BD001B050EA410C0CBF52EA430C76
:1009400091EA030F02BF90EA020F0020704710F1F6
:10095000000F91EA030F58BF994208BF90422CBF85
:10096000D8176FEAE37040F0010070474FEA410C7E
:100970007FEA6C5C02D150EA013C07D14FEA430C9C
:100980007FEA6C5CD6D152EA033CD3D05DF8040B0D
:10099000704700BF8446104662468C46194663463F
:1009A00000E000BF01B5FFF7B7FF002848BF10F116
:1009B000000F01BD4DF808EDFFF7F4FF0CBF01205B
:1009C00000205DF808FB00BF4DF808EDFFF7EAFFD7
:1009D00034BF012000205DF808FB00BF4DF808ED92
:1009E000FFF7E0FF94BF012000205DF808FB00BF87
:1009F0004DF808EDFFF7CEFF94BF012000205DF811
:100A000008FB00BF4DF808EDFFF7C4FF34BF01201D
:100A100000205DF808FB00BF4FEA410C7FEA6C5CE8
:100A200002D150EA013C0AD14FEA430C7FEA6C5CE8
:100A300002D152EA033C02D14FF0000070474FF060
:100A4000010070474FEA410212F5001215D211D58C
:100A50006FF47873B3EB625212D94FEAC12343F0BB
:100A6000004343EA505311F0004F23FA02F018BF3D
:100A7000404270474FF00000704750EA013005D106
:100A800011F0004008BF6FF0004070474FF00000C9
:100A9000704700BF4A0011D212F5001211D20DD5D5
:100AA0006FF47873B3EB62520ED44FEAC12343F074
:100AB000004343EA505323FA02F070474FF000001E
:100AC000704750EA013002D14FF0FF3070474FF0CD
:100AD000000070474FEA4102B2F1E04324BFB3F592
:100AE000001CDCF1FE5C0DD901F0004C4FEAC002A5
:100AF0004CEA5070B2F1004F40EB830008BF20F089
:100B00000100704711F0804F21D113F13872BCBF42
:100B100001F00040704741F480114FEA5252C2F197
:100B20001802C2F1200C10FA0CF320FA02F018BFE0
:100B300040F001004FEAC1234FEAD32303FA0CFC33
:100B400040EA0C0023FA02F34FEA4303CCE77FEAC2
:100B5000625307D150EA01331EBF4FF0FE4040F40C
:100B60004000704701F0004040F0FE4040F40000BB
:100B7000704700BF53B94AB9002908BF00281CBFFD
:100B80004FF0FF314FF0FF3000F07AB9ADF1080CB3
:100B90006DE904CE00F006F8DDF804E0DDE902239B
:100BA00004B070472DE9F0478C460E460446089D78
:100BB000002B50D18A4217466CD9B2FA82FEBEF1A0
:100BC000000F0BD0CEF1200C01FA0EF620FA0CFC2F
:100BD00002FA0EF74CEA060C00FA0EF43A0CBCFBD3
:100BE000F2F9BBB202FB19CC09FB03FA4FEA144835
:100BF00048EA0C46B2450AD9F61909F1FF3180F0EE
:100C00002581B24540F22281A9F102093E44A6EBBA
:100C10000A06B6FBF2F002FB106600FB03F3A4B277
:100C200044EA0644A34209D9E41900F1FF3280F0F6
:100C30000B81A34240F2088102383C440021E41AAF
:100C400040EA0940002D62D0002324FA0EF42C6003
:100C50006B60BDE8F0878B4207D9002D55D000218D
:100C600085E841000846BDE8F087B3FA83F1002922
:100C700040F08F80B34202D3824200F2FC80841A9B
:100C800066EB03060120B446002D40D085E8101025
:100C9000BDE8F08712B90127B7FBF2F7B7FA87FE74
:100CA000BEF1000F35D10121F61B4FEA174C1FFA98
:100CB00087F8B6FBFCF20CFB126608FB02F0230C73
:100CC00043EA0646B04207D9F61902F1FF3302D2D1
:100CD000B04200F2D2801A46361AB6FBFCF00CFB8A
:100CE000106608FB00F8A3B243EA0644A04507D902
:100CF000E41900F1FF3302D2A04500F2B980184692
:100D0000A4EB080440EA02409CE729462846BDE8D7
:100D1000F08707FA0EF7CEF1200326FA03F24FEA26
:100D2000174CB2FBFCF11FFA87F80CFB112206FAF4
:100D30000EF620FA03F301FB08F933431E0C46EAD2
:100D40000246B14500FA0EF409D9F61901F1FF3255
:100D500080F08C80B14540F2898002393E44A6EB98
:100D60000906B6FBFCF00CFB106200FB08F99EB212
:100D700046EA0246B14507D9F61900F1FF3371D2B0
:100D8000B1456FD902383E44A6EB090640EA01415D
:100D90008FE7C1F1200722FA07F88B4048EA0303E6
:100DA00026FA07F44FEA134EB4FBFEF91FFA83FC50
:100DB0000EFB19448E4020FA07F809FB0CFA48EAAA
:100DC00006084FEA184646EA0444A24502FA01F230
:100DD00000FA01F608D9E41809F1FF3044D2A2451F
:100DE00042D9A9F102091C44A4EB0A04B4FBFEF0A9
:100DF0000EFB104400FB0CFC1FFA88F848EA044480
:100E0000A44507D9E41800F1FF3E29D2A44527D90B
:100E100002381C4440EA0940A0FB0289A4EB0C0CF8
:100E2000CC45C246CE4615D312D055B1B6EB0A0317
:100E30006CEB0E0606FA07F7CB401F43CE402F603F
:100E40006E600021BDE8F0871046F7E68946DEE6D1
:100E50004645EAD2B8EB020A69EB030E0138E4E733
:100E60007046D7E718468FE78146BDE7114676E71B
:100E700002383C4444E7084606E7023A3E442BE782
:100E8000704700BF80B483B000AF78607B68042BEC
:100E900006D1094A084B1B6843F00403136005E0C0
:100EA000054A054B1B6823F00403136000BF0C3791
:100EB000BD4680BC704700BF10E000E080B485B044
:100EC00000AF78600023FB60094B1B68FB60FB6888
:100ED00003F03803FB60FA687B681343FB60044A45
:100EE000FB68136000BF1437BD4680BC704700BF6D
:100EF0000020024080B483B000AF7860084A084BFD
:100F00001B6823F0100313600549054B1A687B68C2
:100F100013430B6000BF0C37BD4680BC704700BF59
:100F20000020024080B489B000AF786039600023AF
:100F3000FB6100233B610023BB610023FB600023B6
:100F40007B610023BB603B68DB7803F00F03FB6130
:100F50003B68DB7803F01003002B05D03B689B78DF
:100F60001A46FB691343FB613B681B88DBB2002B0D
:100F700044D07B681B687B610023BB6138E00122A1
:100F8000BB6902FA03F3FB603B681B881A46FB68E7
:100F900013403B613A69FB689A4226D1BB699B00CA
:100FA000FB600F22FB6802FA03F3BB60BB68DB4304
:100FB0007A6913407B61FA69FB6802FA03F37A6984
:100FC00013437B613B68DB78282B05D10122BB6989
:100FD0009A407B685A6108E03B68DB78482B04D173
:100FE0000122BB699A407B681A61BB690133BB610E
:100FF000BB69072BC3D97B687A691A603B681B8879
:10100000FF2B46D97B685B687B610023BB613AE0BC
:10101000BB690833012202FA03F3FB603B681B88BB
:101020001A46FB6813403B613A69FB689A4227D134
:10103000BB699B00FB600F22FB6802FA03F3BB60F5
:10104000BB68DB437A6913407B61FA69FB6802FA8B
:1010500003F37A6913437B613B68DB78282B05D166
:10106000BB69083301229A407B685A613B68DB7890
:10107000482B05D1BB69083301229A407B681A616D
:10108000BB690133BB61BB69072BC1D97B687A6936
:101090005A6000BF2437BD4680BC704780B483B01F
:1010A00000AF78600B467B807A887B681A6100BF4E
:1010B0000C37BD4680BC704780B483B000AF786009
:1010C0000B467B807A887B685A6100BF0C37BD462F
:1010D00080BC704780B483B000AF7860134A134B74
:1010E0001B6823F480331360104A104B1B6823F4F1
:1010F000802313607B68B3F5803F03D0B3F5802F66
:1011000007D00DE0094A094B1B6843F48033136094
:1011100006E0064A054B1B6843F4A023136000BF9A
:1011200000BF0C37BD4680BC704700BF00100240B6
:1011300080B582B000AF00233B600023FB71002329
:10114000BB71312000F0B4F90346BB713B68013339
:101150003B603B68B3F5A06F02D0BB79002BF0D0A9
:10116000312000F0A5F90346002B02D00123FB71CA
:1011700001E00023FB71FB7918460837BD4680BDAE
:1011800080B485B000AF786039600023FB600A4B03
:101190005B68FB60FB6823F47C13FB607A683B6848
:1011A0001343FA681343FB60034AFB68536000BFB4
:1011B0001437BD4680BC70470010024080B483B035
:1011C00000AF0346FB71044AFB79136000BF0C3784
:1011D000BD4680BC704700BF6000424280B485B00D
:1011E00000AF78600023FB60094B5B68FB60FB6825
:1011F00023F00303FB60FA687B681343FB60044A37
:10120000FB68536000BF1437BD4680BC704700BF09
:101210000010024080B400AF044B5B68DBB203F007
:101220000C03DBB21846BD4680BC7047001002407C
:1012300080B485B000AF78600023FB60094B5B6829
:10124000FB60FB6823F0F003FB60FA687B681343E4
:10125000FB60044AFB68536000BF1437BD4680BC86
:10126000704700BF0010024080B485B000AF7860C6
:101270000023FB60094B5B68FB60FB6823F4E063C1
:10128000FB60FA687B681343FB60044AFB685360A9
:1012900000BF1437BD4680BC704700BF001002403D
:1012A00080B485B000AF78600023FB60094B5B68B9
:1012B000FB60FB6823F46053FB607B68DB00FA682B
:1012C0001343FB60034AFB68536000BF1437BD46FD
:1012D00080BC70470010024080B487B000AF7860D7
:1012E00000237B6100233B610023FB600023BB6084
:1012F0004C4B5B6803F00C037B617B69042B07D0CC
:10130000082B09D0002B33D17B68474A1A6033E0A1
:101310007B68454A1A602FE0424B5B6803F4701308
:101320003B61404B5B6803F48033FB603B699B0C83
:1013300002333B61FB68002B06D13B693B4A02FB51
:1013400003F27B681A6017E0364B5B6803F40033E6
:10135000002B06D03B69354A02FB03F27B681A601A
:101360000AE03B69304A02FB03F27B681A6003E043
:101370007B682D4A1A6000BF2A4B5B6803F0F003BC
:101380007B617B691B097B61294A7B6913441B785C
:10139000DBB2BB607B681A68BB68DA407B685A6066
:1013A000204B5B6803F4E0637B617B691B0A7B6114
:1013B0001F4A7B6913441B78DBB2BB607B685A68A9
:1013C000BB68DA407B689A60164B5B6803F4605335
:1013D0007B617B69DB0A7B61154A7B6913441B785F
:1013E000DBB2BB607B685A68BB68DA407B68DA6056
:1013F0000C4B5B6803F440437B617B699B0B7B6117
:101400000C4A7B6913441B78DBB2BB607B68DA68EB
:10141000BB68B2FBF3F27B681A6100BF1C37BD46A4
:1014200080BC70470010024000127A0000093D00A5
:10143000000000201000002080B483B000AF78606E
:101440000B46FB70FB78002B06D00949084B9A69C4
:101450007B6813438B6106E00549054B9A697B68FD
:10146000DB4313408B6100BF0C37BD4680BC704727
:101470000010024080B483B000AF78600B46FB7070
:10148000FB78002B06D00949084BDA697B681343C7
:10149000CB6106E00549054BDA697B68DB43134005
:1014A000CB6100BF0C37BD4680BC704700100240C6
:1014B00080B487B000AF0346FB710023FB600023BC
:1014C0007B610023FB74FB795B09DBB2FB60FB688B
:1014D000012B03D1124B1B687B6109E0FB68022BD7
:1014E00003D10F4B1B6A7B6102E00D4B5B6A7B6192
:1014F000FB7903F01F03FB607A69FB6822FA03F3B0
:1015000003F00103002B02D00123FB7401E0002350
:10151000FB74FB7C18461C37BD4680BC704700BF7F
:101520000010024080B485B000AF786039600023BD
:10153000FB817B681B88FB81FB8903F44153FB81A2
:101540003B681A883B685B8813439AB23B689B8868
:1015500013439AB23B68DB8813439AB23B681B89FA
:1015600013439AB23B685B8913439AB23B689B89E9
:1015700013439AB23B68DB8913439AB2FB89134346
:10158000FB817B68FA891A807B689B8B9BB223F472
:1015900000639AB27B689A833B681A8A7B681A82D6
:1015A00000BF1437BD4680BC704780B483B000AF25
:1015B00078600B46FB70FB78002B08D07B681B889B
:1015C0009BB243F040039AB27B681A8007E07B68C5
:1015D0001B889BB223F040039AB27B681A8000BF3D
:1015E0000C37BD4680BC704780B483B000AF7860D4
:1015F0000B467B807B687A889A8100BF0C37BD469A
:1016000080BC704780B483B000AF78607B689B89F2
:101610009BB218460C37BD4680BC704780B485B07D
:1016200000AF78600B467B800023FB737B681B89CF
:101630009AB27B8813409BB2002B02D00123FB732C
:1016400001E00023FB73FB7B18461437BD4680BCCA
:101650007047000080B58CB000AF7860396000231F
:10166000FB620023BB6200237B6200233B620023FA
:10167000FB617B68FB617B681B8A9BB2FB62FA6A39
:101680004CF6FF731340FB623B68DB881A46FB6A2B
:101690001343FB62FB6A9AB27B681A827B689B8960
:1016A0009BB2FB62FA6A4EF6F3131340FB623B688F
:1016B0009A883B681B8913439AB23B685B89134342
:1016C0009BB21A46FB6A1343FB62FB6A9AB27B68C1
:1016D0009A817B689B8A9BB2FB62FA6A4FF6FF4352
:1016E0001340FB623B689B891A46FB6A1343FB620B
:1016F000FB6A9AB27B689A8207F108031846FFF7E3
:10170000EBFDFB692E4A934202D17B69BB6201E08B
:101710003B69BB627B689B899BB21BB2002B0CDAD6
:10172000BA6A13469B0013449A001A443B681B682C
:101730005B00B2FBF3F37B620BE0BA6A13469B00DB
:1017400013449A001A443B681B689B00B2FBF3F3F6
:101750007B627B6A1B4AA2FB03235B091B01FB62C2
:10176000FB6A1B09642202FB03F37A6AD31A3B6209
:101770007B689B899BB21BB2002B0CDA3B6ADB00B7
:101780003233104AA2FB03235B0903F00703FA6A12
:101790001343FB620BE03B6A1B013233094AA2FB95
:1017A00003235B0903F00F03FA6A1343FB62FB6A2E
:1017B0009AB27B681A8100BF3037BD4680BD00BF3A
:1017C000003801401F85EB5180B483B000AF7860D2
:1017D0000B46FB70FB78002B08D07B689B899BB283
:1017E00043F400539AB27B689A8107E07B689B8937
:1017F0009BB223F400539AB27B689A8100BF0C37E6
:10180000BD4680BC704780B487B000AF78600B469F
:101810007B8013467B7000233B610023FB60002329
:10182000BB6000237B617B687B617B88DBB25B09EB
:10183000DBB23B617B8803F01F03FB600122FB6886
:1018400002FA03F3BB603B69012B03D17B690C33C4
:101850007B6109E03B69022B03D17B6910337B611B
:1018600002E07B6914337B617B78002B06D07B69B7
:101870007A691168BA680A431A6006E07B697A6976
:101880001168BA68D2430A401A6000BF1C37BD46CF
:1018900080BC704780B483B000AF78600B467B801B
:1018A0007B88C3F308039AB27B689A8000BF0C3729
:1018B000BD4680BC704780B483B000AF78607B6861
:1018C0009B889BB2C3F308039BB218460C37BD46F6
:1018D00080BC704780B485B000AF78600B467B80D9
:1018E0000023FB737B681B889AB27B8813409BB2F2
:1018F000002B02D00123FB7301E00023FB73FB7B71
:1019000018461437BD4680BC704780B487B000AF1E
:1019100078600B467B800023FB6000237B61002303
:10192000BB600023FB747B88DBB25B09DBB2BB606E
:101930007B8803F01F037B6101227B6902FA03F3BA
:101940007B61BB68012B07D17B689B899BB21A46E0
:101950007B6913407B6111E0BB68022B07D17B6878
:101960001B8A9BB21A467B6913407B6106E07B6849
:101970009B8A9BB21A467B6913407B617B881B0A5A
:101980009BB2FB600122FB6802FA03F3FB607B68F9
:101990001B889BB21A46FB681340FB607B69002BD7
:1019A00005D0FB68002B02D00123FB7401E000236B
:1019B000FB74FB7C18461C37BD4680BC704780B565
:1019C00000AF00F0A9FD00F0E5FD00F061FF01F0BF
:1019D000FDF801F0ABFF01F0B1F94FF4967000F0A3
:1019E00087FDF6E7DFF834D0002103E00C4B5B58AD
:1019F000435004310B480C4B42189A42F6D30B4A21
:101A000002E0002342F8043B094B9A42F9D300F06C
:101A100071F802F027FFFFF7D2FF70470050002057
:101A2000BCAA0008000000209806002098060020AC
:101A300058160020FEE780B400AF00BFBD4680BC52
:101A4000704780B400AFFEE780B400AFFEE780B41B
:101A500000AFFEE780B400AFFEE780B400AF00BF88
:101A6000BD4680BC704780B400AF00BFBD4680BC9F
:101A7000704780B400AF00BFBD4680BC704780B5E2
:101A800000AF00F027FD00BF80BD000080B582B030
:101A900000AF40F225510948FFF737FF0346002BFE
:101AA00008D00648FFF707FF0346FB71FB7918468D
:101AB00000F0AAFF00BF0837BD4680BD00380140D6
:101AC00080B582B000AF40F225510948FFF71DFFF5
:101AD0000346002B08D00648FFF7EDFE0346FB71D6
:101AE000FB79184600F07EFF00BF0837BD4680BD79
:101AF0000044004080B500AF154A154B1B6843F009
:101B0000010313601249124B5A68124B13404B6089
:101B10000F4A0F4B1B6823F0847323F48033136048
:101B20000B4A0B4B1B6823F480231360084A084BB5
:101B30005B6823F4FE035360054B4FF41F029A6069
:101B400000F078F8044B4FF000629A6000BF80BD4F
:101B5000001002400000FFF800ED00E080B485B006
:101B600000AF0023FB600023BB6000237B602C4B95
:101B70005B6803F00C03FB60FB68042B07D0082BA9
:101B800009D0002B33D1274B274A1A6033E0254B6D
:101B9000254A1A602FE0224B5B6803F47013BB6088
:101BA0001F4B5B6803F480337B60BB689B0C023384
:101BB000BB607B68002B06D1BB681C4A02FB03F3A9
:101BC000184A136017E0164B5B6803F40033002BD0
:101BD00006D0BB68154A02FB03F3124A13600AE001
:101BE000BB68114A02FB03F30E4A136003E00D4B7E
:101BF0000D4A1A6000BF0A4B5B681B0903F00F0314
:101C00000B4AD35CDBB2FB60064B1A68FB6822FA16
:101C100003F3044A136000BF1437BD4680BC70470D
:101C2000001002401400002000127A0000093D005C
:101C30001800002080B500AF00F002F800BF80BDA2
:101C400080B483B000AF00237B6000233B603A4A3E
:101C5000394B1B6843F480331360374B1B6803F424
:101C600000333B607B6801337B603B68002B03D112
:101C70007B68B3F5A06FF0D12F4B1B6803F40033E2
:101C8000002B02D001233B6001E000233B603B6856
:101C9000012B4BD1294A294B1B6843F010031360D9
:101CA000264A264B1B6823F003031360234A234B69
:101CB0001B6843F0020313601F4A1F4B5B685360AD
:101CC0001D4A1D4B5B6853601B4A1B4B5B6843F40A
:101CD00080635360184A184B5B6823F47C1353608D
:101CE000154A154B5B6843F4E8135360124A124BD4
:101CF0001B6843F08073136000BF0F4B1B6803F039
:101D00000073002BF9D00C4A0B4B5B6823F00303E4
:101D10005360094A084B5B6843F00203536000BFFD
:101D2000054B5B6803F00C03082BF9D100BF0C379F
:101D3000BD4680BC704700BF00100240002002403A
:101D400080B487B000AFF860B9607A6001237B612E
:101D500004E07B697A6802FB03F37B617B69BA6804
:101D6000B2FBF3F27B689A42F3D229E07B69BA684E
:101D7000B2FBF3F33B617A69BB68B3FBF2F102FBA0
:101D800001F29B1ABB607A697B6892FBF3F37B617B
:101D90003B69092B0ADDFB681B68591CFA68116056
:101DA0003A69D2B23732D2B21A7009E0FB681B68C6
:101DB000591CFA6811603A69D2B23032D2B21A7044
:101DC0007B69002BD2D100BF1C37BD4680BC704759
:101DD00080B588B000AFF860B9607A60FB687B615D
:101DE0007DE0BB681B78252B71D1BB680133BB60DC
:101DF000BB681B78642B1ED0642B06DC582B50D09C
:101E0000632B0ED0252B58D05DE0732B2BD0732B7A
:101E100002DC692B0FD056E0752B37D0782B40D0E1
:101E200051E0FB685A1CFA607A68111D79601268EB
:101E3000D2B21A7047E07B681A1D7A601B68FB619A
:101E4000FB69002B07DAFB695B42FB61FB685A1CEC
:101E5000FA602D221A70F96907F10C030A2218465C
:101E6000FFF76EFF2FE07B681A1D7A601B68BB616D
:101E700007E0FB685A1CFA60BA69511CB961127814
:101E80001A70BB691B78002BF3D11CE07B681A1D0C
:101E90007A60196807F10C030A221846FFF750FF11
:101EA00011E07B681A1D7A601B68194607F10C0364
:101EB00010221846FFF744FF05E0FB685A1CFA6041
:101EC00025221A7000BFBB680133BB6007E0FB68C6
:101ED0005A1CFA60BA68511CB96012781A70BB6853
:101EE0001B78002B7FF47DAFFB6800221A70FB6823
:101EF0001A467B69D31A18462037BD4680BD0EB4FA
:101F000080B585B000AF786007F12003BB60BA6888
:101F1000F9697868FFF75CFFF860FB6818461437CA
:101F2000BD46BDE8804003B0704780B584B000AFC7
:101F3000F860B9607A60FB68002B05D0BB68002BA5
:101F400002D07B68002B01D100230BE0102200217E
:101F5000F86802F0B6FCFB687A685A60FB68BA68F9
:101F60001A60012318461037BD4680BD80B588B081
:101F700000AFF860B9607A60BB68FB61FB68002B5A
:101F80000DD0FB681B68002B09D0FB685B68002B39
:101F900005D0BB68002B02D07B68002B01D1002349
:101FA00047E0F86800F0B0F8B8617A68BB6993421E
:101FB00028BF13467B607B68002B01D1002338E0EB
:101FC000FB685A68FB68DB68D21A7B68934228BFBB
:101FD00013467B61FB681A68FB68DB6813447A6907
:101FE000F969184602F062FCFB68DA687B691A44FA
:101FF000FB68DA607A687B69D31A7B607B68002BA8
:102000000BD0FB681868FA697B6913447A68194633
:1020100002F04CFCFB687A68DA60FB68DA68FB68FF
:102020005B689A4202D3FB680022DA607A697B68B7
:10203000134418462037BD4680BD80B588B000AF38
:10204000F860B9607A60BB68FB61FB68002B0DD05B
:10205000FB681B68002B09D0FB685B68002B05D070
:10206000BB68002B02D07B68002B01D1002347E026
:10207000F86800F07FF8B8617A68BB69934228BFBE
:1020800013467B607B68002B01D1002338E0FB689E
:102090005A68FB689B68D21A7B68934228BF134634
:1020A0007B61FB681A68FB689B6813447A69194670
:1020B000F86902F0FBFBFB689A687B691A44FB68CD
:1020C0009A607A687B69D31A7B607B68002B0BD09F
:1020D000FA697B69D018FB681B687A68194602F0B8
:1020E000E5FBFB687A689A60FB689A68FB685B6846
:1020F0009A4202D3FB6800229A607A697B68134493
:1021000018462037BD4680BD80B487B000AF7860E8
:102110007B68002B07D07B681B68002B03D07B6893
:102120005B68002B01D100231FE07B68DB683B610B
:102130007B689B68FB603A69FB689A4203D17B68C5
:102140005B687B610FE0FA683B699A4204D9FA68E0
:102150003B69D31A7B6106E07B685A68F9683B6982
:10216000CB1A13447B617B69013B18461C37BD4683
:1021700080BC704780B487B000AF78607B68002B6C
:1021800007D07B681B68002B03D07B685B68002B43
:1021900001D100231DE07B68DB683B617B689B68A5
:1021A000FB603A69FB689A4202D100237B610FE031
:1021B0003A69FB689A4204D93A69FB68D31A7B6191
:1021C00006E07B685A683969FB68CB1A13447B6167
:1021D0007B6918461C37BD4680BC704780B582B00D
:1021E00000AF0346FB7110210748FEF765FFFB793E
:1021F000184600F0E5FA10210348FEF74FFF00BF34
:102200000837BD4680BD00BF0008014080B500AF63
:1022100000F076FA10210348FEF740FF00F004F8C2
:1022200000BF80BD0008014080B582B000AF002330
:102230007B6010211248FEF73FFF9F2000F0C0FA9C
:10224000FF2000F0BDFA03461B047B60FF2000F076
:10225000B7FA03461B027A6813437B60FF2000F045
:10226000AFFA03461A467B6813437B60102104488B
:10227000FEF714FF7B6818460837BD4680BD00BFD7
:102280000008014080B500AF0620FFF7A7FF00BFA0
:1022900080BD000080B582B000AF10210B48FEF772
:1022A0000BFF052000F08CFAFF2000F089FA0346AE
:1022B000FB7110210548FEF7F1FEFB7903F00103E5
:1022C000002BEAD100BF0837BD4680BD00080140A1
:1022D00080B582B000AF7860FFF7D4FF10211048BE
:1022E000FEF7EAFE202000F06BFA7B681B0CDBB2E5
:1022F000184600F065FA7B681B0ADBB2184600F04E
:102300005FFA7B68DBB2184600F05AFA10210448E5
:10231000FEF7C4FEFFF7BEFF00BF0837BD4680BD15
:102320000008014080B586B000AFF860B960134680
:10233000FB80FB88B3F5807F02D94FF48073FB806C
:10234000FFF7A0FF10211948FEF7B6FE022000F0AB
:1023500037FAFB681B0CDBB2184600F031FAFB6859
:102360001B0ADBB2184600F02BFAFB68DBB21846FA
:1023700000F026FA0023FB8209E0FB8ABA681344C6
:102380001B78184600F01CFAFB8A0133FB82FA8A9C
:10239000FB889A42F1D310210448FEF77FFEFFF735
:1023A00079FF00BF1837BD4680BD00BF000801405F
:1023B00090B587B000AFF860B9601346FB8010217C
:1023C0001848FEF779FE032000F0FAF9FB681B0CB1
:1023D000DBB2184600F0F4F9FB681B0ADBB21846C2
:1023E00000F0EEF9FB68DBB2184600F0E9F90023D3
:1023F000FB820AE0FB8ABA68D418FF2000F0E0F9FB
:1024000003462370FB8A0133FB82FA8AFB889A42D7
:10241000F0D310210348FEF741FE00BF1C37BD4634
:1024200090BD00BF0008014080B483B000AF0346F8
:102430003960FB7197F90730002B0BDA0D49FB79F6
:1024400003F00F03043B3A68D2B21201D2B20B443C
:102450001A7609E0084997F907303A68D2B21201B2
:10246000D2B20B4483F8002300BF0C37BD4680BCBA
:10247000704700BF00ED00E000E100E080B582B0F1
:1024800000AF78607B68B3F1807F01D3012311E056
:102490000A4A7B6823F07F43013B53600F214FF0D2
:1024A000FF30FFF7C1FF054B00229A60034B072264
:1024B0001A60002318460837BD4680BD10E000E0D2
:1024C00080B400AF024B1B681846BD4680BC704705
:1024D000B406002080B400AF044B1B680133034AEC
:1024E000136000BFBD4680BC704700BFB40600202B
:1024F00080B584B000AF7860FFF7E2FFF86000BFFE
:10250000FFF7DEFF0246FB68D21A7B689A42F7D3D8
:1025100000BF1037BD4680BD80B582B000AF4FF41C
:102520008030FEF7D7FDFEF703FE0346FB71FB7913
:10253000012B28D11020FEF7DDFC0220FEF7BEFCA7
:102540000020FEF775FE0020FEF7AAFE4FF4806023
:10255000FEF78AFE4FF4E0114FF48030FEF710FED4
:102560000120FEF72BFE00BF3920FEF7A1FF034636
:10257000002BF9D00220FEF731FE00BFFEF74AFE25
:102580000346082BFAD1FFF7E9FA00BF0837BD462A
:1025900080BD000080B500AF0420FEF773FC0A4B3D
:1025A0001B680A4AA2FB03239B091846FFF766FF34
:1025B0000346002B00D0FEE70F214FF0FF30FFF75E
:1025C00033FF00BF80BD00BF14000020D34D621058
:1025D00080B582B000AF01211020FEF72DFF4FF42F
:1025E0000053BB801023FB710323BB713B1D1946B5
:1025F0000448FEF797FC00F013F800BF0837BD460B
:1026000080BD00BF0010014080B500AF4FF4005105
:102610000248FEF743FD00BF80BD00BF001001402F
:1026200080B500AF4FF400510248FEF745FD00BFF2
:1026300080BD00BF0010014080B500AF00F034F84D
:1026400003461A46044B1A70034B1B78184600F0D9
:1026500041F800BF80BD00BFB806002080B584B03F
:1026600000AF0346FB71FB79012B17D84FF4805064
:10267000FFF72EFEFB793B73FF237B73FF23BB73B6
:10268000FF23FB7307F10C03042219464FF480501B
:10269000FFF748FE034AFB79137000E000BF1037D4
:1026A000BD4680BDB806002080B582B000AF3B4675
:1026B000042219464FF48050FFF77AFE3B78FB71F5
:1026C000FB79012B01D8FB7900E00023184608377D
:1026D000BD4680BD80B582B000AF0346FB71FB797B
:1026E000012B02D1FFF790FF01E0FFF799FF034AAA
:1026F000FB79137000BF0837BD4680BDB8060020C7
:1027000080B586B000AF01214FF48050FEF794FEF3
:102710001023BB821023FB750323BB7507F1140341
:1027200019462548FEF7FEFB2023BB821823FB75C4
:102730000323BB7507F1140319461F48FEF7F2FB8C
:102740004023BB820423FB7507F1140319461A4882
:10275000FEF7E8FB8023BB821823FB750323BB75C0
:1027600007F1140319461448FEF7DCFB0823BB816C
:102770004FF482737B8001233B810223FB804FF463
:1027800000737B8100233B800023BB800023FB81FF
:1027900007233B823B4619460848FEF7C3FE01214A
:1027A0000648FEF702FF10210348FEF777FC00BF42
:1027B0001837BD4680BD00BF000801400030014011
:1027C00080B582B000AF0346FB7100BF02210E4806
:1027D000FEF724FF0346002BF8D0FB799BB2194685
:1027E0000948FEF701FF00BF01210748FEF716FF69
:1027F0000346002BF8D00448FEF704FF0346DBB283
:1028000018460837BD4680BD0030014080B483B013
:1028100000AF0346FB71084997F907305B09FA7965
:1028200002F01F02012000FA02F241F8232000BF4B
:102830000C37BD4680BC704700E100E080B483B037
:1028400000AF03463960FB7197F90730002B0BDAB4
:102850000D49FB7903F00F03043B3A68D2B2120131
:10286000D2B20B441A7609E0084997F907303A6862
:10287000D2B21201D2B20B4483F8002300BF0C374E
:10288000BD4680BC704700BF00ED00E000E100E005
:1028900080B58AB000AF01210420FEF7CDFD0121F3
:1028A0004FF48040FEF7C8FD01214FF40030FEF7E1
:1028B000E1FD0423BB84032387F82630182387F81F
:1028C000273007F1240319463F48FEF72BFB082366
:1028D000BB84042387F8273007F1240319463A48BC
:1028E000FEF720FB4FF40073BB84032387F82630E8
:1028F000182387F8273007F1240319463248FEF7DA
:1029000011FB4FF48063BB84042387F8273007F161
:10291000240319462C48FEF705FB4FF480722B491F
:102920002B48FFF702FB4FF480722A492A48FFF731
:10293000FCFA4FF4E1337B610023BB830C23FB8360
:1029400000237B8300233B8400233B8307F1140394
:1029500019462248FEF77EFE012240F225511F480B
:10296000FEF751FF01212620FFF768FF2620FFF721
:102970004DFF01211948FEF727FF4FF4E1337B603B
:102980000023BB810C23FB8100237B8100233B823E
:1029900000233B813B1D19461148FEF75BFE0122D7
:1029A00040F225510E48FEF72EFF02212520FFF7A9
:1029B00045FF2520FFF72AFF01210948FEF704FF04
:1029C00000BF2837BD4680BD00080140CC0700206D
:1029D000CC080020BC060020BC07002000440040BA
:1029E0000038014080B582B000AF0346FB71FB1D8B
:1029F000012219460348FFF7B9FA00BF0837BD4660
:102A000080BD00BFCC08002080B582B000AF034677
:102A1000FB71FB1D012219460348FFF7A7FA00BF0F
:102A20000837BD4680BD00BFBC07002080B582B01E
:102A300000AF78600B467B807B881A467968044833
:102A4000FFF7FBFA03469BB218460837BD4680BD28
:102A5000BC07002080B582B000AF78600B46FB70E9
:102A600000BF80217868FEF735FF0346002BF8D0C1
:102A7000FB789BB219467868FEF70CFF00BF083759
:102A8000BD4680BD80B586B000AFF860B960134622
:102A9000FB800023FB820AE0FB8ABA6813441B78A0
:102AA0001946F868FFF7D6FFFB8A0133FB82FA8AE2
:102AB000FB889A42F0D300BF1837BD4680BD0000A6
:102AC00080B582B000AF78607868FDF74BFB0346B5
:102AD0009BB21A4679680348FFF7D4FF00BF083756
:102AE000BD4680BD0038014080B582B000AF78603F
:102AF0007868FDF737FB03469BB21A4679680348AE
:102B0000FFF7C0FF00BF0837BD4680BD004400404E
:102B100080B582B000AF78603960FFF7D1FC024623
:102B20007B68D21A3B689A422CBF01230023DBB298
:102B300018460837BD4680BD80B582B000AF7860CA
:102B40007868FFF7D1FF0348FFF7CEFF00BF0837D3
:102B5000BD4680BD389F000880B500AFFFF7DCFCA4
:102B6000FFF718FDFFF794FEFFF750FB00F00EF99A
:102B7000FFF72EFDFFF760FD00F060FF024801F057
:102B800033FB00BF80BD00BF3C9F000880B500AF95
:102B900000F0FCF800F052FF0A4B00221A700A4BBA
:102BA00001221A76084B01221A70FFF789FC0246AF
:102BB000054B9A60FFF784FC0246034B5A6000BF46
:102BC00080BD00BFFC080020DC08002080B500AFFD
:102BD000202200210A4801F074FE094B00221A70DD
:102BE000FFF76EFC0246064B9A60FFF769FC02464F
:102BF000034B5A60024B01221A7600BF80BD00BF12
:102C0000DC08002080B59CB000AF464B1B7B83F0F6
:102C10000103DBB2002B1CD0424B5B6942F2107106
:102C20001846FFF775FF0346002B12D03E48FFF70A
:102C30005BFF3E48FFF744FF3A4B01221A73FFF750
:102C40003FFC0246374B1A61FFF73AFC0246354B10
:102C50005A61344B1B7B002B5AD007F150031E21C5
:102C6000184600F017FE0346002B39D007F1500339
:102C70001846FFF761FF3A4607F150031146184620
:102C800001F022FB0346002B2AD03B78022B06D111
:102C9000244B01221A76234B00221A7320E03B7842
:102CA000002B06D11F4B01221A761E4B00221A73ED
:102CB00016E03B78032B05D03B78042B02D03B7801
:102CC000012B0DD11A48FFF70FFF164B00221A7681
:102CD000144B00221A73134B01221A70FFF756FF90
:102CE000104B1B6940F6B8311846FFF711FF034639
:102CF000002B0DD00F48FFF7F7FE0A4B00221A7386
:102D0000084B00221A76074B01221A70FFF73EFF8C
:102D1000094B1B78012B01D001F0AEF800BF7037D2
:102D2000BD4680BDDC0800204C9F0008649F000861
:102D3000709F00088C9F0008B014002080B500AF81
:102D4000104B1B78012B0AD0022B12D0002B00D085
:102D500015E0FFF701FF0B4B01221A700FE000F0A6
:102D60002FFD094B1B7A022B08D1064B02221A7049
:102D700004E0FFF747FF01F00FFA00E000BF00BFDB
:102D800080BD00BFDC0800206414002080B500AFC7
:102D90004C2200210C4801F094FD0B4B00221A72CA
:102DA000094B42F210725A60074B00225A72064BCE
:102DB00000221A73044B00221A76034B012283F877
:102DC000212000BF80BD00BF6414002080B582B008
:102DD00000AF1A4B5B7A0133DAB2184B5A72174BB9
:102DE0005B7A022B1AD81648FFF77EFE134B5B7AEC
:102DF0003846144A082101F06DFD3B461846FFF79E
:102E000073FE1148FFF770FE0C4B00221A720B4B39
:102E100000221A73094B00221A760BE00B48FFF7C9
:102E200063FE064B04221A72044B00221A76034BEF
:102E300000225A7200BF0837BD4680BD64140020CE
:102E4000E49F0008F09F0008F49F0008FC9F000822
:102E500080B485B000AF786039600023FB6023E068
:102E60001649FA6813465B0013449B000B441A682A
:102E70007B689A4215D11149FA6813465B001344E6
:102E80009B000B4404331A683B689A4209D10B49F2
:102E9000FA6813465B0013449B000B4408331B681D
:102EA00006E0FB680133FB60FB68072BD8D9044BB5
:102EB00018461437BD4680BC704700BF00A7000805
:102EC000BC9F000880B58EB000AFB64B1B7B0D2BAE
:102ED00000F2808201A252F823F000BF152F0008F3
:102EE000332F0008A12F0008BF2F00086930000809
:102EF00087300008F73000081531000885310008D8
:102F0000ED3100085D3200087B32000825330008EF
:102F100043330008A448FFF7E7FDA448FFF7D0FDBE
:102F2000FFF7CEFA02469F4B1A609E4B01221A739E
:102F30005FE23B463221184600F0ACFC0346002B12
:102F40001CD03B461846FFF7F7FD3B46984918460C
:102F500001F0BAF90346002B10D0954B1B78002BDB
:102F600004D1904B02221A73012343E2904B1B7849
:102F7000012B03D1FFF72AFF00233BE2894B1B689B
:102F800042F210711846FFF7C3FD0346002B00F014
:102F900023828848FFF7A8FDFFF718FF002329E2E6
:102FA0008548FFF7A1FD8548FFF78AFDFFF788FAFE
:102FB00002467C4B1A607B4B03221A7319E23B4694
:102FC0003221184600F066FC0346002B3AD03B46FF
:102FD0001846FFF7B1FD3B467549184601F074F9F4
:102FE0000346002B2ED0724B1B78052B1FD1704B44
:102FF0005B68012B03D06E4B5B68052B04D1694BDA
:1030000004221A730123F5E1694B5B68022B07D098
:10301000674B5B68032B03D0654B5B68042B11D1B6
:103020006748FFF761FDFFF7D1FE0023E2E1604B47
:103030001B78012B06D16348FFF756FDFFF7C6FE4C
:103040000023D7E1574B1B6842F210711846FFF777
:103050005FFD0346002B00F0C1815B48FFF744FD94
:10306000FFF7B4FE0023C5E15848FFF73DFD58487F
:10307000FFF726FDFFF724FA02464A4B1A60494B38
:1030800005221A73B5E13B463221184600F002FCD6
:103090000346002B1DD03B461846FFF74DFD3B462F
:1030A0004349184601F010F90346002B11D0404B5C
:1030B0001B78002B04D13B4B06221A73012399E1A4
:1030C0003B4B1B78012B04D13E48FFF70DFDFFF76A
:1030D0007DFE344B1B6842F210711846FFF718FD55
:1030E0000346002B00F07C813A48FFF7FDFCFFF718
:1030F0006DFE00237EE13848FFF7F6FC3748FFF706
:10310000DFFCFFF7DDF90246264B1A60254B07224C
:103110001A736EE13B463221184600F0BBFB0346B2
:10312000002B1DD03B461846FFF706FD3B462049C5
:10313000184601F0C9F80346002B11D01C4B1B7830
:10314000002B04D1174B08221A73012352E1184BAC
:103150001B78012B04D11B48FFF7C6FCFFF736FE96
:10316000104B1B6842F210711846FFF7D1FC034662
:10317000002B00F037811A48FFF7B6FCFFF726FE58
:10318000002337E11748FFF7AFFC1748FFF798FC1B
:10319000FFF796F90246034B1A60024B09221A7395
:1031A00027E100BF6414002024A0000834A0000818
:1031B000141400203CA000084CA0000860A00008E7
:1031C0006CA00008A8A00008C0A00008D0A00008BB
:1031D000E8A00008F4A0000804A1000824A1000849
:1031E00034A1000844A1000860A100083B46322138
:1031F000184600F04FFB0346002B1DD03B461846F7
:10320000FFF79AFC3B467D49184601F05DF80346FE
:10321000002B11D0794B1B78002B04D1784B0A225C
:103220001A730123E6E0754B1B78012B04D1754816
:10323000FFF75AFCFFF7CAFD714B1B6842F2107191
:103240001846FFF765FC0346002B00F0CD806E4862
:10325000FFF74AFCFFF7BAFD0023CBE06B48FFF70E
:1032600043FC6B48FFF72CFCFFF72AF90246644B3E
:103270001A60634B0B221A73BBE03B46322118469F
:1032800000F008FB0346002B3BD03B461846FFF7F7
:1032900053FC3B465949184601F016F80346002BEB
:1032A0002FD0564B1B78062B20D1544B5B681A4607
:1032B000534B5A62514B9B681A46514B9A62504B82
:1032C0005A6A4F4B9B6A19461046FFF7C1FD786357
:1032D0001F22796B4F4801F06FFB494B002283F8A6
:1032E0004B20474B0C221A73012383E0434B1B787E
:1032F000012B06D14348FFF7F7FBFFF767FD0023DB
:1033000078E03F4B1B6842F210711846FFF700FC53
:103310000346002B6AD04048FFF7E6FBFFF756FD57
:10332000002367E03D48FFF7DFFB3D48FFF7C8FBA0
:10333000FFF7C6F80246324B1A60314B0D221A7362
:1033400057E03B463221184600F0A4FA0346002B12
:103350002FD03B461846FFF7EFFB3B462749184660
:1033600000F0B2FF0346002B23D0244B1B78002B28
:1033700014D1234B93F82130002B07D0204B01228E
:103380001A721F4B00221A76012333E01C4B0222D3
:103390001A721B4B00221A7301232BE0174B1B7868
:1033A000012B06D11748FFF79FFBFFF70FFD002306
:1033B00020E0134B1B6842F210711846FFF7A8FB80
:1033C0000346002B14D01748FFF78EFBFFF7FEFCD7
:1033D00000230FE000BF0CE000BF0AE000BF08E0E0
:1033E00000BF06E000BF04E000BF02E000BF00E055
:1033F00000BF002318463837BD4680BD1414002096
:1034000064140020A8A000087CA1000890A1000876
:10341000B8A1000890140020C4A10008D4A100089D
:10342000F0A10008FCA1000880B59EB000AF944B4D
:103430001B7E052B00F2188101A252F823F000BF79
:103440005934000877340008ED34000827350008A7
:103450009B350008B93500088A48FFF745FB8A48C4
:10346000FFF72EFBFFF72CF80246854B1A60844BC2
:1034700001221A76FFE007F140033221184600F0DE
:1034800009FA0346002B1FD007F140031846FFF747
:1034900053FB07F140037D49184600F015FF034632
:1034A000002B11D0794B1B78002B04D1744B0222D6
:1034B0001A760123E0E0754B1B78012B04D1744888
:1034C000FFF712FBFFF782FC6D4B1B6842F2107195
:1034D0001846FFF71DFB0346002B00F0C7806D4820
:1034E000FFF702FBFFF772FC0023C5E0644B93F883
:1034F0002C30002B01D0684B00E0684B7B673846CE
:103500007B6F674A402101F0E5F93B461846FFF71B
:10351000D7FAFEF7D5FF0246594B1A60584B0322E3
:103520001A7600BFA7E007F140033221184600F0E9
:10353000B1F90346002B1FD007F140031846FFF7EF
:10354000FBFA07F140035149184600F0BDFE03465F
:10355000002B11D04D4B1B78002B04D1484B04227B
:103560001A76012388E0494B1B78012B04D1484887
:10357000FFF7BAFAFFF72AFC414B1B6842F21071C1
:103580001846FFF7C5FA0346002B71D04548FFF7F0
:10359000ABFAFFF71BFC00236EE04348FFF7A4FAE9
:1035A0004248FFF78DFAFEF78BFF0246344B1A6054
:1035B000334B05221A765EE007F1400332211846AC
:1035C00000F068F90346002B3DD007F14003184690
:1035D000FFF7B2FA07F140032C49184600F074FED9
:1035E0000346002B2FD0294B1B78072B18D1274BD4
:1035F0001B7C002B0DD02E48FFF776FA2D48FFF7E5
:1036000073FA2D48FFF770FA1D4B02221A7201233C
:1036100032E02A48FFF768FA194B02221A7212E0C8
:103620001A4B1B78002B03D12548FFF75DFA0AE0FF
:10363000164B1B78012B06D11548FFF755FAFFF7FB
:10364000C5FB002318E00E4B1B6841F27071184651
:10365000FFF75EFA0346002B0CD01A48FFF744FA36
:10366000FFF7B4FB002307E000BF04E000BF02E067
:1036700000BF00E000BF002318467837BD4680BD7C
:10368000641400200CA2000820A2000814140020DA
:10369000A8A0000830A2000890140020BC9F0008D9
:1036A00040A200085CA200086CA200087CA20008EE
:1036B0008CA200082414002098A200089CA20008F4
:1036C000C4A20008F0A2000880B58EB000AF354B50
:1036D0001B7E002B02D0012B0FD059E03248FFF7A0
:1036E00003FA3248FFF7ECF9FEF7EAFE02462D4BEB
:1036F0001A602C4B01221A764FE03B1D32211846EE
:1037000000F0C8F80346002B2ED03B1D1846FFF7EB
:1037100013FA3B1D2649184600F0D6FD0346002B40
:1037200022D0234B1B78002B10D12248FFF7DCF965
:103730001C4B00221A761B4B00221A72194B0022D6
:103740001A73184B00225A72012327E0184B1B787A
:10375000012B09D11848FFF7C7F9124B00221A763E
:10376000FFF734FB002319E00E4B1B6842F2107187
:103770001846FFF7CDF90346002B0DD00F48FFF791
:10378000B3F9084B00221A76FFF720FB002305E06F
:10379000044B00221A7600E000BF00231846383799
:1037A000BD4680BD6414002004A3000824A30008C3
:1037B0001414002034A3000858A3000870A30008C4
:1037C00080B500AF0E4B1B7A042B16D801A252F81D
:1037D00023F000BFE9370008EF370008FB37000887
:1037E000FB370008F5370008FFF76CFB06E0FFF732
:1037F0001BFE03E0FFF768FF00E000BF00BF80BDD5
:103800006414002080B582B000AF78601F4B93F83D
:103810000235092B01D9002333E01C4B93F8003506
:10382000DB011A4A13447F227968184601F0C4F874
:10383000164B93F80035154ADB0113447F33002201
:103840001A70124B93F800355A1C114B83FB02136C
:103850009910D317C91A0B469B000B445B00D11A71
:10386000CAB20A4B83F80025084B93F8023501339E
:10387000DAB2064B83F80225044B012283F80325B4
:10388000012318460837BD4680BD00BF000900204F
:103890006766666680B582B000AF78600B467B8055
:1038A000204B93F80235002B01D1002336E01D4B4D
:1038B00093F80135DB011B4A99187B88013B1A46B6
:1038C000786801F079F87B88013B7A68134400221C
:1038D0001A70144B93F801355A1C134B83FB0213D7
:1038E0009910D317C91A0B469B000B445B00D11AE1
:1038F000CAB20C4B83F801250A4B93F80235013B01
:10390000DAB2084B83F80225064B93F80235002BF8
:1039100003D1044B002283F80325012318460837FE
:10392000BD4680BD000900206766666680B582B02E
:1039300000AF2FE0FB790D2B02D0FB790A2B10D1C1
:103940001A4B1B88002B25D0184B1B881A46184B86
:10395000002199541648FFF755FF144B00221A8096
:1039600018E0124B1B887E2B0AD8104B1B885A1C60
:1039700091B20E4A11801A46F9790D4B995409E01B
:103980000B4B002283F87F200948FFF73BFF074BD2
:1039900000221A80FB1D01211846FFF747F8034655
:1039A000002BC7D100BF0837BD4680BD840E002064
:1039B000040E002080B584B000AF78607B68002BD7
:1039C00003D07B681B78002B01D1002331E078689D
:1039D000FCF7C8FBB860BB68072B02D9BB680F2B8C
:1039E00001D9002325E07B68FB60FB681B782B2B4B
:1039F0001AD1FB680133FB60BB68013BBB60BB684D
:103A0000072B02D9BB680F2B0ED9002311E0FB68EE
:103A10001B782F2B03D9FB681B78392B01D9002386
:103A200007E0FB680133FB60FB681B78002BEED1DD
:103A3000012318461037BD4680BD000080B586B012
:103A400000AF4FF4CC720021344800F03AFF334B02
:103A500000221A70314B42F210729A602F4B0022F2
:103A60001A733B1D102219460020FEF7A1FC01230A
:103A7000FB750023BB7515E0BB7D07F118021344ED
:103A800013F8143CFF2B0AD0BB7D07F11802134436
:103A900013F8143C002B02D00023FB7505E0BB7D1E
:103AA0000133BB75BB7D0F2BE6D9FB7D83F0010392
:103AB000DBB2002B28D03B1D0F221946184800F01E
:103AC000F5FE164B00221A771548FFF773FF0346E1
:103AD000002B0CD0114B01225A771248FFF704F843
:103AE0000F48FFF701F81048FEF7FEFF12E00B4BFE
:103AF00000225A770D48FEF7F7FF0948FEF7F4FF5A
:103B00000948FEF7F1FF05E0044B00225A77084808
:103B1000FEF7EAFF00BF1837BD4680BDB014002095
:103B2000BD14002088A30008ACA30008B0A30008BF
:103B3000E0A3000880B400AF074B002283F82020E8
:103B4000054B002283F82820034B002283F8DC2059
:103B500000BFBD4680BC7047B014002080B582B065
:103B600000AF1A4B1B7B0133DAB2184B1A73174B99
:103B70001B7B022B1BD81648FEF7B6FF134B1B7B93
:103B80003846144A082100F0A5FE3B461846FEF7C9
:103B9000ABFF1148FEF7A8FF0C4B00221A70FFF78D
:103BA000C9FFFEF78DFC0246084B5A600AE00B483D
:103BB000FEF79AFF054B05221A70FFF7BBFF034B78
:103BC00000221A7300BF0837BD4680BDB014002024
:103BD00000A4000814A4000818A4000820A40008E9
:103BE00080B582B000AF786039602B4B1B78002B1A
:103BF00004D02A48FEF778FF002349E0264B5B7F7C
:103C000083F00103DBB2002B04D02548FEF76CFFE4
:103C100000233DE07B68002B10D07B681B78002BD5
:103C20000CD010221F49786800F0B4FE0346002B28
:103C300004D01D48FEF758FF002329E03B68002B05
:103C400003D03B681B78002B04D11848FEF74CFFCB
:103C500000231DE00F221349154800F0ADFE0E4B66
:103C6000002283F83820A0223968124800F0A4FE10
:103C7000094B002283F8D920074B002283F820202B
:103C8000054B002283F82820034B01221A700123E0
:103C900018460837BD4680BDB014002044A4000873
:103CA00058A40008BD14002074A400089CA40008B7
:103CB000D9140020E914002080B5A4B000AF654BF2
:103CC00093F82030012B19D0022B71D0002B00D09B
:103CD000BAE03846604B614A402100F0FBFD3B46AC
:103CE0001846FEF7EDFE5B4B012283F82020FEF71D
:103CF000E7FB0246574B5A6000BFA5E0554B5B6897
:103D0000C8211846FEF704FF0346002B1BD0544879
:103D1000FCF728FA03469BB21A4651495148FEF770
:103D2000B1FE1420FEF7E4FB1A214E48FEF792FE86
:103D3000484B022283F82020FEF7C2FB0246454B87
:103D40005A60012381E007F1400350211846FFF734
:103D5000A1FD0346002B19D007F140031846FEF7DA
:103D6000EBFE07F140034049184600F0ADFA034668
:103D7000002B0BD03C4B1B780A2B03D03A4B1B7803
:103D8000012B03D1FFF7EAFE00235EE0314B5A68B6
:103D9000304B9B6819461046FEF7BAFE0346002BCF
:103DA0004FD03248FEF7A0FEFFF7D8FE00234CE0CC
:103DB00007F1400350211846FFF76CFD0346002B26
:103DC0002DD007F140031846FEF7B6FE07F1400379
:103DD0002549184600F078FA0346002B1FD0224BE5
:103DE0001B78092B1BD0204B1B78002B0BD12048B4
:103DF000FEF77AFE174B04221A70164B00221A7334
:103E0000FFF798FE0BE0184B1B780A2B03D0164BDC
:103E10001B78012B03D1FFF7A1FE002315E00D4B0A
:103E20005A680C4B9B6819461046FEF771FE034614
:103E3000002B08D00F48FEF757FEFFF78FFE002338
:103E400003E000BF00E000BF002318469037BD46E6
:103E500080BD00BFB0140020D9140020B4A4000815
:103E6000E914002000380140880E0020C4A4000896
:103E7000E4A40008F8A4000880B5C0B000AFB34BBC
:103E800093F8DC30052B00F2538101A252F823F0A5
:103E9000A93E0008C93E00081B3F0008493F000832
:103EA0006340000895400008A948FEF71DFEA94898
:103EB000FEF706FEFEF704FB0246A44B5A60A34B36
:103EC000012283F8DC203AE107F13803C8211846C3
:103ED000FFF7E0FC0346002B00F02C8107F13803CC
:103EE0009D49184600F0F0F90346002B00F02281AE
:103EF000994B1B780B2B40F01D81974B5B68DAB216
:103F0000924B83F8E420914B022283F8DC20FEF7E9
:103F1000D7FA02468D4B5A600CE18C4B93F8E43093
:103F200038468E4A202100F0D5FC3B461846FEF765
:103F3000C7FD864B032283F8DC20FEF7C1FA024658
:103F4000824B5A6000BFFAE007F13803C8211846D7
:103F5000FFF7A0FC0346002B72D007F13803184688
:103F6000FEF7EAFD07F138037B49184600F0ACF98B
:103F70000346002B64D0784B1B780D2B09D10F2200
:103F80007749784800F018FD704B002283F8F42040
:103F900056E0714B1B780C2B46D1A0227049724819
:103FA00000F00AFD694B002283F895216F496D48A6
:103FB000FCF7CEF80346002B28D16D496A48FCF780
:103FC000C7F80346002B0AD10020FEF783FB002030
:103FD000FEF744FB67490020FFF702FE19E066493F
:103FE0006148FCF7B5F80346002B0AD10120FEF723
:103FF00071FB0120FEF732FB60490020FFF7F0FD66
:1040000007E05F490020FFF7EBFD02E05D48FEF7A7
:104010006BFD4E4B042283F8DC20FEF751FA02467A
:104020004A4B5A6001238BE04B4B1B78012B03D08A
:10403000494B1B780A2B03D1FFF790FD00237FE04B
:10404000424B5B684FF47A711846FEF761FD0346F8
:10405000002B71D04C48FEF747FDFFF77FFD002392
:104060006EE03A4B93F8E43007F12000474A1821FC
:1040700000F030FC07F120031846FEF721FD334B1A
:10408000052283F8DC20FEF71BFA02462F4B5A600C
:1040900000BF54E007F13803C8211846FFF7FAFBC8
:1040A0000346002B2ED007F138031846FEF744FDD7
:1040B00007F138032849184600F006F90346002B9B
:1040C00020D0254B1B78002B0BD13148FEF70CFD7F
:1040D0001E4B00221A701D4B002283F8DC200123A6
:1040E0002EE01D4B1B78012B03D01B4B1B780A2B9A
:1040F00008D1164B002283F8DC20144B00221A70E2
:1041000000231DE0114B5B684FF47A711846FEF7EF
:10411000FFFC0346002B11D01E48FEF7E5FC0B4BBD
:10412000002283F8DC20094B00221A70002307E0EC
:1041300000BF04E000BF02E000BF00E000BF0023BA
:10414000184607F58077BD4680BD00BFB01400203B
:1041500018A5000830A50008880E002044A5000816
:10416000980E002095150020A5150020BD140020F4
:1041700054A5000858A5000864A5000868A5000813
:1041800074A5000880A50008A8A50008C0A500081F
:10419000D0A50008E8A5000880B500AF114B1B783A
:1041A000042B1BD801A252F823F000BFDD41000808
:1041B000C1410008C7410008DD410008CD410008A9
:1041C000FFF77AFD0BE0FFF757FE08E0054B0022F2
:1041D00083F8DC20034B00221A7000E000BF00BF10
:1041E00080BD00BFB014002080B588B000AF7860FB
:1041F0007B68002B01D1002357E07868FFF7DAFBDA
:10420000034683F00103DBB2002B0AD02948FEF7F6
:104210006BFC7868FEF768FC2748FEF765FC002316
:1042200043E07868FBF79EFFF861FB690F2B01D92B
:1042300000233AE00023BB61B869FEF749F807F1B3
:1042400008031022FF21184600F03BFB07F108038A
:10425000FA697968184600F029FBFB690F2B28BF23
:104260000F2307F120021344002203F8182C07F152
:104270000803102219460020FEF754F807F108033E
:104280000F2219460D4800F097FB0D4B00221A77BC
:104290000B4B01225A770B48FEF726FC0748FEF726
:1042A00023FC0548FEF720FC012318462037BD46B5
:1042B00080BD00BF04A60008ACA30008BD14002008
:1042C000B014002028A6000880B5A8B002AF78601E
:1042D00039607B68002B02D03B68002B01D10023A2
:1042E000ABE250220021386800F0EBFA3B680E2266
:1042F0001A707868FBF736FFC7F8940004E0D7F827
:104300009430013BC7F89430D7F89430002B0FD08D
:10431000D7F89430013B7A6813441B780D2BEED00C
:10432000D7F89430013B7A6813441B780A2BE6D007
:10433000D7F89430002B01D100237EE2D7F89430D7
:10434000012B08D97B681B78412B04D17B68013392
:104350001B78542B0BD0D7F89430022B09D90322A9
:10436000AB49786800F016FB0346002B01D100230F
:1043700063E2D7F89430022B0DD17B681B784F2B6A
:1043800009D17B6801331B784B2B04D13B68002299
:104390001A70012351E2D7F89430052B0CD1052275
:1043A0009C49786800F0F6FA0346002B04D13B687C
:1043B00001221A70012340E2D7F89430052B44D92A
:1043C00006229549786800F0E5FA0346002B3CD1B7
:1043D0007B680633C7F8903004E0D7F8903001339B
:1043E000C7F89030D7F890301B78202BF5D0D7F84D
:1043F00090301B78092BF0D08849D7F8900000F056
:10440000F0FA0346002B03D03B6802221A701AE030
:104410008349D7F8900000F0E4FA0346002B03D05C
:104420003B6803221A700EE07E49D7F8900000F036
:10443000D8FA0346002B03D03B6804221A7002E02E
:104440003B680E221A700123F7E1D7F89430052B50
:1044500024D906227449786800F09CFA0346002BA0
:104460001CD14FF0FF33FB654FF0FF33BB657B681A
:104470000633FB6707F1580307F15C026B49F86FDD
:1044800000F05CFA0346022B08D13B6805221A7043
:10449000BB6D1A463B685A600123CEE1012387F8C1
:1044A0008F300023C7F8883016E07A68D7F8883054
:1044B00013441B782F2B06D97A68D7F88830134419
:1044C0001B78392B03D9002387F88F300AE0D7F8FF
:1044D00088300133C7F88830D7F88820D7F894306F
:1044E0009A42E2D397F88F30002B34D0D7F894302B
:1044F000042B30D93B6806221A707B681B78303B4E
:10450000642202FB03F17B6801331B78A3F13002C4
:1045100013469B0013445B00CA187B6802331B7868
:10452000303B1344BB677B6803331B78A3F1300235
:1045300013469B0013445B001A467B6804331B78C8
:10454000303B13447B67BA6F3B685A607A6F3B68B5
:104550009A60012371E1D7F89430082B4AD90922D7
:104560003349786800F016FA0346002B42D17B6885
:1045700009333B674FF0FF337B6507F144030022AB
:104580001A605A609A60DA6007F1440307F1540236
:104590002849386F00F0D2F90346022B14D13B684A
:1045A00007221A707B6D1A463B685A603B681033CD
:1045B00007F144013F22184600F0FEF93B68002253
:1045C00083F84F20012338E107F154031A461A49B2
:1045D000386F00F0B3F90346012B0BD13B6807227B
:1045E0001A707B6D1A463B685A603B6800221A7449
:1045F000012322E1D7F89430012B1FD17B681B786F
:104600003E2B1BD13B6808221A70012315E100BF25
:104610004CA6000850A6000858A6000860A600088E
:1046200068A6000870A6000878A6000880A6000802
:1046300088A6000894A60008A4A60008D7F894301D
:10464000052B20D906227F49786800F0A3F903469C
:10465000002B18D14FF0FF333B647B680633FB66B9
:1046600007F140031A467849F86E00F067F90346EF
:10467000012B08D13B6809221A703B6C1A463B6833
:104680005A600123D9E0D7F894300A2B20D90B22A5
:104690006E49786800F07EF90346002B18D14FF080
:1046A000FF33FB637B680B33BB6607F13C031A46A1
:1046B0006549B86E00F042F90346012B08D13B680A
:1046C0000A221A70FB6B1A463B685A600123B4E059
:1046D000D7F89430052B32D906225D49786800F06E
:1046E00059F90346002B2AD107F1340300221A603E
:1046F0005A604FF0FF333B637B6806337B6607F1FC
:10470000300307F134025349786E00F017F903467D
:10471000022B14D13B680B221A703B6B1A463B6884
:104720005A603B68103307F134013F22184600F00D
:1047300043F93B68002283F84F2001237DE0D7F83E
:104740009430052B3BD906224349786800F022F9C2
:104750000346002B33D17B6806333B6607F1200309
:1047600000221A605A609A60DA6007F1080300229A
:104770001A605A609A60DA601A615A6107F1080398
:1047800007F120023549386E00F0D8F80346022BB5
:1047900010D13B680D221A703B68103307F10801F5
:1047A0003F22184600F008F93B68002283F84F20AA
:1047B000012342E03B680D221A7001233DE00123F2
:1047C00087F887300023C7F8803016E07A68D7F87A
:1047D000803013441B781F2B0AD87A68D7F88030B2
:1047E00013441B78092B03D0002387F887300AE095
:1047F000D7F880300133C7F88030D7F88020D7F859
:1048000094309A42E2D397F88730002B14D07B681B
:104810001B782B2B10D03B680C221A703B6803F1DD
:104820001000D7F894207B68009313460C4A40216F
:1048300000F050F8012300E0002318469837BD46E9
:1048400080BD00BFA8A60008B0A60008B4A6000856
:10485000C0A60008C8A60008D8A60008E0A6000860
:10486000F8A6000870B500250C4E0D4CA41BA41032
:10487000A54209D105F054FB00250A4E0A4CA41BA1
:10488000A410A54205D170BD56F8253098470135D2
:10489000EEE756F8253098470135F2E7B4AA00084C
:1048A000B4AA0008B4AA0008B8AA000810B5431EAC
:1048B0000A44914200D110BD11F8014B03F8014F99
:1048C000F7E703460244934200D1704703F8011B07
:1048D000F9E700000CB430B5174B0C1E9DB01D68F5
:1048E00008DA8B234FF0FF302B601DB0BDE830405D
:1048F00002B070474FF40273ADF814300CBF23467A
:1049000004F1FF33049307934FF6FF730290069070
:10491000ADF81630209A21AB02A92846019300F089
:104920007BF8431CBCBF8B232B60002CDDD0002206
:10493000029B1A70D9E700BF280000200EB44FF484
:10494000017230B59CB01FAC54F8045BADF8142074
:1049500002900690FBF706FC0B4B03900B93002391
:104960000F9314934FF6FF7307900848ADF8163075
:104970002A46234602A90068019401F01DF81CB0E4
:10498000BDE8304003B0704791490008280000207E
:104990000020704710B56AB10139841810F8013B46
:1049A00011F8012F934203D1A04201D0002BF5D181
:1049B000981A10BD104610BD70B5044602B970BDFE
:1049C000234611F8015B561E03F8015B1DB9144420
:1049D000A34203D170BD1C463246EFE703F8015BEA
:1049E000F6E7F0B5037833B1034618465E1C1B7832
:1049F00033B91846F0BD0B78002B18BF0020F0BD6E
:104A00004D1E441E15F8012F002AF3D014F8017F23
:104A100033469742F6D0E8E72DE9F04FBFB089461C
:104A200015461F46824602F0C7FB036818461193DD
:104A3000FBF798FBB9F80C300A901B0618D5D9F88B
:104A40001030ABB94021504602F0CCFBC9F8000051
:104A5000C9F8100048B90C23CAF800304FF0FF33F2
:104A60000B930B983FB0BDE8F08F4023C9F814308A
:104A700000232EAC219423932293099507930D9341
:104A80000E93159314930B9312931393099D2B4636
:104A900013F8012B12B1252A40F08380099BEE1AEE
:104AA0000DD084E84800239B33442393229B013399
:104AB000072B229377DC08340B9B33440B932B7822
:104AC000002B00F025870023691C1A464FF0FF3B9E
:104AD0001D460A208DF867300C934E1C0978099604
:104AE000069106992039582900F21484DFE811F064
:104AF000A50012041204AA001204120412041204E3
:104B000012041204AD0065001204B500B8001204CE
:104B1000D500D800D800D800D800D800D800D800D8
:104B2000D800D80012041204120412041204120451
:104B300012041204120412040C01220112042201B4
:104B40001204120412041204EB00120412043C03B7
:104B500012041204120412041204A4031204120414
:104B60008500120412041204120412041204120426
:104B7000120412041204FE006B0022012201220121
:104B8000EE006B0012041204F10012041E033E0337
:104B90007203F800120483031204A6031204120421
:104BA000BE031D4673E721AA4946504604F05EFA4B
:104BB000002840F08E862EAC7EE701232B22099937
:104BC0008BE70F46FBE70BB18DF86720AE0640F18F
:104BD000A180073727F0070707F108030893D7E9F3
:104BE0000067002E77F1000305DA2D23764267EB8C
:104BF00047078DF867300123C7E20BB18DF86720B6
:104C0000A04B1593AB0640F13683073727F0070713
:104C100007F108030893D7E90067E8070BD556EAC0
:104C2000070308D030238DF868309DF8183045F020
:104C300002058DF869300223A4E2002ABFD10123C6
:104C40002022BCE745F00105B9E73E68391D002E7A
:104C50000C96B6DA0F4676420C9645F00405AEE7A0
:104C600009994E1C09782A29069110D04FF0000BA3
:104C700009960699303909293FF633AF00FB0B1B23
:104C800009990E4616F8011B06910996F1E7396855
:104C9000099641EAE17B043791E745F080058EE70C
:104CA00000210C9106990C9E303900FB06110C91E5
:104CB00009990E4616F8011B069106990996303996
:104CC0000929EFD90DE745F0080578E745F04005DB
:104CD00075E7099909786C2905D10999013109917C
:104CE00045F020056BE745F0100568E700263B1D01
:104CF00008933B688DF867608DF890304FF0010B9A
:104D000037460DF190081CE10BB18DF8672045F096
:104D100010055BE715F0100F07F1040303D03E68A0
:104D20000893F7175DE73E6815F0400F089318BF2A
:104D300036B2F6E70BB18DF86720073727F0070783
:104D400007F1080308933B684FF0FF320D937B682F
:104D50000D9F0E930E9B384623F0004631464A4B7A
:104D6000FBF75AFE002840F0DC854FF0FF32464B3F
:104D700038463146FBF732FE002840F0D285129AC1
:104D8000139B0D980E99FBF71FFE10B12D238DF884
:104D900067303E4B3E4A06994FF0030B4729CCBF84
:104DA00090469846002625F080053746C9E0BBF1BD
:104DB000FF3F26D0069B23F02003472B04D1BBF1F5
:104DC000000F08BF4FF0010B45F4807317930E9B43
:104DD0001F1E0D9BA8BF10970F93BDBF3B4603F14D
:104DE000004310930023B8BF2D231693069B23F096
:104DF0002007462F08D0452F42D10BF10106022390
:104E000004E04FF0060BDFE75E4603231FAA04927F
:104E10001CAA03921BAA02928DE848000F9A109BCD
:104E2000504601F0C5FB472F804602D1E80740F10C
:104E3000858508EB0603462F079311D198F80030BB
:104E4000302B09D1129A139B0F981099FBF7B2FDE2
:104E500010B9C6F101061B96079A1B9B1A440792CC
:104E6000129A139B0F981099FBF7A4FD90B930226A
:104E70001F9B079999420FD9591C1F911A70F7E788
:104E80005E46BCE770A70008FFFFEF7F60A7000841
:104E900064A70008079B1F931F9B472FA3EB0803E2
:104EA000079340F000811B9BD91C02DB9B4580F2DD
:104EB0002681069B023B06931B9A9DF81810531EF1
:104EC000002BA8BF2B221B93BCBFC2F101032D22D4
:104ED000092B8DF874108DF8752040F300810A2697
:104EE0000DF1830293FBF6F006FB1033092803F162
:104EF000300302F8013C02F1FF31034600F3E88081
:104F0000303301F8013C023A0DF176030DF18300D4
:104F100082421946C0F0DE80079A1DABCB1A012AE7
:104F2000149303EB020B02DC15F0010702D00027FB
:104F30000A9B9B44169B13B12D238DF867300026E6
:104F4000179D5E453346B8BF5B460F939DF86730AB
:104F500013B10F9B01330F9315F0020316931EBF7D
:104F60000F9B02330F9315F08403179318D10C9BFA
:104F70000F9A9B1A002B109312DD109B102BAB4B3A
:104F8000236000F3D981109B109A6360239B134424
:104F90002393229B0133072B229300F3E6810834ED
:104FA0009DF8673073B10DF16703236001236360DF
:104FB000239B01332393229B0133072B229300F37E
:104FC000DE810834169B6BB11AAB23600223636049
:104FD000239B02332393229B0133072B229300F35D
:104FE000D8810834179B802B18D10C9B0F9A9B1AE1
:104FF000002B109312DD109B102B8D4B236000F3C0
:10500000D281109B109A6360239B13442393229BAD
:105010000133072B229300F3DF810834A6EB0B0644
:10502000002E0FDD824B102E236000F3DF81229BC8
:10503000239801336660072B06442396229300F3DE
:10504000EC810834EB0500F1F281239B84E8000930
:105050005B442393229B0133072B229340F3198453
:1050600021AA4946504604F001F8002840F0318456
:105070002EAC6B0700F110840B9B0C9A0F998A429F
:10508000ACBF9B185B180B93239B3BB121AA4946ED
:10509000504603F0EBFF002840F01B840023089FDC
:1050A00022932EACF2E4069B652B7FF705AF069B9F
:1050B000662B24D11B9B002B19DDBBF1000F01D106
:1050C000EA0702D50A9A13445B441B9F9B4631E7CB
:1050D0000A4607E712F8011B03F8011B18E7302204
:1050E00013448DF876208DF877301EA914E7BBF1B4
:1050F000000F01D1EB0715D50A9B0133E4E71B9A9A
:10510000079B9A4206DBEF070ED50A9B13446722E2
:105110000692DAE7079B0A99002A0B44F7DCC2F1F2
:105120000102F3E70123D0E71346F0E70BB18DF856
:10513000672015F0200F07F1040308D00B993A6897
:10514000CE1708463146C2E900011F469EE4EE062E
:1051500003D53A680B991160F7E76806F9D53A6804
:10516000BDF82C101180F0E745F0100515F0200374
:1051700022D0073727F0070707F108030893D7E97C
:105180000067002300228DF86720BBF1FF3F00F08D
:10519000DB8325F080020F9256EA070240F0D983A4
:1051A000BBF1000F00F0AA80012B76D0022B00F09B
:1051B000918000260027D2E33A1D15F010010892D5
:1051C00002D03E680027DDE715F04003F9D03E88A5
:1051D0000027D6E73B1D0893302378228DF86830EE
:1051E000144B3E681593002745F002058DF86920A1
:1051F00002230692C6E700263B1DBBF1FF3F089342
:10520000D7F800808DF867600AD05A46314640468C
:1052100002F032FA002800F08D80A0EB080BC4E504
:105220004046FAF79FFF8346BFE500BF94A70008FA
:10523000A4A7000881A7000845F01005A90609D514
:10524000073727F0070707F108030893D7E9006736
:10525000012397E73B1D15F0100F089301D03E681E
:1052600002E06A06FBD53E880027F1E70BB18DF816
:105270006720A34BC5E43B1D15F0100F089301D028
:105280003E6802E06E06FBD53E880027C5E4434633
:1052900066E3002F08BF0A2E05D230360DF1F8085C
:1052A00008F8416D77E30DF1B808304639460A2217
:1052B0000023FBF75FFC303208F8012D0023304655
:1052C00039460A22FBF756FC06460F4656EA070304
:1052D000EBD160E3002600270DF1B808159A06F01F
:1052E0000F03D35C3A0908F8013D330943EA077319
:1052F0001E46174656EA0703F0D14CE33BB9EA07CE
:1053000005D530230DF1F80808F8413D43E30DF1D0
:10531000B80840E30BB18DF86720069B002B00F026
:10532000F78200269DF818308DF867608DF8903070
:105330000897E3E4064638E510236360239B1033A7
:105340002393229B0133072B229304DC0834109B08
:10535000103B109311E621AA4946504603F086FE01
:10536000002840F0B6822EACF1E721AA494650460B
:1053700003F07CFE002840F0AC822EAC10E621AA9F
:105380004946504603F072FE002840F0A2822EAC3F
:1053900018E621AA4946504603F068FE002840F06E
:1053A00098822EAC1EE610236360239B1033239358
:1053B000229B0133072B229304DC0834109B103B03
:1053C000109318E621AA4946504603F04FFE0028E4
:1053D00040F07F822EACF1E721AA4946504603F007
:1053E00045FE002840F075822EAC17E6102363605E
:1053F000239B10332393229B0133072B229302DC40
:105400000834103E0EE621AA4946504603F02EFE0F
:10541000002840F05E822EACF3E721AA49465046B0
:1054200003F024FE002840F054822EAC0AE6069BCE
:10543000652B40F3A981129A139B0D980E99FBF7E7
:10544000B9FA002862D02F4B236001236360239BAD
:1054500001332393229B0133072B229325DC08344D
:105460001B9B079A934202DBEE077FF502AE119B6E
:105470000A9A23600A9B6360239B13442393229B15
:105480000133072B22931ADC0834079B5E1E002E83
:105490007FF7EFAD4FF010081B4F102E276018DC80
:1054A0006660239B1E442396D4E521AA49465046B4
:1054B00003F0DCFD002840F00C822EACD0E721AADE
:1054C0004946504603F0D2FD002840F002822EAC3F
:1054D000DBE7239BC4F8048010332393229B013322
:1054E000072B229302DC0834103ED6E721AA494656
:1054F000504603F0BBFD002840F0EB812EACF3E7F3
:1055000081A7000892A70008A4A700081B9B002BF6
:105510007ADC9B4B236001236360239B013323933D
:10552000229B0133072B229344DC08341B9B23B9B5
:10553000079B13B9E8077FF59CAD119B0A9A23607E
:105540000A9B6360239B13442393229B0133072B05
:10555000229339DC04F108031B9E002E19DA102473
:10556000884F7642102E1F6038DC239A5E60164406
:10557000229A23960132072A03F10803229208DDBA
:1055800021AA4946504603F071FD002840F0A18150
:105590002EAB079A07995A60239AC3F800800A44F1
:1055A0002392229A0132072A22923FF759AD03F142
:1055B00008045EE521AA4946504603F057FD00283D
:1055C00040F087812EACB1E721AA4946504603F04E
:1055D0004DFD002840F07D812EABBDE7239A5C6035
:1055E00010322392229A0132072A229202DC0833D7
:1055F000103EB7E721AA4946504603F037FD002880
:1056000040F067812EABF3E7079BBB42A8BF3B4648
:10561000002B1E460BDD6360239BC4F800803344DF
:105620002393229B0133072B22935FDC0834002E47
:10563000B4BF3E46BE1B002E0FDDDFF848B1102E72
:10564000C4F800B05CDC239B66601E44229B23965A
:105650000133072B22936ADC08341B9B079A934281
:1056600001DBE9070DD5119B0A9A23600A9B636051
:10567000239B13442393229B0133072B229360DC4B
:105680000834079B079ADE1B1B9BD31A9E42A8BFB8
:105690001E46002E0BDD239B474433442393229B5D
:1056A00027600133072B6660229354DC08341B9B70
:1056B000079A002EA2EB0303B4BF1E469E1B002ECA
:1056C0007FF7D7AC4FF010082E4F102E27607FF7D2
:1056D000E7AE239BC4F8048010332393229B01334D
:1056E000072B229341DC0834103EEEE721AA4946FD
:1056F000504603F0BBFC002840F0EB802EAC96E750
:1057000010236360239B10332393229B0133072BC9
:10571000229302DC0834103E91E721AA4946504604
:1057200003F0A4FC002840F0D4802EACF3E721AABB
:105730004946504603F09AFC002840F0CA802EAC3F
:105740008BE721AA4946504603F090FC002840F020
:10575000C0802EAC95E721AA4946504603F086FC4E
:10576000002840F0B6802EACA1E721AA4946504659
:1057700003F07CFC002840F0AC802EACB4E700BF06
:1057800092A70008A4A70008079B012B01DCEA07E9
:1057900076D501236360239BC4F8008001332393F3
:1057A000229B0133072B229336DC0834119B0A9A83
:1057B00023600A9B6360239B13442393229B013342
:1057C000072B229331DC0834139B129A0D980E9903
:1057D000FBF7F0F8079B5E1E00282FD108F10103AC
:1057E00084E84800239B079A013B13442393229BA0
:1057F0000133072B22934ADD21AA4946504603F084
:1058000035FC002865D12EAC1DAB2360149B149A87
:105810006360239B13441CE421AA4946504603F0CD
:1058200025FC002855D12EACC0E721AA4946504698
:1058300003F01CFC00284CD12EACC5E7002EE3DDA4
:105840004FF01008584F102E276004DC239B666031
:105850001E442396CBE7239BC4F804801033239384
:10586000229B0133072B229302DC0834103EEAE727
:1058700021AA4946504603F0F9FB50BB2EACF5E790
:1058800001236360239BC4F800800133AEE7083432
:10589000BAE70834FFF7EDBB0C9B0F9A9D1A002D59
:1058A0007FF7EAAB1026414B102D23601BDC239BB6
:1058B00065601D44229B23950133072B22937FF7BC
:1058C000DBAB21AA4946504603F0D0FB00283FF449
:1058D000D3ABB9F80C3013F0400F0B9B18BF4FF04F
:1058E000FF33FFF7BDB8239B666010332393229BE1
:1058F0000133072B229302DC0834103DD3E721AAA1
:105900004946504603F0B2FB0028E2D12EACF4E742
:10591000239B002BDDD021AA4946504603F0A6FB6D
:10592000D7E70D9A0E9B0D980E99FBF775F8002896
:105930003FF43DAA1E4B1F4AFFF72DBA1F9BA3EB56
:1059400008030793FFF7AFBA56EA07020F953FF433
:105950002BAC012B3FF49DAC022B3FF4BDAC2EAB26
:10596000F10841EA4771F80806F0070207460E46BB
:10597000303256EA070103F1FF3803F8012C7FF4B7
:1059800086AC0F99C90706D5302A04D0302208F812
:10599000012CA3F102082EAB5E460F9DA3EB080B72
:1059A0000027FFF7CEBA00BFA4A7000894A70008FD
:1059B00068A700086CA700082DE9F04F1F46B1F951
:1059C0000C300D469904ADF52B7D804606D443F48A
:1059D0000053AB816B6E23F400536B6600239B4630
:1059E0000692059303930493069A12F8013B0692DC
:1059F0000F93002B00F0C88001F0CEFB0F9B1844E2
:105A000090F8019019F0080919D06B68002B0FDD90
:105A100001F0C2FB2B681A78104442781207E3D5D4
:105A20006A680133013A0BF1010B6A602B60ECE705
:105A30002946404603F0D1FB0028E9D0D4E7252BC6
:105A400040F098804C464E460A22069B069993F8F1
:105A500000A00131BAF1630F069100F0DB8056D847
:105A6000BAF1440F14D01ED8BAF12A0F00F0AC805E
:105A700011D8BAF1000F00F00785BAF1250F79D0DF
:105A800001F08AFB5044437803F00303012B48D113
:105A900044F0010445E0AAF13003092BF0D802FBE1
:105AA00006A6303E92E0BAF14C0F00F0968022D864
:105AB000BAF1450F02D0BAF1470FE1D14FF0040A15
:105AC0006B68002B40F3C780630608D401F064FBC9
:105AD0002B681A7810444278100700F1C4800AF14C
