:020000040800F2
:1000000000500020E5190008371A0008431A0008BC
:10001000491A00084F1A0008551A0008000000008D
:100020000000000000000000000000005B1A000853
:10003000671A000800000000731A00087F1A000801
:10004000351A0008351A0008351A0008351A000854
:10005000351A0008351A0008351A0008351A000844
:10006000351A0008351A0008351A0008351A000834
:10007000351A0008351A0008351A0008351A000824
:10008000351A0008351A0008351A0008351A000814
:10009000351A0008351A0008351A0008351A000804
:1000A000351A0008351A0008351A0008351A0008F4
:1000B000351A0008351A0008351A0008351A0008E4
:1000C000351A0008351A0008351A0008351A0008D4
:1000D000351A00088D1A0008C11A0008351A0008E0
:1000E000351A0008351A0008351A0008000000000B
:1000F0000000000000000000000000000000000000
:0C01000000000000000000005FF808F1A3
:1001100010B5054C237833B9044B13B10448AFF341
:1001200000800123237010BD98060020000000000D
:10013000D4DB000808B5034B1BB103490348AFF3F8
:10014000008008BD000000009C060020D4DB0008F1
:1001500010F8012B11F8013B012A28BF9A42F7D071
:10016000D01A7047034613F8012B002AFBD1181A46
:100170000138704781F0004102E000BF83F0004386
:1001800030B54FEA41044FEA430594EA050F08BF32
:1001900090EA020F1FBF54EA000C55EA020C7FEAF6
:1001A000645C7FEA655C00F0E2804FEA5454D4EB73
:1001B0005555B8BF6D420CDD2C4480EA020281EA3D
:1001C000030382EA000083EA010180EA020281EA75
:1001D0000303362D88BF30BD11F0004F4FEA0131C7
:1001E0004FF4801C4CEA113102D0404261EB4101D6
:1001F00013F0004F4FEA03334CEA133302D052425C
:1002000063EB430394EA050F00F0A780A4F1010417
:10021000D5F1200E0DDB02FA0EFC22FA05F2801851
:1002200041F1000103FA0EF2801843FA05F3594137
:100230000EE0A5F120050EF1200E012A03FA0EFCB6
:1002400028BF4CF0020C43FA05F3C01851EBE371E0
:1002500001F0004507D54FF0000EDCF1000C7EEBFD
:1002600000006EEB0101B1F5801F1BD3B1F5001F3B
:100270000CD349085FEA30004FEA3C0C04F101045A
:100280004FEA445212F5800F80F09A80BCF1004F83
:1002900008BF5FEA500C50F1000041EB045141EA05
:1002A000050130BD5FEA4C0C404141EB010111F406
:1002B000801FA4F10104E9D191F0000F04BF0146B1
:1002C0000020B1FA81F308BF2033A3F10B03B3F18F
:1002D00020020CDA0C3208DD02F1140CC2F10C021F
:1002E00001FA0CF021FA02F10CE002F11402D8BF7D
:1002F000C2F1200C01FA02F120FA0CFCDCBF41EA49
:100300000C019040E41AA2BF01EB0451294330BD17
:100310006FEA04041F3C1CDA0C340EDC04F11404F4
:10032000C4F1200220FA04F001FA02F340EA0300CB
:1003300021FA04F345EA030130BDC4F10C04C4F111
:10034000200220FA02F001FA04F340EA03002946F1
:1003500030BD21FA04F0294630BD94F0000F83F43B
:10036000801306BF81F480110134013D4EE77FEA1E
:10037000645C18BF7FEA655C29D094EA050F08BF6A
:1003800090EA020F05D054EA000C04BF194610464B
:1003900030BD91EA030F1EBF0021002030BD5FEA8F
:1003A000545C05D14000494128BF41F0004130BDB7
:1003B00014F580043CBF01F5801130BD01F000450B
:1003C00045F0FE4141F470014FF0000030BD7FEA7E
:1003D000645C1ABF194610467FEA655C1CBF0B4679
:1003E000024650EA013406BF52EA033591EA030F90
:1003F00041F4002130BD00BF90F0000F04BF002188
:10040000704730B54FF4806404F132044FF00005BA
:100410004FF0000150E700BF90F0000F04BF002133
:10042000704730B54FF4806404F1320410F0004599
:1004300048BF40424FF000013EE700BF42004FEA94
:10044000E2014FEA31014FEA02701FBF12F07F4311
:1004500093F07F4F81F06051704792F0000F14BF0E
:1004600093F07F4F704730B54FF4607401F0004552
:1004700021F0004120E700BF50EA010208BF7047A9
:1004800030B54FF000050AE050EA010208BF70479E
:1004900030B511F0004502D5404261EB41014FF407
:1004A000806404F132045FEA915C3FF4DCAE4FF00B
:1004B00003025FEADC0C18BF03325FEADC0C18BFF2
:1004C000033202EBDC02C2F1200300FA03FC20FA43
:1004D00002F001FA03FE40EA0E0021FA02F1144490
:1004E000C1E600BF70B54FF0FF0C4CF4E06C1CEAA5
:1004F00011541DBF1CEA135594EA0C0F95EA0C0F1A
:1005000000F0DEF82C4481EA030621EA4C5123EA8C
:100510004C5350EA013518BF52EA033541F48011BB
:1005200043F4801338D0A0FB02CE4FF00005E1FB6E
:1005300002E506F00042E0FB03E54FF00006E1FBB8
:1005400003569CF0000F18BF4EF0010EA4F1FF04FB
:10055000B6F5007F64F5407404D25FEA4E0E6D413B
:1005600046EB060642EAC62141EA55514FEAC5204C
:1005700040EA5E504FEACE2EB4F1FD0C88BFBCF5C8
:10058000E06F1ED8BEF1004F08BF5FEA500E50F179
:10059000000041EB045170BD06F0004646EA01013F
:1005A00040EA020081EA0301B4EB5C04C2BFD4EB71
:1005B0000C0541EA045170BD41F480114FF0000E6A
:1005C000013C00F3AB8014F1360FDEBF002001F0D8
:1005D000004170BDC4F10004203C35DA0C341BDC52
:1005E00004F11404C4F1200500FA05F320FA04F024
:1005F00001FA05F240EA020001F0004221F0004158
:1006000010EBD37021FA04F642EB06015EEA430ECA
:1006100008BF20EAD37070BDC4F10C04C4F12005FA
:1006200000FA04F320FA05F001FA04F240EA0200AD
:1006300001F0004110EBD37041F100015EEA430E7E
:1006400008BF20EAD37070BDC4F1200500FA05F29E
:100650004EEA020E20FA04F301FA05F243EA02031D
:1006600021FA04F001F0004121FA04F220EA02002C
:1006700000EBD3705EEA430E08BF20EAD37070BD72
:1006800094F0000F0FD101F00046400041EB010152
:1006900011F4801F08BF013CF7D041EA060195F034
:1006A000000F18BF704703F00046520043EB0303EE
:1006B00013F4801F08BF013DF7D043EA06037047DB
:1006C00094EA0C0F0CEA135518BF95EA0C0F0CD0E6
:1006D00050EA410618BF52EA4306D1D181EA03012C
:1006E00001F000414FF0000070BD50EA410606BF26
:1006F0001046194652EA430619D094EA0C0F02D16B
:1007000050EA013613D195EA0C0F05D152EA0336AF
:100710001CBF104619460AD181EA030101F00041CD
:1007200041F0FE4141F470014FF0000070BD41F016
:10073000FE4141F4780170BD70B54FF0FF0C4CF4F0
:10074000E06C1CEA11541DBF1CEA135594EA0C0F0F
:1007500095EA0C0F00F0A7F8A4EB050481EA030E5C
:1007600052EA03354FEA013100F088804FEA033343
:100770004FF0805545EA131343EA12634FEA022211
:1007800045EA111545EA10654FEA00260EF00041D2
:100790009D4208BF964244F1FD0404F5407402D224
:1007A0005B084FEA3202B61A65EB03055B084FEAB5
:1007B00032024FF480104FF4002CB6EB020E75EBB2
:1007C000030E22BFB61A754640EA0C005B084FEADA
:1007D0003202B6EB020E75EB030E22BFB61A754657
:1007E00040EA5C005B084FEA3202B6EB020E75EBA2
:1007F000030E22BFB61A754640EA9C005B084FEA1A
:100800003202B6EB020E75EB030E22BFB61A754626
:1008100040EADC0055EA060E18D04FEA051545EA15
:1008200016754FEA06164FEAC30343EA52734FEABE
:10083000C2025FEA1C1CC0D111F4801F0BD141EA37
:1008400000014FF000004FF0004CB6E711F4801F9C
:1008500004BF01430020B4F1FD0C88BFBCF5E06F7C
:100860003FF6AFAEB5EB030C04BFB6EB020C5FEA8C
:10087000500C50F1000041EB045170BD0EF0004EE1
:100880004EEA113114EB5C04C2BFD4EB0C0541EA13
:10089000045170BD41F480114FF0000E013C90E610
:1008A00045EA060E8DE60CEA135594EA0C0F08BFD4
:1008B00095EA0C0F3FF43BAF94EA0C0F0AD150EAD3
:1008C00001347FF434AF95EA0C0F7FF425AF104666
:1008D00019462CE795EA0C0F06D152EA03353FF48E
:1008E000FDAE1046194622E750EA410618BF52EA0B
:1008F00043067FF4C5AE50EA41047FF40DAF52EADF
:1009000043057FF4EBAE12E74FF0FF3C06E000BF7B
:100910004FF0010C02E000BF4FF0010C4DF804CD88
:100920004FEA410C7FEA6C5C4FEA430C18BF7FEA48
:100930006C5C1BD001B050EA410C0CBF52EA430C76
:1009400091EA030F02BF90EA020F0020704710F1F6
:10095000000F91EA030F58BF994208BF90422CBF85
:10096000D8176FEAE37040F0010070474FEA410C7E
:100970007FEA6C5C02D150EA013C07D14FEA430C9C
:100980007FEA6C5CD6D152EA033CD3D05DF8040B0D
:10099000704700BF8446104662468C46194663463F
:1009A00000E000BF01B5FFF7B7FF002848BF10F116
:1009B000000F01BD4DF808EDFFF7F4FF0CBF01205B
:1009C00000205DF808FB00BF4DF808EDFFF7EAFFD7
:1009D00034BF012000205DF808FB00BF4DF808ED92
:1009E000FFF7E0FF94BF012000205DF808FB00BF87
:1009F0004DF808EDFFF7CEFF94BF012000205DF811
:100A000008FB00BF4DF808EDFFF7C4FF34BF01201D
:100A100000205DF808FB00BF4FEA410C7FEA6C5CE8
:100A200002D150EA013C0AD14FEA430C7FEA6C5CE8
:100A300002D152EA033C02D14FF0000070474FF060
:100A4000010070474FEA410212F5001215D211D58C
:100A50006FF47873B3EB625212D94FEAC12343F0BB
:100A6000004343EA505311F0004F23FA02F018BF3D
:100A7000404270474FF00000704750EA013005D106
:100A800011F0004008BF6FF0004070474FF00000C9
:100A9000704700BF4A0011D212F5001211D20DD5D5
:100AA0006FF47873B3EB62520ED44FEAC12343F074
:100AB000004343EA505323FA02F070474FF000001E
:100AC000704750EA013002D14FF0FF3070474FF0CD
:100AD000000070474FEA4102B2F1E04324BFB3F592
:100AE000001CDCF1FE5C0DD901F0004C4FEAC002A5
:100AF0004CEA5070B2F1004F40EB830008BF20F089
:100B00000100704711F0804F21D113F13872BCBF42
:100B100001F00040704741F480114FEA5252C2F197
:100B20001802C2F1200C10FA0CF320FA02F018BFE0
:100B300040F001004FEAC1234FEAD32303FA0CFC33
:100B400040EA0C0023FA02F34FEA4303CCE77FEAC2
:100B5000625307D150EA01331EBF4FF0FE4040F40C
:100B60004000704701F0004040F0FE4040F40000BB
:100B7000704700BF53B94AB9002908BF00281CBFFD
:100B80004FF0FF314FF0FF3000F07AB9ADF1080CB3
:100B90006DE904CE00F006F8DDF804E0DDE902239B
:100BA00004B070472DE9F0478C460E460446089D78
:100BB000002B50D18A4217466CD9B2FA82FEBEF1A0
:100BC000000F0BD0CEF1200C01FA0EF620FA0CFC2F
:100BD00002FA0EF74CEA060C00FA0EF43A0CBCFBD3
:100BE000F2F9BBB202FB19CC09FB03FA4FEA144835
:100BF00048EA0C46B2450AD9F61909F1FF3180F0EE
:100C00002581B24540F22281A9F102093E44A6EBBA
:100C10000A06B6FBF2F002FB106600FB03F3A4B277
:100C200044EA0644A34209D9E41900F1FF3280F0F6
:100C30000B81A34240F2088102383C440021E41AAF
:100C400040EA0940002D62D0002324FA0EF42C6003
:100C50006B60BDE8F0878B4207D9002D55D000218D
:100C600085E841000846BDE8F087B3FA83F1002922
:100C700040F08F80B34202D3824200F2FC80841A9B
:100C800066EB03060120B446002D40D085E8101025
:100C9000BDE8F08712B90127B7FBF2F7B7FA87FE74
:100CA000BEF1000F35D10121F61B4FEA174C1FFA98
:100CB00087F8B6FBFCF20CFB126608FB02F0230C73
:100CC00043EA0646B04207D9F61902F1FF3302D2D1
:100CD000B04200F2D2801A46361AB6FBFCF00CFB8A
:100CE000106608FB00F8A3B243EA0644A04507D902
:100CF000E41900F1FF3302D2A04500F2B980184692
:100D0000A4EB080440EA02409CE729462846BDE8D7
:100D1000F08707FA0EF7CEF1200326FA03F24FEA26
:100D2000174CB2FBFCF11FFA87F80CFB112206FAF4
:100D30000EF620FA03F301FB08F933431E0C46EAD2
:100D40000246B14500FA0EF409D9F61901F1FF3255
:100D500080F08C80B14540F2898002393E44A6EB98
:100D60000906B6FBFCF00CFB106200FB08F99EB212
:100D700046EA0246B14507D9F61900F1FF3371D2B0
:100D8000B1456FD902383E44A6EB090640EA01415D
:100D90008FE7C1F1200722FA07F88B4048EA0303E6
:100DA00026FA07F44FEA134EB4FBFEF91FFA83FC50
:100DB0000EFB19448E4020FA07F809FB0CFA48EAAA
:100DC00006084FEA184646EA0444A24502FA01F230
:100DD00000FA01F608D9E41809F1FF3044D2A2451F
:100DE00042D9A9F102091C44A4EB0A04B4FBFEF0A9
:100DF0000EFB104400FB0CFC1FFA88F848EA044480
:100E0000A44507D9E41800F1FF3E29D2A44527D90B
:100E100002381C4440EA0940A0FB0289A4EB0C0CF8
:100E2000CC45C246CE4615D312D055B1B6EB0A0317
:100E30006CEB0E0606FA07F7CB401F43CE402F603F
:100E40006E600021BDE8F0871046F7E68946DEE6D1
:100E50004645EAD2B8EB020A69EB030E0138E4E733
:100E60007046D7E718468FE78146BDE7114676E71B
:100E700002383C4444E7084606E7023A3E442BE782
:100E8000704700BF80B483B000AF78607B68042BEC
:100E900006D1094A084B1B6843F00403136005E0C0
:100EA000054A054B1B6823F00403136000BF0C3791
:100EB000BD4680BC704700BF10E000E080B485B044
:100EC00000AF78600023FB60094B1B68FB60FB6888
:100ED00003F03803FB60FA687B681343FB60044A45
:100EE000FB68136000BF1437BD4680BC704700BF6D
:100EF0000020024080B483B000AF7860084A084BFD
:100F00001B6823F0100313600549054B1A687B68C2
:100F100013430B6000BF0C37BD4680BC704700BF59
:100F20000020024080B489B000AF786039600023AF
:100F3000FB6100233B610023BB610023FB600023B6
:100F40007B610023BB603B68DB7803F00F03FB6130
:100F50003B68DB7803F01003002B05D03B689B78DF
:100F60001A46FB691343FB613B681B88DBB2002B0D
:100F700044D07B681B687B610023BB6138E00122A1
:100F8000BB6902FA03F3FB603B681B881A46FB68E7
:100F900013403B613A69FB689A4226D1BB699B00CA
:100FA000FB600F22FB6802FA03F3BB60BB68DB4304
:100FB0007A6913407B61FA69FB6802FA03F37A6984
:100FC00013437B613B68DB78282B05D10122BB6989
:100FD0009A407B685A6108E03B68DB78482B04D173
:100FE0000122BB699A407B681A61BB690133BB610E
:100FF000BB69072BC3D97B687A691A603B681B8879
:10100000FF2B46D97B685B687B610023BB613AE0BC
:10101000BB690833012202FA03F3FB603B681B88BB
:101020001A46FB6813403B613A69FB689A4227D134
:10103000BB699B00FB600F22FB6802FA03F3BB60F5
:10104000BB68DB437A6913407B61FA69FB6802FA8B
:1010500003F37A6913437B613B68DB78282B05D166
:10106000BB69083301229A407B685A613B68DB7890
:10107000482B05D1BB69083301229A407B681A616D
:10108000BB690133BB61BB69072BC1D97B687A6936
:101090005A6000BF2437BD4680BC704780B483B01F
:1010A00000AF78600B467B807A887B681A6100BF4E
:1010B0000C37BD4680BC704780B483B000AF786009
:1010C0000B467B807A887B685A6100BF0C37BD462F
:1010D00080BC704780B483B000AF7860134A134B74
:1010E0001B6823F480331360104A104B1B6823F4F1
:1010F000802313607B68B3F5803F03D0B3F5802F66
:1011000007D00DE0094A094B1B6843F48033136094
:1011100006E0064A054B1B6843F4A023136000BF9A
:1011200000BF0C37BD4680BC704700BF00100240B6
:1011300080B582B000AF00233B600023FB71002329
:10114000BB71312000F0B4F90346BB713B68013339
:101150003B603B68B3F5A06F02D0BB79002BF0D0A9
:10116000312000F0A5F90346002B02D00123FB71CA
:1011700001E00023FB71FB7918460837BD4680BDAE
:1011800080B485B000AF786039600023FB600A4B03
:101190005B68FB60FB6823F47C13FB607A683B6848
:1011A0001343FA681343FB60034AFB68536000BFB4
:1011B0001437BD4680BC70470010024080B483B035
:1011C00000AF0346FB71044AFB79136000BF0C3784
:1011D000BD4680BC704700BF6000424280B485B00D
:1011E00000AF78600023FB60094B5B68FB60FB6825
:1011F00023F00303FB60FA687B681343FB60044A37
:10120000FB68536000BF1437BD4680BC704700BF09
:101210000010024080B400AF044B5B68DBB203F007
:101220000C03DBB21846BD4680BC7047001002407C
:1012300080B485B000AF78600023FB60094B5B6829
:10124000FB60FB6823F0F003FB60FA687B681343E4
:10125000FB60044AFB68536000BF1437BD4680BC86
:10126000704700BF0010024080B485B000AF7860C6
:101270000023FB60094B5B68FB60FB6823F4E063C1
:10128000FB60FA687B681343FB60044AFB685360A9
:1012900000BF1437BD4680BC704700BF001002403D
:1012A00080B485B000AF78600023FB60094B5B68B9
:1012B000FB60FB6823F46053FB607B68DB00FA682B
:1012C0001343FB60034AFB68536000BF1437BD46FD
:1012D00080BC70470010024080B487B000AF7860D7
:1012E00000237B6100233B610023FB600023BB6084
:1012F0004C4B5B6803F00C037B617B69042B07D0CC
:10130000082B09D0002B33D17B68474A1A6033E0A1
:101310007B68454A1A602FE0424B5B6803F4701308
:101320003B61404B5B6803F48033FB603B699B0C83
:1013300002333B61FB68002B06D13B693B4A02FB51
:1013400003F27B681A6017E0364B5B6803F40033E6
:10135000002B06D03B69354A02FB03F27B681A601A
:101360000AE03B69304A02FB03F27B681A6003E043
:101370007B682D4A1A6000BF2A4B5B6803F0F003BC
:101380007B617B691B097B61294A7B6913441B785C
:10139000DBB2BB607B681A68BB68DA407B685A6066
:1013A000204B5B6803F4E0637B617B691B0A7B6114
:1013B0001F4A7B6913441B78DBB2BB607B685A68A9
:1013C000BB68DA407B689A60164B5B6803F4605335
:1013D0007B617B69DB0A7B61154A7B6913441B785F
:1013E000DBB2BB607B685A68BB68DA407B68DA6056
:1013F0000C4B5B6803F440437B617B699B0B7B6117
:101400000C4A7B6913441B78DBB2BB607B68DA68EB
:10141000BB68B2FBF3F27B681A6100BF1C37BD46A4
:1014200080BC70470010024000127A0000093D00A5
:10143000000000201000002080B483B000AF78606E
:101440000B46FB70FB78002B06D00949084B9A69C4
:101450007B6813438B6106E00549054B9A697B68FD
:10146000DB4313408B6100BF0C37BD4680BC704727
:101470000010024080B483B000AF78600B46FB7070
:10148000FB78002B06D00949084BDA697B681343C7
:10149000CB6106E00549054BDA697B68DB43134005
:1014A000CB6100BF0C37BD4680BC704700100240C6
:1014B00080B487B000AF0346FB710023FB600023BC
:1014C0007B610023FB74FB795B09DBB2FB60FB688B
:1014D000012B03D1124B1B687B6109E0FB68022BD7
:1014E00003D10F4B1B6A7B6102E00D4B5B6A7B6192
:1014F000FB7903F01F03FB607A69FB6822FA03F3B0
:1015000003F00103002B02D00123FB7401E0002350
:10151000FB74FB7C18461C37BD4680BC704700BF7F
:101520000010024080B485B000AF786039600023BD
:10153000FB817B681B88FB81FB8903F44153FB81A2
:101540003B681A883B685B8813439AB23B689B8868
:1015500013439AB23B68DB8813439AB23B681B89FA
:1015600013439AB23B685B8913439AB23B689B89E9
:1015700013439AB23B68DB8913439AB2FB89134346
:10158000FB817B68FA891A807B689B8B9BB223F472
:1015900000639AB27B689A833B681A8A7B681A82D6
:1015A00000BF1437BD4680BC704780B483B000AF25
:1015B00078600B46FB70FB78002B08D07B681B889B
:1015C0009BB243F040039AB27B681A8007E07B68C5
:1015D0001B889BB223F040039AB27B681A8000BF3D
:1015E0000C37BD4680BC704780B483B000AF7860D4
:1015F0000B467B807B687A889A8100BF0C37BD469A
:1016000080BC704780B483B000AF78607B689B89F2
:101610009BB218460C37BD4680BC704780B485B07D
:1016200000AF78600B467B800023FB737B681B89CF
:101630009AB27B8813409BB2002B02D00123FB732C
:1016400001E00023FB73FB7B18461437BD4680BCCA
:101650007047000080B58CB000AF7860396000231F
:10166000FB620023BB6200237B6200233B620023FA
:10167000FB617B68FB617B681B8A9BB2FB62FA6A39
:101680004CF6FF731340FB623B68DB881A46FB6A2B
:101690001343FB62FB6A9AB27B681A827B689B8960
:1016A0009BB2FB62FA6A4EF6F3131340FB623B688F
:1016B0009A883B681B8913439AB23B685B89134342
:1016C0009BB21A46FB6A1343FB62FB6A9AB27B68C1
:1016D0009A817B689B8A9BB2FB62FA6A4FF6FF4352
:1016E0001340FB623B689B891A46FB6A1343FB620B
:1016F000FB6A9AB27B689A8207F108031846FFF7E3
:10170000EBFDFB692E4A934202D17B69BB6201E08B
:101710003B69BB627B689B899BB21BB2002B0CDAD6
:10172000BA6A13469B0013449A001A443B681B682C
:101730005B00B2FBF3F37B620BE0BA6A13469B00DB
:1017400013449A001A443B681B689B00B2FBF3F3F6
:101750007B627B6A1B4AA2FB03235B091B01FB62C2
:10176000FB6A1B09642202FB03F37A6AD31A3B6209
:101770007B689B899BB21BB2002B0CDA3B6ADB00B7
:101780003233104AA2FB03235B0903F00703FA6A12
:101790001343FB620BE03B6A1B013233094AA2FB95
:1017A00003235B0903F00F03FA6A1343FB62FB6A2E
:1017B0009AB27B681A8100BF3037BD4680BD00BF3A
:1017C000003801401F85EB5180B483B000AF7860D2
:1017D0000B46FB70FB78002B08D07B689B899BB283
:1017E00043F400539AB27B689A8107E07B689B8937
:1017F0009BB223F400539AB27B689A8100BF0C37E6
:10180000BD4680BC704780B487B000AF78600B469F
:101810007B8013467B7000233B610023FB60002329
:10182000BB6000237B617B687B617B88DBB25B09EB
:10183000DBB23B617B8803F01F03FB600122FB6886
:1018400002FA03F3BB603B69012B03D17B690C33C4
:101850007B6109E03B69022B03D17B6910337B611B
:1018600002E07B6914337B617B78002B06D07B69B7
:101870007A691168BA680A431A6006E07B697A6976
:101880001168BA68D2430A401A6000BF1C37BD46CF
:1018900080BC704780B483B000AF78600B467B801B
:1018A0007B88C3F308039AB27B689A8000BF0C3729
:1018B000BD4680BC704780B483B000AF78607B6861
:1018C0009B889BB2C3F308039BB218460C37BD46F6
:1018D00080BC704780B485B000AF78600B467B80D9
:1018E0000023FB737B681B889AB27B8813409BB2F2
:1018F000002B02D00123FB7301E00023FB73FB7B71
:1019000018461437BD4680BC704780B487B000AF1E
:1019100078600B467B800023FB6000237B61002303
:10192000BB600023FB747B88DBB25B09DBB2BB606E
:101930007B8803F01F037B6101227B6902FA03F3BA
:101940007B61BB68012B07D17B689B899BB21A46E0
:101950007B6913407B6111E0BB68022B07D17B6878
:101960001B8A9BB21A467B6913407B6106E07B6849
:101970009B8A9BB21A467B6913407B617B881B0A5A
:101980009BB2FB600122FB6802FA03F3FB607B68F9
:101990001B889BB21A46FB681340FB607B69002BD7
:1019A00005D0FB68002B02D00123FB7401E000236B
:1019B000FB74FB7C18461C37BD4680BC704780B565
:1019C00000AF01F0FDF801F039F901F0AFFB01F0D3
:1019D00071FD04F057FF01F04DFF4FF4967001F0D8
:1019E000DBF8F6E7DFF834D0002103E00C4B5B585E
:1019F000435004310B480C4B42189A42F6D30B4A21
:101A000002E0002342F8043B094B9A42F9D300F06C
:101A100071F806F05DFDFFF7D2FF7047005000201F
:101A20004CF70008000000209806002098060020CF
:101A3000C81A0020FEE780B400AF00BFBD4680BCDE
:101A4000704780B400AFFEE780B400AFFEE780B41B
:101A500000AFFEE780B400AFFEE780B400AF00BF88
:101A6000BD4680BC704780B400AF00BFBD4680BC9F
:101A7000704780B400AF00BFBD4680BC704780B5E2
:101A800000AF01F07BF800BF80BD000080B582B0E0
:101A900000AF40F225510948FFF737FF0346002BFE
:101AA00008D00648FFF707FF0346FB71FB7918468D
:101AB00001F0F8FB00BF0837BD4680BD003801408B
:101AC00080B582B000AF40F225510948FFF71DFFF5
:101AD0000346002B08D00648FFF7EDFE0346FB71D6
:101AE000FB79184601F0CCFB00BF0837BD4680BD2E
:101AF0000044004080B500AF154A154B1B6843F009
:101B0000010313601249124B5A68124B13404B6089
:101B10000F4A0F4B1B6823F0847323F48033136048
:101B20000B4A0B4B1B6823F480231360084A084BB5
:101B30005B6823F4FE035360054B4FF41F029A6069
:101B400000F078F8044B4FF000629A6000BF80BD4F
:101B5000001002400000FFF800ED00E080B485B006
:101B600000AF0023FB600023BB6000237B602C4B95
:101B70005B6803F00C03FB60FB68042B07D0082BA9
:101B800009D0002B33D1274B274A1A6033E0254B6D
:101B9000254A1A602FE0224B5B6803F47013BB6088
:101BA0001F4B5B6803F480337B60BB689B0C023384
:101BB000BB607B68002B06D1BB681C4A02FB03F3A9
:101BC000184A136017E0164B5B6803F40033002BD0
:101BD00006D0BB68154A02FB03F3124A13600AE001
:101BE000BB68114A02FB03F30E4A136003E00D4B7E
:101BF0000D4A1A6000BF0A4B5B681B0903F00F0314
:101C00000B4AD35CDBB2FB60064B1A68FB6822FA16
:101C100003F3044A136000BF1437BD4680BC70470D
:101C2000001002401400002000127A0000093D005C
:101C30001800002080B500AF00F002F800BF80BDA2
:101C400080B483B000AF00237B6000233B603A4A3E
:101C5000394B1B6843F480331360374B1B6803F424
:101C600000333B607B6801337B603B68002B03D112
:101C70007B68B3F5A06FF0D12F4B1B6803F40033E2
:101C8000002B02D001233B6001E000233B603B6856
:101C9000012B4BD1294A294B1B6843F010031360D9
:101CA000264A264B1B6823F003031360234A234B69
:101CB0001B6843F0020313601F4A1F4B5B685360AD
:101CC0001D4A1D4B5B6853601B4A1B4B5B6843F40A
:101CD00080635360184A184B5B6823F47C1353608D
:101CE000154A154B5B6843F4E8135360124A124BD4
:101CF0001B6843F08073136000BF0F4B1B6803F039
:101D00000073002BF9D00C4A0B4B5B6823F00303E4
:101D10005360094A084B5B6843F00203536000BFFD
:101D2000054B5B6803F00C03082BF9D100BF0C379F
:101D3000BD4680BC704700BF00100240002002403A
:101D400080B487B000AFF860B9607A6001237B612E
:101D500004E07B697A6802FB03F37B617B69BA6804
:101D6000B2FBF3F27B689A42F3D229E07B69BA684E
:101D7000B2FBF3F33B617A69BB68B3FBF2F102FBA0
:101D800001F29B1ABB607A697B6892FBF3F37B617B
:101D90003B69092B0ADDFB681B68591CFA68116056
:101DA0003A69D2B23732D2B21A7009E0FB681B68C6
:101DB000591CFA6811603A69D2B23032D2B21A7044
:101DC0007B69002BD2D100BF1C37BD4680BC704759
:101DD00080B588B000AFF860B9607A60FB687B615D
:101DE0007DE0BB681B78252B71D1BB680133BB60DC
:101DF000BB681B78642B1ED0642B06DC582B50D09C
:101E0000632B0ED0252B58D05DE0732B2BD0732B7A
:101E100002DC692B0FD056E0752B37D0782B40D0E1
:101E200051E0FB685A1CFA607A68111D79601268EB
:101E3000D2B21A7047E07B681A1D7A601B68FB619A
:101E4000FB69002B07DAFB695B42FB61FB685A1CEC
:101E5000FA602D221A70F96907F10C030A2218465C
:101E6000FFF76EFF2FE07B681A1D7A601B68BB616D
:101E700007E0FB685A1CFA60BA69511CB961127814
:101E80001A70BB691B78002BF3D11CE07B681A1D0C
:101E90007A60196807F10C030A221846FFF750FF11
:101EA00011E07B681A1D7A601B68194607F10C0364
:101EB00010221846FFF744FF05E0FB685A1CFA6041
:101EC00025221A7000BFBB680133BB6007E0FB68C6
:101ED0005A1CFA60BA68511CB96012781A70BB6853
:101EE0001B78002B7FF47DAFFB6800221A70FB6823
:101EF0001A467B69D31A18462037BD4680BD0EB4FA
:101F000080B585B000AF786007F12003BB60BA6888
:101F1000F9697868FFF75CFFF860FB6818461437CA
:101F2000BD46BDE8804003B0704780B487B000AFC5
:101F3000F860B9607A60FB685A687B689A4201D39E
:101F4000002317E0FB685B68591CFA6851601B01AD
:101F5000BA6813447B617B694FF0FF329A607B69FA
:101F60009A687B695A607B690022DA607B6900228B
:101F70001A707B6918461C37BD4680BC704780B418
:101F800085B000AFF8607A603B600B46FB72FB687F
:101F9000FA7A1A70FB687A685A60FB683A689A6045
:101FA000FB680022DA6000BF1437BD4680BC704772
:101FB00080B588B000AFF860B9607A603B60FB68BC
:101FC0001B68FB612BE0FB681B68BA6813441B7835
:101FD000FB76FB7E092B27D0FB7E0D2B24D0FB7ECE
:101FE0000A2B21D0FB7E202B1ED0FB7E2C2B1BD05E
:101FF000FB7E5D2B18D0FB7E7D2B15D0FB7E1F2B2F
:1020000002D9FB7E7E2B05D9FA69FB681A606FF056
:1020100001032FE0FB681B685A1CFB681A60FB6811
:102020001A687B689A42CED33B68002B06D1FB68C6
:102030001B685A1EFB681A6000231BE0BA6A3968E5
:10204000F868FFF772FF78617B69002B05D1FA69A8
:10205000FB681A604FF0FF330CE0FB681B68FA69FD
:1020600004217869FFF78BFFFB681B685A1EFB6829
:102070001A60002318462037BD4680BD80B588B061
:1020800000AFF860B9607A603B60FB681B68FB6179
:10209000FB681B685A1CFB681A60FDE0FB681B6844
:1020A000BA6813441B78FB76FB7E222B1DD13B685C
:1020B000002B01D10023FAE0BA6A3968F868FFF70B
:1020C00034FF78617B69002B05D1FA69FB681A60DF
:1020D0004FF0FF33EBE0FB695A1CFB681B680321E0
:1020E0007869FFF74CFF0023E1E0FB7E5C2B40F0BA
:1020F000CE80FB681B685A1C7B689A4280F0C780C0
:10210000FB681B685A1CFB681A60FB681B68BA688E
:1021100013441B78223B532B00F2B28001A252F8E9
:1021200023F000BF8D2200088122000881220008D0
:1021300081220008812200088122000881220008F3
:1021400081220008812200088122000881220008E3
:1021500081220008812200088D22000881220008C7
:1021600081220008812200088122000881220008C3
:1021700081220008812200088122000881220008B3
:1021800081220008812200088122000881220008A3
:102190008122000881220008812200088122000893
:1021A0008122000881220008812200088122000883
:1021B0008122000881220008812200088122000873
:1021C0008122000881220008812200088122000863
:1021D0008122000881220008812200088122000853
:1021E0008122000881220008812200088122000843
:1021F0008122000881220008812200088122000833
:102200008122000881220008812200088D22000816
:102210008122000881220008812200088122000812
:10222000812200088D2200088122000881220008F6
:10223000812200088D2200088122000881220008E6
:1022400081220008812200088122000881220008E2
:10225000812200088D2200088122000881220008C6
:10226000812200088D220008812200088D220008AA
:1022700075220008FB681B681A1DFB681A6006E0DF
:10228000FA69FB681A606FF0010310E000BFFB6899
:102290001B685A1CFB681A60FB681A687B689A42C4
:1022A000FFF4FCAEFA69FB681A606FF0020318468F
:1022B0002037BD4680BD00BF80B58AB002AFF86050
:1022C000B9607A603B6046E1FB681B68BA681344FA
:1022D0001B78FB76FB7E2C2B00F0CB802C2B10DCAC
:1022E0000D2B00F02C810D2B04DC093B012B00F29F
:1022F000078124E1202B00F02281222B00F0938023
:10230000FEE05D2B39D05D2B05DC3A2B00F0AA8076
:102310005B2B05D0F4E07B2B02D07D2B2DD0EFE0A2
:10232000BA6A3968F868FFF700FE78617B69002BAC
:1023300002D14FF0FF3334E1FB689B68B3F1FF3FFC
:1023400007D0FB689B681B013A681344DA680132C6
:10235000DA60FB7E7B2B01D1012200E002227B6947
:102360001A70FB681B681A467B695A60FB685B68D9
:10237000013B1A46FB689A60E8E0FB7E7D2B01D1A9
:10238000012300E00223BB76FB685B68013BFB6135
:1023900024E0FB691B013A6813447B617B695B683D
:1023A000B3F1FF3F17D07B699B68B3F1FF3F12D1B8
:1023B0007B691B78BA7E9A4202D06FF00103F0E08D
:1023C000FB681B6801331A467B699A60FB684FF013
:1023D000FF329A6005E0FB69013BFB61FB69002B62
:1023E000D7DAFB69B3F1FF3F19D16FF00103D8E0F1
:1023F000FB691B013A6813447B617B695B68B3F13D
:10240000FF3F09D07B699B68B3F1FF3F04D1FB68B4
:10241000FA699A6000BF99E0FB69013BFB61FB69C7
:10242000002BE5DA92E0BB6A00933B687A68B968F2
:10243000F868FFF723FE38613B69002B01DA3B693E
:10244000AFE0FB689B68B3F1FF3F7AD03B68002B9D
:1024500077D0FB689B681B013A681344DA68013245
:10246000DA606EE0FB685B68013B1A46FB689A60C5
:102470006CE03B68002B66D0FB689B68B3F1FF3FC4
:1024800061D0FB689B681B013A6813441B78022BE0
:1024900059D0FB689B681B013A6813441B78012BD9
:1024A00051D0FB685B68013BFB6125E0FB691B01C8
:1024B0003A6813441B78022B06D0FB691B013A686B
:1024C00013441B78012B14D1FB691B013A68134498
:1024D0005B68B3F1FF3F0CD0FB691B013A68134402
:1024E0009B68B3F1FF3F04D1FB68FA699A6000BFB3
:1024F00029E0FB69013BFB61FB69002BD6DA22E096
:10250000BB6A00933B687A68B968F868FFF750FDCA
:1025100038613B69002B01DA3B6942E0FB689B684C
:10252000B3F1FF3F11D03B68002B0ED0FB689B68D6
:102530001B013A681344DA680132DA6005E000BF33
:1025400004E000BF02E000BF00E000BFFB681B68C2
:102550005A1CFB681A60FB681A687B689A42FFF491
:10256000B3AEFB685B68013BFB6115E0FB691B01D7
:102570003A6813445B68B3F1FF3F0AD0FB691B0163
:102580003A6813449B68B3F1FF3F02D16FF0020336
:1025900007E0FB69013BFB61FB69002BE6DAFB68A6
:1025A0005B6818462037BD4680BD80B483B000AF5D
:1025B00078607B6800221A607B6800225A607B6822
:1025C0004FF0FF329A6000BF0C37BD4680BC7047A9
:1025D00080B584B000AFF860B9607A60FB68002B0A
:1025E00005D0BB68002B02D07B68002B01D10023F3
:1025F0000BE010220021F86805F099FFFB687A686B
:102600005A60FB68BA681A60012318461037BD4645
:1026100080BD80B588B000AFF860B9607A60BB68F3
:10262000FB61FB68002B0DD0FB681B68002B09D0F9
:10263000FB685B68002B05D0BB68002B02D07B6871
:10264000002B01D1002347E0F86800F0B0F8B86132
:102650007A68BB69934228BF13467B607B68002B76
:1026600001D1002338E0FB685A68FB68DB68D21AA6
:102670007B68934228BF13467B61FB681A68FB683E
:10268000DB6813447A69F969184605F045FFFB6871
:10269000DA687B691A44FB68DA607A687B69D31A66
:1026A0007B607B68002B0BD0FB681868FA697B693C
:1026B00013447A68194605F02FFFFB687A68DA60E0
:1026C000FB68DA68FB685B689A4202D3FB68002209
:1026D000DA607A697B68134418462037BD4680BDAE
:1026E00080B588B000AFF860B9607A60BB68FB6104
:1026F000FB68002B0DD0FB681B68002B09D0FB6822
:102700005B68002B05D0BB68002B02D07B68002BD8
:1027100001D1002347E0F86800F07FF8B8617A68DB
:10272000BB69934228BF13467B607B68002B01D1B5
:10273000002338E0FB685A68FB689B68D21A7B6804
:10274000934228BF13467B61FB681A68FB689B684D
:1027500013447A691946F86905F0DEFEFB689A6849
:102760007B691A44FB689A607A687B69D31A7B603C
:102770007B68002B0BD0FA697B69D018FB681B685B
:102780007A68194605F0C8FEFB687A689A60FB68AB
:102790009A68FB685B689A4202D3FB6800229A60E1
:1027A0007A697B68134418462037BD4680BD80B4E3
:1027B00087B000AF78607B68002B07D07B681B6810
:1027C000002B03D07B685B68002B01D100231FE046
:1027D0007B68DB683B617B689B68FB603A69FB68F0
:1027E0009A4203D17B685B687B610FE0FA683B69C2
:1027F0009A4204D9FA683B69D31A7B6106E07B6888
:102800005A68F9683B69CB1A13447B617B69013BC9
:1028100018461C37BD4680BC704780B487B000AFF7
:1028200078607B68002B07D07B681B68002B03D087
:102830007B685B68002B01D100231DE07B68DB68AF
:102840003B617B689B68FB603A69FB689A4202D1F6
:1028500000237B610FE03A69FB689A4204D93A6928
:10286000FB68D31A7B6106E07B685A683969FB68AC
:10287000CB1A13447B617B6918461C37BD4680BC6C
:102880007047000080B582B000AF0346FB71102195
:102890000748FEF711FCFB79184600F0DFFB10211A
:1028A0000348FEF7FBFB00BF0837BD4680BD00BFF5
:1028B0000008014080B500AF00F070FB1021034814
:1028C000FEF7ECFB00F004F800BF80BD00080140FB
:1028D00080B582B000AF00237B6010211248FEF764
:1028E000EBFB9F2000F0BAFBFF2000F0B7FB034694
:1028F0001B047B60FF2000F0B1FB03461B027A68DB
:1029000013437B60FF2000F0A9FB03461A467B6857
:1029100013437B6010210448FEF7C0FB7B68184618
:102920000837BD4680BD00BF0008014080B500AF3C
:102930000620FFF7A7FF00BF80BD000080B582B072
:1029400000AF10210B48FEF7B7FB052000F086FB17
:10295000FF2000F083FB0346FB7110210548FEF7C2
:102960009DFBFB7903F00103002BEAD100BF083780
:10297000BD4680BD0008014080B582B000AF7860E0
:10298000FFF7D4FF10211048FEF796FB202000F03F
:1029900065FB7B681B0CDBB2184600F05FFB7B68B5
:1029A0001B0ADBB2184600F059FB7B68DBB2184605
:1029B00000F054FB10210448FEF770FBFFF7BEFF48
:1029C00000BF0837BD4680BD0008014080B586B015
:1029D00000AFF860B9601346FB80FB88B3F5807FD9
:1029E00002D94FF48073FB80FFF7A0FF1021194834
:1029F000FEF762FB022000F031FBFB681B0CDBB230
:102A0000184600F02BFBFB681B0ADBB2184600F0EF
:102A100025FBFB68DBB2184600F020FB0023FB829D
:102A200009E0FB8ABA6813441B78184600F016FBCD
:102A3000FB8A0133FB82FA8AFB889A42F1D3102188
:102A40000448FEF72BFBFFF779FF00BF1837BD46A0
:102A500080BD00BF0008014090B587B000AFF860AE
:102A6000B9601346FB8010211848FEF725FB0320B0
:102A700000F0F4FAFB681B0CDBB2184600F0EEFA2B
:102A8000FB681B0ADBB2184600F0E8FAFB68DBB211
:102A9000184600F0E3FA0023FB820AE0FB8ABA68DA
:102AA000D418FF2000F0DAFA03462370FB8A0133C2
:102AB000FB82FA8AFB889A42F0D310210348FEF782
:102AC000EDFA00BF1C37BD4690BD00BF00080140B5
:102AD00080B483B000AF03463960FB7197F90730CB
:102AE000002B0BDA0D49FB7903F00F03043B3A6826
:102AF000D2B21201D2B20B441A7609E0084997F912
:102B000007303A68D2B21201D2B20B4483F80023E4
:102B100000BF0C37BD4680BC704700BF00ED00E031
:102B200000E100E080B582B000AF78607B68B3F16F
:102B3000807F01D3012311E00A4A7B6823F07F43A1
:102B4000013B53600F214FF0FF30FFF7C1FF054BF2
:102B500000229A60034B07221A60002318460837A8
:102B6000BD4680BD10E000E080B400AF024B1B68A2
:102B70001846BD4680BC7047B406002080B400AF44
:102B8000044B1B680133034A136000BFBD4680BC81
:102B9000704700BFB406002080B584B000AF7860F5
:102BA000FFF7E2FFF86000BFFFF7DEFF0246FB68B9
:102BB000D21A7B689A42F7D300BF1037BD4680BD5A
:102BC00080B582B000AF4FF48030FEF783FAFEF795
:102BD000AFFA0346FB71FB79012B28D11020FEF7D9
:102BE00089F90220FEF76AF90020FEF721FB002098
:102BF000FEF756FB4FF48060FEF736FB4FF4E01112
:102C00004FF48030FEF7BCFA0120FEF7D7FA00BF80
:102C10003920FEF74DFC0346002BF9D00220FEF7C9
:102C2000DDFA00BFFEF7F6FA0346082BFAD1FEF7ED
:102C300095FF00BF0837BD4680BD000080B500AFDE
:102C40000420FEF71FF90A4B1B680A4AA2FB032364
:102C50009B091846FFF766FF0346002B00D0FEE7EE
:102C60000F214FF0FF30FFF733FF00BF80BD00BFE3
:102C700014000020D34D621080B582B000AF012156
:102C80001020FEF7D9FB4FF40053BB801023FB71DB
:102C90000323BB713B1D19460448FEF743F900F0BE
:102CA00013F800BF0837BD4680BD00BF00100140CB
:102CB00080B500AF4FF400510248FEF7EFF900BFB6
:102CC00080BD00BF0010014080B500AF4FF400513F
:102CD0000248FEF7F1F900BF80BD00BF00100140BF
:102CE00080B500AF00F034F803461A46044B1A7062
:102CF000034B1B78184600F041F800BF80BD00BFB1
:102D0000B806002080B584B000AF0346FB71FB79A4
:102D1000012B17D84FF48050FFF72EFEFB793B7341
:102D2000FF237B73FF23BB73FF23FB7307F10C03AC
:102D3000042219464FF48050FFF748FE034AFB79FE
:102D4000137000E000BF1037BD4680BDB8060020FC
:102D500080B582B000AF3B46042219464FF4805044
:102D6000FFF77AFE3B78FB71FB79012B01D8FB79E9
:102D700000E0002318460837BD4680BD80B582B00C
:102D800000AF0346FB71FB79012B02D1FFF790FFE7
:102D900001E0FFF799FF034AFB79137000BF083782
:102DA000BD4680BDB806002080B586B000AF786013
:102DB0007B68002B02D14FF0FF336CE07B687B61B6
:102DC00002E07B6901337B617B691B78202BF8D0A3
:102DD0007B691B780D2BF4D07B691B780A2BF0D014
:102DE0007B691B78092BECD07B691B78222BE8D000
:102DF0007868FDF7B7F902467B6813443B6102E04F
:102E00003B69013B3B613A697B699A4218D93B694E
:102E1000013B1B78202BF3D03B69013B1B780D2B2A
:102E2000EED03B69013B1B780A2BE9D03B69013BA3
:102E30001B78092BE4D03B69013B1B78222BDFD0A8
:102E40003A697B699A4203D93A697B69D31A00E0EF
:102E50000023FB60FB68012B02D04FF0FF331AE028
:102E60007B691B78FB72FB7A302B07D10020FFF7C0
:102E700085FF0020FFF746FF00230CE0FB7A312B93
:102E800007D10120FFF77AFF0120FFF73BFF012365
:102E900001E04FF0FF3318461837BD4680BD0000F3
:102EA00080B500AF0D220021024805F040FB00BFB5
:102EB00080BD00BFBC06002080B483B000AF0346D5
:102EC000FB71144B1B7B092B01D900231DE0114B17
:102ED0009B7A19460F4AFB7953540E4B9B7A5A1C26
:102EE0000D4B83FB02139910D317C91A0B469B0095
:102EF0000B445B00D11ACAB2064B9A72054B1B7B7E
:102F00000133DAB2034B1A73012318460C37BD465E
:102F100080BC7047BC0600206766666680B483B0DC
:102F200000AF7860164B1B7B002B02D07B68002B18
:102F300001D100231EE0124BDB7A1A46104B9A5C3B
:102F40007B681A700E4BDB7A5A1C0E4B83FB021304
:102F50009910D317C91A0B469B000B445B00D11A7A
:102F6000CAB2074BDA72064B1B7B013BDAB2044B49
:102F70001A73012318460C37BD4680BC704700BF4A
:102F8000BC0600206766666680B400AF024B1B7B00
:102F90001846BD4680BC7047BC06002080B586B090
:102FA00000AF01214FF48050FEF746FA1023BB8298
:102FB0001023FB750323BB7507F11403194625483D
:102FC000FDF7B0FF2023BB821823FB750323BB75DD
:102FD00007F1140319461F48FDF7A4FF4023BB82E5
:102FE0000423FB7507F1140319461A48FDF79AFFED
:102FF0008023BB821823FB750323BB7507F11403E1
:1030000019461448FDF78EFF0823BB814FF48273E5
:103010007B8001233B810223FB804FF400737B8183
:1030200000233B800023BB800023FB8107233B82DE
:103030003B4619460848FEF775FA01210648FEF797
:10304000B4FA10210348FEF729F800BF1837BD462F
:1030500080BD00BF000801400030014080B582B053
:1030600000AF0346FB7100BF02210E48FEF7D6FAFF
:103070000346002BF8D0FB799BB219460948FEF7AE
:10308000B3FA00BF01210748FEF7C8FA0346002B38
:10309000F8D00448FEF7B6FA0346DBB21846083704
:1030A000BD4680BD0030014080B483B000AF034610
:1030B000FB71084997F907305B09FA7902F01F02A2
:1030C000012000FA02F241F8232000BF0C37BD4670
:1030D00080BC704700E100E080B483B000AF0346DD
:1030E0003960FB7197F90730002B0BDA0D49FB793A
:1030F00003F00F03043B3A68D2B21201D2B20B4480
:103100001A7609E0084997F907303A68D2B21201F5
:10311000D2B20B4483F8002300BF0C37BD4680BCFD
:10312000704700BF00ED00E000E100E080B58AB02C
:1031300000AF01210420FEF77FF901214FF4804008
:10314000FEF77AF901214FF40030FEF793F90423DA
:10315000BB84032387F82630182387F8273007F12C
:10316000240319463F48FDF7DDFE0823BB840423F2
:1031700087F8273007F1240319463A48FDF7D2FEB5
:103180004FF40073BB84032387F82630182387F895
:10319000273007F1240319463248FDF7C3FE4FF4E8
:1031A0008063BB84042387F8273007F12403194682
:1031B0002C48FDF7B7FE4FF480722B492B48FFF7E0
:1031C00007FA4FF480722A492A48FFF701FA4FF4B0
:1031D000E1337B610023BB830C23FB8300237B83D0
:1031E00000233B8400233B8307F114031946224844
:1031F000FEF730FA012240F225511F48FEF703FB8B
:1032000001212620FFF768FF2620FFF74DFF01214F
:103210001948FEF7D9FA4FF4E1337B600023BB81F4
:103220000C23FB8100237B8100233B8200233B8115
:103230003B1D19461148FEF70DFA012240F22551B7
:103240000E48FEF7E0FA02212520FFF745FF252072
:10325000FFF72AFF01210948FEF7B6FA00BF283719
:10326000BD4680BD00080140DC070020DC080020CE
:10327000CC060020CC07002000440040003801406C
:1032800080B582B000AF0346FB71FB1D01221946D9
:103290000348FFF7BEF900BF0837BD4680BD00BF39
:1032A000DC08002080B582B000AF0346FB71FB1D37
:1032B000012219460348FFF7ACF900BF0837BD46A5
:1032C00080BD00BFCC07002080B582B000AF786021
:1032D0000B467B807B881A4679680448FFF700FA22
:1032E00003469BB218460837BD4680BDCC07002078
:1032F00080B500AF0348FFF790FA03469BB218462B
:1033000080BD00BFCC07002080B582B000AF7860E0
:103310000B46FB7000BF80217868FEF7DBFA03469E
:10332000002BF8D0FB789BB219467868FEF7B2FA0A
:1033300000BF0837BD4680BD80B586B000AFF860DD
:10334000B9601346FB800023FB820AE0FB8ABA685F
:1033500013441B781946F868FFF7D6FFFB8A013340
:10336000FB82FA8AFB889A42F0D300BF1837BD4629
:1033700080BD000080B582B000AF78607868FCF74F
:10338000F1FE03469BB21A4679680348FFF7D4FF63
:1033900000BF0837BD4680BD0038014080B582B00F
:1033A00000AF78607868FCF7DDFE03469BB21A46F2
:1033B00079680348FFF7C0FF00BF0837BD4680BDEE
:1033C0000044004080B582B000AF78603960FFF7FC
:1033D000CBFB02467B68D21A3B689A422CBF012382
:1033E0000023DBB218460837BD4680BD80B582B0E9
:1033F00000AF78607868FFF7D1FF0348FFF7CEFF92
:1034000000BF0837BD4680BDF0DB000880B500AFC7
:10341000FFF7D6FBFFF712FCFFF788FEFFF74AFA2B
:1034200002F058FCFFF728FCFFF75AFCFFF738FDC5
:1034300003F0C4FA074804F079FB0021002000F0F3
:103440009FFC002300220449002002F021FB00BF62
:1034500080BD00BFF4DB000804DC000880B500AFCD
:1034600002F038FC03F0AAFA0021002000F088FCEA
:10347000002300220C49002002F00AFB0B4B002223
:103480001A700B4B01221A77094B01221A70FFF7B1
:103490006BFB0246064B9A60FFF766FB0246044B45
:1034A0005A6000BF80BD00BF04DC00081009002086
:1034B000EC08002080B500AF242200210B4805F065
:1034C00036F80A4B00221A70FFF74EFB0246074BF4
:1034D0009A60FFF749FB0246044B5A60034B0022F7
:1034E0009A61024B01221A7700BF80BDEC080020D0
:1034F00080B500AFFFF738FB0246044B9A61FFF737
:1035000033FB0246014B5A6100BF80BDEC0800202E
:1035100080B400AF024B1B7B1846BD4680BC704791
:10352000EC08002090B5A5B002AF37E097F88730DF
:103530001C46FFF729FD0346381D009323461D4A0C
:10354000802104F0FDFF3B1D1846FFF727FF97F889
:103550008730012B09D11848FFF720FF1748FFF7E4
:1035600023FC1748FFF71AFF18E097F88730022B63
:1035700009D11448FFF712FF1348FFF715FC134851
:10358000FFF70CFF0AE097F88730381D104A8021BA
:1035900004F0D6FF3B1D1846FFF700FF07F1870335
:1035A0001846FFF7BBFC0346002BBFD100BF8C378A
:1035B000BD4690BD14DC00083CDC00085CDC000863
:1035C00060DC00087CDC00089CDC0008A0DC000853
:1035D000BCDC000880B59EB000AF9B4B1B78012B74
:1035E00008D0994B1B78022B06D1974B93F8DC300F
:1035F000012B01D9012300E0002387F8773097F8E9
:10360000773003F0010387F87730904B5B78092B14
:1036100005D08E4B5B78002B01D0012300E0002306
:1036200087F8763097F8763003F0010387F8763024
:10363000864B93F8DC31002B0FD0854B9B69002B18
:103640000BD0FFF791FA0246814B9B69D31A42F2E5
:103650000F72934201D8012300E0002387F87530F0
:1036600097F8753003F0010387F87530774B93F8BE
:10367000DC31002B02D04EF6602301E047F23053DC
:103680003B67734B1B7B83F00103DBB2002B30D015
:1036900097F8773083F00103DBB2002B29D097F83D
:1036A000763083F00103DBB2002B22D097F875301F
:1036B00083F00103DBB2002B1BD0654B5B69396FD4
:1036C0001846FFF77FFE0346002B12D06148FFF734
:1036D00065FE6148FFF74EFE5D4B01221A73FFF74E
:1036E00043FA02465A4B1A61FFF73EFA0246584B1C
:1036F0005A61574B1B7B002B00F081804FE007F194
:1037000050031846FFF772FE3A4607F15003114680
:10371000184604F07BFA0346002B40D03B78022B7E
:1037200009D14B4B01221A77494B00221A734B489F
:10373000FFF734FE3CE03B78002B09D1444B0122DB
:103740001A77434B00221A734548FFF727FE2FE0F4
:103750003B78032B05D03B78042B02D03B78012B20
:103760001DD14048FFF71AFE394B00221A77384B1B
:1037700000221A73354B93F8DC31002B09D03A48FC
:10378000FFF70CFE314B002283F8DC212F4B002287
:103790005A702F4B01221A70FFF760FE08E007F104
:1037A00050031E21184603F021F80346002BA6D132
:1037B000274B1B6941F288311846FFF703FE034689
:1037C000002B1CD02948FFF7E9FD214B00221A737A
:1037D0001F4B00221A771D4B93F8DC31002B09D0C8
:1037E0002348FFF7DBFD194B002283F8DC21174B40
:1037F00000225A70164B01221A70FFF72FFE134B4E
:103800005B78092B05D0114B5B78002B01D001238D
:1038100000E0002387F86F3097F86F3003F0010362
:1038200087F86F30084B1B78012B08D097F86F3062
:1038300083F00103DBB2002B01D003F0B5FA00BF27
:103840007837BD4680BD00BF20190020E41100205C
:10385000EC080020DCDC0008F4DC000800DD0008D7
:1038600018DD00082CDD000860DD000890DD000890
:10387000C0DD000880B500AF174B1B78012B0AD0C4
:10388000022B12D0002B00D023E0FFF7BFFD124B1C
:1038900001221A701DE002F03FFF104B1B7A022B31
:1038A00014D10D4B02221A7010E0FFF793FEFFF7C0
:1038B00039FE04F013F90A4B1B78012B08D0084B92
:1038C0001B78022B04D001F045FE01E000BF00E0B0
:1038D00000BF00BF80BD00BFEC080020D41800204E
:1038E0002019002090B5CFB002AF07F10C0318608B
:1038F00007F1080319603B1D1A6007F58873184625
:10390000FEF753FE07F10C031868FCF72BFC044686
:1039100007F1100207F10C0107F5887010230093DE
:10392000134622460968FEF7C7FCC7F82801D7F8F6
:103930002831002B01DA002382E00123C7F82C3163
:1039400077E007F11002D7F82C311B0113441B78E4
:10395000032B69D107F11002D7F82C311B01134456
:1039600008331A6807F11001D7F82C311B010B44FA
:1039700004331B68D31AC7F82431D7F82431072B36
:1039800052D107F11002D7F82C311B011344043334
:103990001B681A4607F10C031B68134407222B49C6
:1039A000184604F03BFE0346002B3DD1D7F82C31DE
:1039B0005A1CD7F828319A4236DAD7F82C3101331D
:1039C00007F110021B011344C7F82031D7F820314A
:1039D0009A68D7F820315B68D31AC7F81C31D7F83A
:1039E0001C31002B05DDD7F81C213B1D1B689A42BA
:1039F00001D3002324E0D7F820315B681A4607F191
:103A00000C031B689918D7F81C2107F108031868E4
:103A100004F082FDD7F81C3107F108021268134444
:103A200000221A7001230BE0D7F82C310133C7F8BC
:103A30002C31D7F82C21D7F828319A4281DB00238A
:103A4000184607F59A77BD4690BD00BFF4DD000823
:103A500080B5F4B004AF07F10C03186007F1080358
:103A60001960BB1D1A8007F10C031B68002B00F0C6
:103A70006F8107F108031B68002B00F06981BB1DF3
:103A80001B88002B00F06481BB1D1A88BB1D1988A0
:103A900007F10C0307F1A400029107F1080109687E
:103AA000019100921B68AD4A4FF4807104F048FD0B
:103AB00007F1A4031846FFF771FC07F10C03A849AE
:103AC0001868FCF745FB0346002B03D0A548FFF719
:103AD00065FC3EE1BB1D1B887F2B28BF7F23A7F819
:103AE000A831B7F8A82107F1080307F124001968E5
:103AF00004F012FDB7F8A83107F124020021D154D7
:103B0000002387F8BF3107F12403C7F8B83107F164
:103B10002403C7F8B43104E0D7F8B4310133C7F84F
:103B2000B431D7F8B4311B78202BF5D0D7F8B431A5
:103B30001B780D2BF0D0D7F8B4311B780A2BEBD0C3
:103B4000D7F8B4311B78092BE6D0D7F8B4311B78FD
:103B50007B2B11D107F1140310221946D7F8B401B9
:103B6000FFF7C0FE0346002B06D007F11403C7F889
:103B7000B831012387F8BF3197F8BF3183F00103D3
:103B8000DBB2002B00F0A0800023C7F8B03107F1B2
:103B900024031846FCF7E6FAC7F8AC0104E0D7F8AE
:103BA000B0310133C7F8B031D7F8B021D7F8AC3114
:103BB0009A422DD207F12402D7F8B03113441B7872
:103BC000202BECD007F12402D7F8B03113441B7836
:103BD0000D2BE4D007F12402D7F8B03113441B7841
:103BE0000A2BDCD007F12402D7F8B03113441B783C
:103BF000092BD4D007F12402D7F8B03113441B7835
:103C0000222BCCD004E0D7F8AC31013BC7F8AC3163
:103C1000D7F8AC21D7F8B0319A4227D9D7F8AC31D0
:103C2000013B07F12402D35C202BECD0D7F8AC3158
:103C3000013B07F12402D35C0D2BE4D0D7F8AC3163
:103C4000013B07F12402D35C0A2BDCD0D7F8AC315E
:103C5000013B07F12402D35C092BD4D0D7F8AC3157
:103C6000013B07F12402D35C222BCCD0D7F8AC2146
:103C7000D7F8B0319A4205D9D7F8AC21D7F8B0318E
:103C8000D31A00E00023C7F8A431D7F8A431002BE1
:103C90001AD0D7F8A4310F2B16D807F12402D7F881
:103CA000B031D11807F11403D7F8A421184604F055
:103CB00033FC07F11402D7F8A431134400221A7020
:103CC00007F11403C7F8B831002387F8AB31264950
:103CD000D7F8B801FCF73CFA0346002B0FD0234974
:103CE000D7F8B801FCF734FA0346002B07D0204977
:103CF000D7F8B801FCF72CFA0346002B03D10123B7
:103D000087F8AB311AE01B49D7F8B801FCF720FA65
:103D10000346002B0FD01849D7F8B801FCF718FA62
:103D20000346002B07D01549D7F8B801FCF710FA65
:103D30000346002B02D1022387F8AB3197F8AB3151
:103D4000002B06D097F8AB311846FFF7B5F800E026
:103D500000BF07F5E077BD4680BD00BFFCDD000871
:103D600030DE00083CDE000870DE000874DE00086B
:103D700078DE00087CDE000880DE000884DE0008B3
:103D800080B582B000AF786039602A4A7B68C2F89B
:103D9000E031284A3B68C2F8E431264B002283F820
:103DA000D021FEF7E1FE0246224BC3F8D421214B7D
:103DB00000225A701F4B0022C3F8D8211D4B00224D
:103DC00083F8DC211B4B00221A701A4B00229A70D8
:103DD000184B002283F88420164B3C22A3F8442180
:103DE000144B42F2B322A3F88220124B002283F834
:103DF000C420104B002283F804210E4B002283F8CC
:103E000048210C4B0022A3F8CC210A4B0022C3F816
:103E1000C821084B012283F8CE21064B002283F8EB
:103E2000CF21044B044AC3F8E82100BF0837BD4640
:103E300080BD00BFE4110020513A000890B5A7B042
:103E400004AF3C4B1B78012B6ED13B4B1A883B4B8C
:103E50001B889A4203D3374B02221A7067E0FFF7A0
:103E600047FA0346A7F88630B7F88630002B5DD0B6
:103E7000324B1A88304B1B88D31AA7F88430B7F816
:103E80008420B7F88630934228BF1346A7F88230C3
:103E9000294B1B88C3F17F02B7F88230934228BFB9
:103EA0001346A7F88230B7F88230002B3FD0224B60
:103EB0001B881A46224B1344B7F882201146184635
:103EC000FFF702FA0346A7F880301B4B1A88B7F8B1
:103ED000803013449AB2184B1A80B7F88020164BE2
:103EE0001B881946154B1B881C46B7F88630384688
:103EF0000293019400911346124A802104F020FBA2
:103F00003B461846FFF74AFA0B4B1A880B4B1B88A7
:103F10009A420CD3084B1B881A46094B002199542E
:103F2000044B02221A7002E000BF00E000BF8C3791
:103F3000BD4690BD9C0A0020940A0020960A0020ED
:103F40001409002088DE000890B5A7B004AF3D4BEF
:103F50001B78022B6BD13C4B1B88002B69D03B4B51
:103F60001A88394B1B889A4265D2FFF7C1F903467C
:103F7000A7F88630B7F88630002B5ED0324B1A880F
:103F8000324B1B88D31AA7F88430B7F88420B7F8CF
:103F90008630934228BF1346A7F882302B4B1B88EC
:103FA000C3F58072B7F88230934228BF1346A7F852
:103FB0008230B7F88230002B40D0244B1B881A4641
:103FC000234B1344B7F8822011461846FFF77CF9BB
:103FD0000346A7F880301D4B1A88B7F88030134489
:103FE0009AB21A4B1A80B7F88020184B1B881946D2
:103FF000154B1B881C46B7F886303846029301944F
:1040000000911346134A802104F09AFA3B46184661
:10401000FFF7C4F90D4B1A880B4B1B889A420DD33E
:104020000A4B1B881A460A4B0021995406E000BF30
:1040300004E000BF02E000BF00E000BF8C37BD46D7
:1040400090BD00BF9C0A00209A0A0020980A002018
:1040500094090020C8DE000880B5DEB004AF3B1D27
:1040600018603B1D1B68002B00F0C58107F58472AA
:104070003B1D1146186803F0C9FD034687F86731F8
:1040800097F86731002B19D097F80831112B13D00E
:1040900097F80831122B0FD097F80831132B0BD05B
:1040A00097F80831142B07D097F808310F2B03D05D
:1040B00097F80831102B01D1012300E0002387F885
:1040C000663197F8663103F0010387F8663197F897
:1040D000663183F00103DBB2002B00F0DD80964BEC
:1040E0001B78012B04D0944B1B78022B40F0D4801A
:1040F000914B1B78012B6DD1904B1B88002B69D005
:104100008F4B1A888D4B1B889A4263D23B1D1B68CC
:104110001B78002B00F071813B1D1B681B782B2B3B
:1041200000F06B813B1D1B681B78412B00F0658103
:104130003B1D1B681B784F2B00F05F813B1D1B68EC
:104140001B78452B00F059813B1D1868FCF70AF8D5
:104150000346A7F86431794B1A88794B1B88D31A28
:10416000A7F86231B7F86221B7F86431934228BFEB
:104170001346A7F86031724B1B88C3F17F02B7F872
:104180006031934228BF1346A7F860316C4B1B88FF
:104190001A466C4BD018B7F860213B1D196804F023
:1041A000BBF9674B1A88B7F8603113449AB2644B75
:1041B0001A80634B1A88614B1B889A42C0F01D819C
:1041C0005F4B1B881A465F4B002199545A4B0222C1
:1041D0001A7012E1584B1B78022B5DD15A4B1B8889
:1041E000002B59D0594B1A88574B1B889A4253D2EF
:1041F0003B1D1B681B78002B00F001813B1D1B68D9
:104200001B782B2B00F0FB803B1D1B681B78412B80
:1042100000F0F5803B1D1B681B784F2B00F0EF80F2
:104220003B1D1B681B78452B00F0E9803B1D18687F
:10423000FBF798FF0346A7F85E31434B1A88434BC0
:104240001B88D31AA7F85C31B7F85C21B7F85E3148
:10425000934228BF1346A7F85A313C4B1B88C3F53D
:104260008072B7F85A31934228BF1346A7F85A31E3
:10427000364B1B881A46364BD018B7F85A213B1DCF
:10428000196804F049F9314B1A88B7F85A311344C8
:104290009AB22E4B1A80B2E097F8663183F0010390
:1042A000DBB2002B40F0AD8097F80831112B18D10C
:1042B000214B01221A70224B00221A80D7F81031AC
:1042C0009AB21E4B1A80214B00221A80D7F8143163
:1042D0009AB21D4B1A80FEF747FC02461D4B1A602E
:1042E00090E097F80831122B10D1134B01221A706D
:1042F000134B00221A80D7F810319AB20F4B1A8054
:10430000802200210F4804F012F97BE097F8083171
:10431000132B21D1084B02221A700C4B00221A8059
:10432000D7F810319AB2084B1A804FF480720021EE
:10433000074804F0FCF865E09C0A0020960A00207B
:10434000940A0020140900209A0A0020980A0020EC
:1043500094090020A00A002097F80831142B51D1AD
:104360002A4B1B88002B39D0294B1B88002B35D0BA
:10437000264B1B881A46274B00219954244B1B8837
:104380001A46254B00219954204B1B881946204B77
:104390001B881A4607F108001F4B029301921D4B20
:1043A00000930B461D4A4FF4807104F0C9F807F1E1
:1043B00008031846FEF7F2FF194BD3F8E831002B3B
:1043C00008D0174BD3F8E831114A12881249114826
:1043D000984706E01348FEF7E1FF02E01248FEF7B7
:1043E000DDFF124B00221A70084B00221A80084B86
:1043F00000221A8006E000BF04E000BF02E000BF18
:1044000000E000BF07F5B477BD4680BD940A0020E8
:10441000980A002014090020940900200CDF0008ED
:10442000E411002038DF00085CDF00089C0A00204F
:1044300080B500AF714B1B78042B00F2D98001A22C
:1044400052F823F059440008BB440008F94400081E
:1044500083450008C74500086948FEF79FFF694883
:10446000FEF788FFFEF780FB0246644BC3F8D421B9
:10447000624B01221A700123BEE06349634803F0D6
:10448000C5FB0346002B15D05F4B1B78002B03D0D8
:104490005D4B1B78012B0DD15C4802F037FA574B6E
:1044A00002221A70FEF760FB0246544BC3F8D42177
:1044B0000123A1E0554802F029FAC821534802F02F
:1044C00095F90346002BD8D14C4BD3F8D43140F6A4
:1044D000B8311846FEF776FF0346002B0AD0474B4B
:1044E00002221A70FEF740FB0246444BC3F8D42167
:1044F000012381E001237FE04548FEF73BFFFEF703
:1045000033FB02463D4BC3F8D4213C4B03221A70C7
:10451000012371E03D48FEF769FF3B493B4803F04A
:1045200075FB0346002B29D0374B1B78002B10D18D
:104530003848FEF733FF314B04221A70FEF714FBA4
:1045400002462E4BC3F8D421304802F0DFF9012394
:1045500052E02D4B1B78012B10D12F48FEF71EFF88
:10456000264B04221A70FEF7FFFA0246234BC3F8CB
:10457000D421264802F0CAF901233DE0234802F085
:10458000C5F9C821214802F031F90346002BC1D1F9
:104590001A4BD3F8D43142F210711846FEF712FFCD
:1045A0000346002B0DD01D48FEF7F8FE134B0422E6
:1045B0001A70FEF7D9FA0246104BC3F8D421012332
:1045C0001AE0012318E00D4BD3F8D4314FF4FA610F
:1045D0001846FEF7F7FE0346002B07D01048FEF7FB
:1045E000DDFE064B00221A70002305E0012303E0E4
:1045F000024B00221A700023184680BDE4110020EF
:104600007CDF00089CDF000894110020CC10002003
:10461000ACDF0008BCDF0008D0DF0008F8DF0008CE
:1046200024E0000880B500AF434B1B78012B4BD032
:10463000022B68D0002B78D14048FEF7AFFE4048EF
:10464000FEF798FEFEF790FA02463B4BC3F8D421E2
:10465000394B01221A7001236BE03A48FEF7C6FE7F
:104660003949384803F0D2FA0346002B29D0364B9B
:104670001B78002B10D13548FEF790FE2E4B0222FE
:104680001A70FEF771FA02462B4BC3F8D4212D485D
:1046900002F03CF901234CE02B4B1B78012B10D18D
:1046A0002B48FEF77BFE244B02221A70FEF75CFAC1
:1046B0000246214BC3F8D421224802F027F90123F6
:1046C00037E0204802F022F9C8211E4802F08EF897
:1046D0000346002BC1D1184BD3F8D43142F21071EC
:1046E0001846FEF76FFE0346002B0AD0124B02223B
:1046F0001A70FEF739FA02460F4BC3F8D421012392
:1047000017E0012315E00C4BD3F8D4314FF4FA71C4
:104710001846FEF757FE0346002B04D0064B002236
:104720001A70002305E0012303E0034B00221A70F6
:104730000023184680BD00BFE41100204CE00008B3
:1047400060E00008CC1000209411002070E0000808
:1047500084E0000880B598B000AF684B1B78032B4D
:1047600000F2C38001A252F823F000BF7D47000889
:10477000D347000805480008B34800086048FEF722
:104780000DFE6048FEF7F6FDFEF7EEF902465B4BC4
:10479000C3F8D421594B01221A700123A9E05A49C8
:1047A0005A4803F033FA0346002B0FD0564B1B78C0
:1047B000002B03D0544B1B78012B07D14F4B022207
:1047C0001A70524802F0A2F8012392E04F4802F01A
:1047D0009DF8C8214D4802F009F80346002BDED1B0
:1047E000464BD3F8D43141F288311846FEF7EAFD42
:1047F0000346002B04D0414B02221A70012378E0BB
:10480000012376E0424B1B78002B08D13F2241491F
:104810003F4803F015FF394B002283F8C320384688
:104820003B4B3D4A602103F08BFE3C48FEF7B6FD52
:104830003B461846FEF79EFDFEF796F902462F4BC3
:10484000C3F8D4212D4B03221A70012351E02F48C5
:10485000FEF7CCFD2C492D4803F0D8F90346002B78
:1048600024D0294B1B78002B0AD12D48FEF796FD4A
:10487000224B00221A70254802F048F8002338E045
:10488000214B1B78012B03D01F4B1B780E2B0DD116
:104890002448FEF783FD194B0A225A70174B002259
:1048A0001A701A4802F032F8002322E0174802F08A
:1048B0002DF8C821154801F099FF0346002BC6D1F9
:1048C0000E4BD3F8D43141F658311846FEF77AFD35
:1048D0000346002B07D0094B0A225A70074B0022CF
:1048E0001A70002305E0012303E0044B00221A7034
:1048F000002318466037BD4680BD00BFE41100208C
:10490000B0E000089CDF000894110020CC100020CB
:1049100068120020D0E00008DCE00008F4E00008A5
:1049200014E1000828E1000880B500AF354B1B7882
:10493000002B02D0012B43D05EE03348FEF72EFD62
:104940003248FEF717FDFEF70FF902462D4BC3F86C
:10495000D4212C4B01221A70012351E02C48FEF780
:1049600045FD2C492A4803F051F90346002B24D079
:10497000284B1B78002B0AD12748FEF70FFD214B4F
:1049800000221A70224801F0C1FF002338E0214BB9
:104990001B78012B03D01F4B1B780E2B0DD11F480A
:1049A000FEF7FCFC174B0A225A70164B00221A70B5
:1049B000174801F0ABFF002322E0154801F0A6FFE5
:1049C000C821134801F012FF0346002BC6D10D4B3E
:1049D000D3F8D43141F658311846FEF7F3FC0346BC
:1049E000002B07D0074B0A225A70064B00221A7080
:1049F000002305E0012303E0024B00221A7000238C
:104A0000184680BDE411002040E1000854E1000890
:104A1000CC1000209411002074E100088CE1000803
:104A200080B500AF344B1B78002B02D0012B40D057
:104A30005BE03248FEF7B2FC3148FEF79BFCFEF724
:104A400093F802462C4BC3F8D4212B4B01221A7049
:104A500001234EE02B48FEF7C9FC2B49294803F0FF
:104A6000D5F80346002B21D0274B1B78002B0AD109
:104A70002648FEF793FC204B00221A70214801F0D3
:104A800045FF002335E0204B1B78012B03D01E4B44
:104A90001B780E2B0AD11E48FEF780FC164B002215
:104AA0001A70184801F032FF002322E0154801F087
:104AB0002DFFC821134801F099FE0346002BC9D1F0
:104AC0000D4BD3F8D43141F658311846FEF77AFC35
:104AD0000346002B07D00F48FEF760FC064B002270
:104AE0001A70002305E0012303E0034B00221A7033
:104AF0000023184680BD00BFE4110020A8E1000893
:104B0000BCE10008CC10002094110020DCE100087A
:104B1000F4E1000820E20008B0B590B000AF6E4BA1
:104B20001B78032B00F2CF8001A252F823F000BFC4
:104B3000414B0008D74B00080F4C00088F4C000871
:104B40003B46664A1C4615460FCD0FC495E8070044
:104B500084E807006248FEF721FC3B461846FEF752
:104B600009FCFEF701F802465B4BC3F8D4215A4B0F
:104B700001221A700123AAE05A48FEF737FC5A496D
:104B8000584803F043F80346002B21D0564B1B78BE
:104B9000002B0AD15548FEF701FC4F4B02221A7038
:104BA000504801F0B3FE012391E04F4B1B78012BDD
:104BB00003D04D4B1B780E2B0AD14D48FEF7EEFB70
:104BC000454B02221A70474801F0A0FE01237EE007
:104BD000444801F09BFEC821424801F007FE03460D
:104BE000002BC9D13C4BD3F8D43141F6583118468B
:104BF000FEF7E8FB0346002B07D03E48FEF7CEFB4E
:104C0000354B02221A70012361E001235FE03B462D
:104C1000394A1C4615460FCD0FC40FCD0FC42B6863
:104C20001A46228002341B0C23703448FEF7B6FB70
:104C30003B461846FEF79EFBFDF796FF0246264BC5
:104C4000C3F8D421244B03221A7001233FE02548E6
:104C5000FEF7CCFB2449234802F0D8FF0346002B83
:104C600012D0214B1B78002B03D01F4B1B78012B3C
:104C70000AD12348FEF792FB174B00221A701948FD
:104C800001F044FE002322E0164801F03FFEC82157
:104C9000144801F0ABFD0346002BD8D10E4BD3F8DE
:104CA000D43141F288311846FEF78CFB0346002BC5
:104CB00007D01448FEF772FB074B00221A7000233E
:104CC00005E0012303E0044B00221A70002318467C
:104CD0004037BD46B0BD00BFE411002050E20008DF
:104CE0006CE20008CC1000209411002080E2000843
:104CF00098E20008C4E20008F4E2000818E30008A3
:104D000034E3000854E30008B0B590B000AF7E4B28
:104D10001B78042B00F2ED8001A252F823F000BFB3
:104D2000354D00084B4D00086F4D0008554E0008EA
:104D3000C34E0008FDF718FF0246734BC3F8D42199
:104D4000714B01221A700123DAE06F4BD3F8D43192
:104D50004FF4FA711846FEF735FB0346002B04D0DA
:104D6000694B02221A700123CAE00123C8E03B46C6
:104D7000664A1C4615460FCD0FC495E80300206017
:104D8000043421706248FEF709FB3B461846FEF7E3
:104D9000F1FAFDF7E9FE02465B4BC3F8D4215A4B0A
:104DA00003221A700123ABE05A48FEF71FFB5A4951
:104DB000584802F02BFF0346002B48D0564B1B7877
:104DC000002B13D15548FEF7E9FA554B00221A7013
:104DD0004D4B04221A70FDF7C7FE02464A4BC3F83A
:104DE000D4214C4801F092FD012389E04A4B1B7805
:104DF000012B03D0484B1B780E2B28D1484B1B7836
:104E00000133DAB2464B1A70454B1B78012B10D890
:104E10004448FEF7C3FA3C4B00221A70FDF7A4FE8B
:104E20000246394BC3F8D4213A4801F06FFD012303
:104E300066E03D48FEF7B2FA394B00221A70324B59
:104E400000221A70334801F061FD002358E0314818
:104E500001F05CFDC8212F4801F0C8FC0346002B7F
:104E6000A2D1294BD3F8D43141F658311846FEF778
:104E7000A9FA0346002B22D0294B1B780133DAB262
:104E8000274B1A70264B1B78012B0DD82748FEF7AD
:104E900085FA1D4B00221A70FDF766FE02461A4B7A
:104EA000C3F8D42101232BE02148FEF777FA1C4BED
:104EB00000221A70144B00221A70002320E00123F4
:104EC0001EE0114BD3F8D4314FF4FA611846FEF7C7
:104ED00079FA0346002B0AD01648FEF75FFA104B0A
:104EE00000221A70084B00221A70002308E00123E8
:104EF00006E00B4B00221A70034B00221A700023AD
:104F000018464037BD46B0BDE41100208CE30008D0
:104F1000A4E30008CC10002094110020B8E300089E
:104F2000A40A0020D0E30008F4E3000820E400080D
:104F300048E4000878E4000880B5ADF5AE6D04AF34
:104F4000C04B1B78032B00F2F38101A252F823F02F
:104F5000614F0008774F00089B4F0008C1520008BE
:104F6000FDF702FE0246B74BC3F8D421B54B012230
:104F70001A700123E0E1B34BD3F8D43141F2883108
:104F80001846FEF71FFA0346002B04D0AD4B022251
:104F90001A700123D0E10123CEE13B467F22AA49CA
:104FA000184603F04DFB3B46002283F87F203B462A
:104FB0003A21184603F024FBC7F85C05D7F85C35A6
:104FC000002B03D0D7F85C3500221A709F48FBF7FE
:104FD000C9F8034607F1800001939C4B00939C4B5A
:104FE0009C4A802103F0ACFA07F180031846FEF7D3
:104FF000D5F93B4607F5E470974A4FF4807103F00A
:105000009FFA07F5E4731846FEF7C8F98D4BB3F81D
:10501000823042F2B32293420CD18A4BB3F88230F1
:105020001A463B4607F5807000928C4AC82103F06F
:1050300087FA0BE0834BB3F882301A463B4607F5FC
:1050400080700092854AC82103F07AFA7D4BB3F84C
:105050004431194607F5807207F532707B4B039394
:105060007B4B029301230193009113467C4A4FF43A
:10507000967103F065FAC7F8580507F57D7007F5D6
:1050800032730093D7F85835764A4FF4AF7103F076
:1050900057FA07F57D731846FEF780F97248FEF758
:1050A0007DF907F532731846FEF764F9FDF75CFDEC
:1050B0000246644BC3F8D421624B03221A700123C9
:1050C0003AE16A48FEF792F96949684803F0CDFA77
:1050D0000346002B03D0654801F018FCF0E0654959
:1050E000624802F093FD0346002B00F0E680614B1E
:1050F0001B780F2B55D15F4B9B68C7F85435D7F8F9
:105100005435002B16D15C48FEF748F95B4B002262
:105110001A704C4B012283F8DC214A4B09225A7049
:10512000484B00221A70FEF7E3F9504801F0EEFBFD
:10513000002301E107F57D70D7F85435504A8021EE
:1051400003F0FEF907F57D731846FEF727F9D7F847
:105150005435202B17D1494B1B78012B13D8474BC3
:105160001B780133DAB2454B1A704648FEF716F940
:10517000344B00225A70334B00221A703B4801F026
:10518000C5FB0023D8E03D4B00221A702D4B0A22AC
:105190005A702C4B00221A70344801F0B7FB0023E0
:1051A000CAE0344B1B78002B06D13748FEF7F6F8DF
:1051B0002E4801F0ABFB83E02E4B1B78012B03D074
:1051C0002C4B1B780E2B78D12A4B1B780E2B10D131
:1051D000284B9B68002B0CD0264B9A6807F57D70F6
:1051E000224B00931346294A4FF4807103F0A8F92B
:1051F00007E007F57D701D4B254A4FF4807103F0E1
:105200009FF907F57D731846FEF7C8F81B4B1B780E
:10521000012B41D8194B1B780133DAB2174B1A70A6
:105220001C48FEF7BBF8FDF79FFC0246054BC3F890
:10523000D421044B00221A700C4801F067FB0123B3
:105240007AE000BFE4110020E6110020E8120020FF
:10525000A81200209CE40008D4E4000800E500083F
:105260000CE5000838E500085CE50008CC100020DB
:1052700070E500089411002080E50008A50A0020D0
:10528000A4E50008C8E50008FCE5000840E60008C1
:1052900070E6000890E600082A48FEF77FF82A4BDF
:1052A00000221A70294B0A225A70284B00221A70C9
:1052B000274801F02BFB00233EE0254801F026FBA8
:1052C000C821234801F092FA0346002B7FF4F9AE7F
:1052D0001E4BD3F8D4314EF660211846FEF772F813
:1052E0000346002B22D0184B1B78012B10D8164BED
:1052F0001B780133DAB2144B1A701648FEF74EF8D9
:10530000124B00225A70114B00221A70002313E036
:105310001148FEF743F80C4B00221A700B4B0A227F
:105320005A700A4B00221A70002305E0012303E0A3
:10533000064B00221A700023184607F5AC67BD46DD
:1053400080BD00BFC0E60008A50A0020E4110020CF
:10535000CC100020F0E6000818E7000880B5A2B0E5
:1053600000AF6E4B1B78002B02D0012B1FD0CDE07D
:105370006B48FAF7F7FE0346A7F88630B7F8863091
:105380003846684A802103F0DBF86748FEF706F8E4
:105390003B461846FDF7EEFFFDF7E6FB02465F4B86
:1053A000C3F8D4215D4B01221A700123B2E05F4B98
:1053B0001B7883F00103DBB2002B00F085805C4892
:1053C000FDF7ECFF5648FDF7D5FF5A48FDF7D2FF31
:1053D000564B01221A70FDF7C7FB02464F4BC3F82C
:1053E000D421012396E05448FEF700F8534952486F
:1053F00002F00CFC0346002B63D0504B1B78102BA3
:1054000031D14E4B9B68C7F88030D7F88030002BE5
:1054100010D14B48FDF7C2FF404B09225A703F4B59
:1054200000221A70414B00221A70434801F06EFAB4
:1054300000236FE03846D7F88030424A802103F0DD
:105440007FF83B461846FDF7A9FF344B0A225A70F5
:10545000324B00221A70354B00221A70364801F088
:1054600055FA002356E0354B1B78002B10D13648F7
:10547000FDF794FF294B09225A70284B00221A701D
:105480002A4B00221A702C4801F040FA002341E018
:105490002A4B1B78012B03D0284B1B780E2B10D1E5
:1054A0002A48FDF77BFF1D4B0A225A701B4B002236
:1054B0001A701E4B00221A701F4801F027FA0023B1
:1054C00028E01D4801F022FAC8211B4801F08EF99E
:1054D0000346002B87D1114BD3F8D43141F28831E8
:1054E0001846FDF76FFF0346002B0DD01848FDF757
:1054F00055FF0A4B0A225A70084B00221A700B4BB8
:1055000000221A70002305E0012303E0034B002270
:105510001A70002318468837BD4680BDE41100206C
:105520002C1300203CE7000854E70008A60A0020DE
:1055300064E700087CE70008CC10002094110020EC
:1055400080E70008A0E70008C0E70008DCE70008E3
:10555000F4E70008B0B5CAB000AFB74B5A78B74B04
:105560001B789A4208D0FDF7FFFA0246B44B1A6046
:10557000B14B5A78B14B1A7043F69823C7F82431CF
:10558000AD4B5B78072B03D14EF66023C7F824316F
:10559000A94B5B78092B07D1A74B93F8DC3183F03B
:1055A0000103DBB2002B1CD0FDF7DEFA0246A44B50
:1055B0001B68D21AD7F824319A4212D99E4B002286
:1055C0005A709D4B00221A70FDF7CEFA02469C4B92
:1055D0001A609A4B00221A70FDF7C6FA0246994BE0
:1055E0001A60984B1B68002B09D0FDF7BDFA0246E4
:1055F000944B1B68D31AB3F5FA6FC0F01882914B25
:1056000000221A608C4B5B780A2B00F2008201A208
:1056100052F823F04156000871560008A1560008C0
:105620002957000859570008F956000889570008FB
:10563000B9570008075800084D580008BF5900081E
:10564000FEF7F6FE034683F00103DBB2002B00F009
:10565000F081794B01225A70774B00221A70FDF7C6
:1056600083FA0246764B1A60744B01221A70E0E10D
:10567000FEF7D8FF034683F00103DBB2002B00F0F6
:10568000DA816D4B02225A706B4B00221A70FDF7C3
:105690006BFA02466A4B1A60684B02221A70CAE122
:1056A000FFF758F8034683F00103DBB2002B00F04C
:1056B000C481614BB3F8823042F2B32293420CBFF3
:1056C0000123002387F81F3197F81F31002B03D0E7
:1056D000594B05225A7002E0574B07225A70564B1D
:1056E00000221A70FDF740FA0246554B1A60524BE1
:1056F0005A78524B1A70A0E1FFF70EFA034683F076
:105700000103DBB2002B00F09A814B4B03225A704D
:10571000494B00221A70FDF727FA0246484B1A60DF
:10572000464B03221A708AE1FFF7FEF8034683F026
:105730000103DBB2002B00F084813F4B04225A703E
:105740003D4B00221A70FDF70FFA02463C4B1A60DF
:105750003A4B04221A7074E1FFF762F9034683F0B2
:105760000103DBB2002B00F06E81334B06225A702E
:10577000314B00221A70FDF7F7F90246304B1A60E0
:105780002E4B06221A705EE1FFF7BEFA034683F045
:105790000103DBB2002B00F05881274B07225A701F
:1057A000254B00221A70FDF7DFF90246244B1A60E0
:1057B000224B07221A7048E1FFF7BEFB034683F035
:1057C0000103DBB2002B00F042811B4B93F8DC316C
:1057D000002B00F03C811C4B1B78002B03D0164B98
:1057E00008225A7002E0144B09225A70124B002210
:1057F0001A70FDF7B9F90246114B1A600E4B5A7830
:105800000E4B1A7023E1FFF7A9FD034683F0010355
:10581000DBB2002B00F01D81074B09225A70064BAA
:1058200000221A70FDF7A0F90246054B1A60034BDF
:1058300009221A700DE100BFE4110020A70A002020
:10584000A80A0020AC0A00202C130020844B93F8F7
:10585000DC3183F00103DBB2002B0ED0804B002241
:105860005A707F4B00221A70FDF77EF902467D4B7D
:105870001A607D4B00221A70EEE0794BB3F8443188
:10588000002B08D0764BB3F844311A464FF4FA7324
:1058900003FB02F301E047F23053C7F82031D7F899
:1058A000203147F22F52934203D847F23053C7F8C2
:1058B00020316E4B1B78002B38D02EE03A1D07F1BB
:1058C00054031146184602F0A1F90346002B1FD0DD
:1058D0003B1D1B78002B0BD16548FDF75FFD634B2B
:1058E00000221A7007F15403184601F00FF81DE06A
:1058F0003B1D1B78012B0BD15E48FDF74FFD5B4B29
:1059000000221A7007F15403184600F0FFFF0DE063
:1059100007F15403184600F0F9FF07F15403C821BA
:10592000184600F063FF0346002BC7D14F4B1B788E
:1059300083F00103DBB2002B26D04F4B1B68002BFA
:1059400009D0FDF711F902464B4B1B68D21AD7F864
:1059500020319A4218D907F15403484A1C4615468B
:105960000FCD0FC42B68237007F154031846FDF7C1
:1059700001FDFDF7F9F802463F4B1A603B4B01224F
:105980001A703F48FDF70AFDFDF7C2FD034683F09C
:105990000103DBB2002B0DD005E03A48FDF726FDF0
:1059A0003848FEF759FBC821364800F01FFF034670
:1059B000002BF2D1FEF742FAFEF7C6FA4CE0324B6A
:1059C0001B68002B04D1FDF7CFF802462E4B1A605E
:1059D000FDF7CAF802462C4B1B68D31A40F6B832C2
:1059E000934238D92948FDF7D9FC1D4B09225A703A
:1059F0001B4B00221A70FDF7B7F80246194B1A60CC
:105A0000194B09221A70204B00221A6023E0144B14
:105A100000225A70124B00221A70FDF7A5F80246B8
:105A2000104B1A60104B00221A7000BF14E000BF28
:105A300012E000BF10E000BF0EE000BF0CE000BFAE
:105A40000AE000BF08E000BF06E000BF04E000BFBE
:105A500002E000BF00E000BF07F59477BD46B0BD8F
:105A6000E4110020A80A0020A70A0020B00A0020A4
:105A70000CE8000820E80008B40A002040E800080C
:105A800054E80008CC100020B80A00206CE8000898
:105A900080B5A8B000AFF860B9607A603B60FB6881
:105AA000002B09D07F22F9687C4802F0C9FD7C4BAD
:105AB000002283F8812008E07F227A49774802F0AB
:105AC000BFFD774B002283F88120744BC7F89830D4
:105AD0007549D7F8980002F0C8FDC7F89C00D7F8C0
