:020000040800F2
:1000000000500020E5190008371A0008431A0008BC
:10001000491A00084F1A0008551A0008000000008D
:100020000000000000000000000000005B1A000853
:10003000671A000800000000731A00087F1A000801
:10004000351A0008351A0008351A0008351A000854
:10005000351A0008351A0008351A0008351A000844
:10006000351A0008351A0008351A0008351A000834
:10007000351A0008351A0008351A0008351A000824
:10008000351A0008351A0008351A0008351A000814
:10009000351A0008351A0008351A0008351A000804
:1000A000351A0008351A0008351A0008351A0008F4
:1000B000351A0008351A0008351A0008351A0008E4
:1000C000351A0008351A0008351A0008351A0008D4
:1000D000351A00088D1A0008C11A0008351A0008E0
:1000E000351A0008351A0008351A0008000000000B
:1000F0000000000000000000000000000000000000
:0C01000000000000000000005FF808F1A3
:1001100010B5054C237833B9044B13B10448AFF341
:1001200000800123237010BD98060020000000000D
:10013000D4DA000808B5034B1BB103490348AFF3F9
:10014000008008BD000000009C060020D4DA0008F2
:1001500010F8012B11F8013B012A28BF9A42F7D071
:10016000D01A7047034613F8012B002AFBD1181A46
:100170000138704781F0004102E000BF83F0004386
:1001800030B54FEA41044FEA430594EA050F08BF32
:1001900090EA020F1FBF54EA000C55EA020C7FEAF6
:1001A000645C7FEA655C00F0E2804FEA5454D4EB73
:1001B0005555B8BF6D420CDD2C4480EA020281EA3D
:1001C000030382EA000083EA010180EA020281EA75
:1001D0000303362D88BF30BD11F0004F4FEA0131C7
:1001E0004FF4801C4CEA113102D0404261EB4101D6
:1001F00013F0004F4FEA03334CEA133302D052425C
:1002000063EB430394EA050F00F0A780A4F1010417
:10021000D5F1200E0DDB02FA0EFC22FA05F2801851
:1002200041F1000103FA0EF2801843FA05F3594137
:100230000EE0A5F120050EF1200E012A03FA0EFCB6
:1002400028BF4CF0020C43FA05F3C01851EBE371E0
:1002500001F0004507D54FF0000EDCF1000C7EEBFD
:1002600000006EEB0101B1F5801F1BD3B1F5001F3B
:100270000CD349085FEA30004FEA3C0C04F101045A
:100280004FEA445212F5800F80F09A80BCF1004F83
:1002900008BF5FEA500C50F1000041EB045141EA05
:1002A000050130BD5FEA4C0C404141EB010111F406
:1002B000801FA4F10104E9D191F0000F04BF0146B1
:1002C0000020B1FA81F308BF2033A3F10B03B3F18F
:1002D00020020CDA0C3208DD02F1140CC2F10C021F
:1002E00001FA0CF021FA02F10CE002F11402D8BF7D
:1002F000C2F1200C01FA02F120FA0CFCDCBF41EA49
:100300000C019040E41AA2BF01EB0451294330BD17
:100310006FEA04041F3C1CDA0C340EDC04F11404F4
:10032000C4F1200220FA04F001FA02F340EA0300CB
:1003300021FA04F345EA030130BDC4F10C04C4F111
:10034000200220FA02F001FA04F340EA03002946F1
:1003500030BD21FA04F0294630BD94F0000F83F43B
:10036000801306BF81F480110134013D4EE77FEA1E
:10037000645C18BF7FEA655C29D094EA050F08BF6A
:1003800090EA020F05D054EA000C04BF194610464B
:1003900030BD91EA030F1EBF0021002030BD5FEA8F
:1003A000545C05D14000494128BF41F0004130BDB7
:1003B00014F580043CBF01F5801130BD01F000450B
:1003C00045F0FE4141F470014FF0000030BD7FEA7E
:1003D000645C1ABF194610467FEA655C1CBF0B4679
:1003E000024650EA013406BF52EA033591EA030F90
:1003F00041F4002130BD00BF90F0000F04BF002188
:10040000704730B54FF4806404F132044FF00005BA
:100410004FF0000150E700BF90F0000F04BF002133
:10042000704730B54FF4806404F1320410F0004599
:1004300048BF40424FF000013EE700BF42004FEA94
:10044000E2014FEA31014FEA02701FBF12F07F4311
:1004500093F07F4F81F06051704792F0000F14BF0E
:1004600093F07F4F704730B54FF4607401F0004552
:1004700021F0004120E700BF50EA010208BF7047A9
:1004800030B54FF000050AE050EA010208BF70479E
:1004900030B511F0004502D5404261EB41014FF407
:1004A000806404F132045FEA915C3FF4DCAE4FF00B
:1004B00003025FEADC0C18BF03325FEADC0C18BFF2
:1004C000033202EBDC02C2F1200300FA03FC20FA43
:1004D00002F001FA03FE40EA0E0021FA02F1144490
:1004E000C1E600BF70B54FF0FF0C4CF4E06C1CEAA5
:1004F00011541DBF1CEA135594EA0C0F95EA0C0F1A
:1005000000F0DEF82C4481EA030621EA4C5123EA8C
:100510004C5350EA013518BF52EA033541F48011BB
:1005200043F4801338D0A0FB02CE4FF00005E1FB6E
:1005300002E506F00042E0FB03E54FF00006E1FBB8
:1005400003569CF0000F18BF4EF0010EA4F1FF04FB
:10055000B6F5007F64F5407404D25FEA4E0E6D413B
:1005600046EB060642EAC62141EA55514FEAC5204C
:1005700040EA5E504FEACE2EB4F1FD0C88BFBCF5C8
:10058000E06F1ED8BEF1004F08BF5FEA500E50F179
:10059000000041EB045170BD06F0004646EA01013F
:1005A00040EA020081EA0301B4EB5C04C2BFD4EB71
:1005B0000C0541EA045170BD41F480114FF0000E6A
:1005C000013C00F3AB8014F1360FDEBF002001F0D8
:1005D000004170BDC4F10004203C35DA0C341BDC52
:1005E00004F11404C4F1200500FA05F320FA04F024
:1005F00001FA05F240EA020001F0004221F0004158
:1006000010EBD37021FA04F642EB06015EEA430ECA
:1006100008BF20EAD37070BDC4F10C04C4F12005FA
:1006200000FA04F320FA05F001FA04F240EA0200AD
:1006300001F0004110EBD37041F100015EEA430E7E
:1006400008BF20EAD37070BDC4F1200500FA05F29E
:100650004EEA020E20FA04F301FA05F243EA02031D
:1006600021FA04F001F0004121FA04F220EA02002C
:1006700000EBD3705EEA430E08BF20EAD37070BD72
:1006800094F0000F0FD101F00046400041EB010152
:1006900011F4801F08BF013CF7D041EA060195F034
:1006A000000F18BF704703F00046520043EB0303EE
:1006B00013F4801F08BF013DF7D043EA06037047DB
:1006C00094EA0C0F0CEA135518BF95EA0C0F0CD0E6
:1006D00050EA410618BF52EA4306D1D181EA03012C
:1006E00001F000414FF0000070BD50EA410606BF26
:1006F0001046194652EA430619D094EA0C0F02D16B
:1007000050EA013613D195EA0C0F05D152EA0336AF
:100710001CBF104619460AD181EA030101F00041CD
:1007200041F0FE4141F470014FF0000070BD41F016
:10073000FE4141F4780170BD70B54FF0FF0C4CF4F0
:10074000E06C1CEA11541DBF1CEA135594EA0C0F0F
:1007500095EA0C0F00F0A7F8A4EB050481EA030E5C
:1007600052EA03354FEA013100F088804FEA033343
:100770004FF0805545EA131343EA12634FEA022211
:1007800045EA111545EA10654FEA00260EF00041D2
:100790009D4208BF964244F1FD0404F5407402D224
:1007A0005B084FEA3202B61A65EB03055B084FEAB5
:1007B00032024FF480104FF4002CB6EB020E75EBB2
:1007C000030E22BFB61A754640EA0C005B084FEADA
:1007D0003202B6EB020E75EB030E22BFB61A754657
:1007E00040EA5C005B084FEA3202B6EB020E75EBA2
:1007F000030E22BFB61A754640EA9C005B084FEA1A
:100800003202B6EB020E75EB030E22BFB61A754626
:1008100040EADC0055EA060E18D04FEA051545EA15
:1008200016754FEA06164FEAC30343EA52734FEABE
:10083000C2025FEA1C1CC0D111F4801F0BD141EA37
:1008400000014FF000004FF0004CB6E711F4801F9C
:1008500004BF01430020B4F1FD0C88BFBCF5E06F7C
:100860003FF6AFAEB5EB030C04BFB6EB020C5FEA8C
:10087000500C50F1000041EB045170BD0EF0004EE1
:100880004EEA113114EB5C04C2BFD4EB0C0541EA13
:10089000045170BD41F480114FF0000E013C90E610
:1008A00045EA060E8DE60CEA135594EA0C0F08BFD4
:1008B00095EA0C0F3FF43BAF94EA0C0F0AD150EAD3
:1008C00001347FF434AF95EA0C0F7FF425AF104666
:1008D00019462CE795EA0C0F06D152EA03353FF48E
:1008E000FDAE1046194622E750EA410618BF52EA0B
:1008F00043067FF4C5AE50EA41047FF40DAF52EADF
:1009000043057FF4EBAE12E74FF0FF3C06E000BF7B
:100910004FF0010C02E000BF4FF0010C4DF804CD88
:100920004FEA410C7FEA6C5C4FEA430C18BF7FEA48
:100930006C5C1BD001B050EA410C0CBF52EA430C76
:1009400091EA030F02BF90EA020F0020704710F1F6
:10095000000F91EA030F58BF994208BF90422CBF85
:10096000D8176FEAE37040F0010070474FEA410C7E
:100970007FEA6C5C02D150EA013C07D14FEA430C9C
:100980007FEA6C5CD6D152EA033CD3D05DF8040B0D
:10099000704700BF8446104662468C46194663463F
:1009A00000E000BF01B5FFF7B7FF002848BF10F116
:1009B000000F01BD4DF808EDFFF7F4FF0CBF01205B
:1009C00000205DF808FB00BF4DF808EDFFF7EAFFD7
:1009D00034BF012000205DF808FB00BF4DF808ED92
:1009E000FFF7E0FF94BF012000205DF808FB00BF87
:1009F0004DF808EDFFF7CEFF94BF012000205DF811
:100A000008FB00BF4DF808EDFFF7C4FF34BF01201D
:100A100000205DF808FB00BF4FEA410C7FEA6C5CE8
:100A200002D150EA013C0AD14FEA430C7FEA6C5CE8
:100A300002D152EA033C02D14FF0000070474FF060
:100A4000010070474FEA410212F5001215D211D58C
:100A50006FF47873B3EB625212D94FEAC12343F0BB
:100A6000004343EA505311F0004F23FA02F018BF3D
:100A7000404270474FF00000704750EA013005D106
:100A800011F0004008BF6FF0004070474FF00000C9
:100A9000704700BF4A0011D212F5001211D20DD5D5
:100AA0006FF47873B3EB62520ED44FEAC12343F074
:100AB000004343EA505323FA02F070474FF000001E
:100AC000704750EA013002D14FF0FF3070474FF0CD
:100AD000000070474FEA4102B2F1E04324BFB3F592
:100AE000001CDCF1FE5C0DD901F0004C4FEAC002A5
:100AF0004CEA5070B2F1004F40EB830008BF20F089
:100B00000100704711F0804F21D113F13872BCBF42
:100B100001F00040704741F480114FEA5252C2F197
:100B20001802C2F1200C10FA0CF320FA02F018BFE0
:100B300040F001004FEAC1234FEAD32303FA0CFC33
:100B400040EA0C0023FA02F34FEA4303CCE77FEAC2
:100B5000625307D150EA01331EBF4FF0FE4040F40C
:100B60004000704701F0004040F0FE4040F40000BB
:100B7000704700BF53B94AB9002908BF00281CBFFD
:100B80004FF0FF314FF0FF3000F07AB9ADF1080CB3
:100B90006DE904CE00F006F8DDF804E0DDE902239B
:100BA00004B070472DE9F0478C460E460446089D78
:100BB000002B50D18A4217466CD9B2FA82FEBEF1A0
:100BC000000F0BD0CEF1200C01FA0EF620FA0CFC2F
:100BD00002FA0EF74CEA060C00FA0EF43A0CBCFBD3
:100BE000F2F9BBB202FB19CC09FB03FA4FEA144835
:100BF00048EA0C46B2450AD9F61909F1FF3180F0EE
:100C00002581B24540F22281A9F102093E44A6EBBA
:100C10000A06B6FBF2F002FB106600FB03F3A4B277
:100C200044EA0644A34209D9E41900F1FF3280F0F6
:100C30000B81A34240F2088102383C440021E41AAF
:100C400040EA0940002D62D0002324FA0EF42C6003
:100C50006B60BDE8F0878B4207D9002D55D000218D
:100C600085E841000846BDE8F087B3FA83F1002922
:100C700040F08F80B34202D3824200F2FC80841A9B
:100C800066EB03060120B446002D40D085E8101025
:100C9000BDE8F08712B90127B7FBF2F7B7FA87FE74
:100CA000BEF1000F35D10121F61B4FEA174C1FFA98
:100CB00087F8B6FBFCF20CFB126608FB02F0230C73
:100CC00043EA0646B04207D9F61902F1FF3302D2D1
:100CD000B04200F2D2801A46361AB6FBFCF00CFB8A
:100CE000106608FB00F8A3B243EA0644A04507D902
:100CF000E41900F1FF3302D2A04500F2B980184692
:100D0000A4EB080440EA02409CE729462846BDE8D7
:100D1000F08707FA0EF7CEF1200326FA03F24FEA26
:100D2000174CB2FBFCF11FFA87F80CFB112206FAF4
:100D30000EF620FA03F301FB08F933431E0C46EAD2
:100D40000246B14500FA0EF409D9F61901F1FF3255
:100D500080F08C80B14540F2898002393E44A6EB98
:100D60000906B6FBFCF00CFB106200FB08F99EB212
:100D700046EA0246B14507D9F61900F1FF3371D2B0
:100D8000B1456FD902383E44A6EB090640EA01415D
:100D90008FE7C1F1200722FA07F88B4048EA0303E6
:100DA00026FA07F44FEA134EB4FBFEF91FFA83FC50
:100DB0000EFB19448E4020FA07F809FB0CFA48EAAA
:100DC00006084FEA184646EA0444A24502FA01F230
:100DD00000FA01F608D9E41809F1FF3044D2A2451F
:100DE00042D9A9F102091C44A4EB0A04B4FBFEF0A9
:100DF0000EFB104400FB0CFC1FFA88F848EA044480
:100E0000A44507D9E41800F1FF3E29D2A44527D90B
:100E100002381C4440EA0940A0FB0289A4EB0C0CF8
:100E2000CC45C246CE4615D312D055B1B6EB0A0317
:100E30006CEB0E0606FA07F7CB401F43CE402F603F
:100E40006E600021BDE8F0871046F7E68946DEE6D1
:100E50004645EAD2B8EB020A69EB030E0138E4E733
:100E60007046D7E718468FE78146BDE7114676E71B
:100E700002383C4444E7084606E7023A3E442BE782
:100E8000704700BF80B483B000AF78607B68042BEC
:100E900006D1094A084B1B6843F00403136005E0C0
:100EA000054A054B1B6823F00403136000BF0C3791
:100EB000BD4680BC704700BF10E000E080B485B044
:100EC00000AF78600023FB60094B1B68FB60FB6888
:100ED00003F03803FB60FA687B681343FB60044A45
:100EE000FB68136000BF1437BD4680BC704700BF6D
:100EF0000020024080B483B000AF7860084A084BFD
:100F00001B6823F0100313600549054B1A687B68C2
:100F100013430B6000BF0C37BD4680BC704700BF59
:100F20000020024080B489B000AF786039600023AF
:100F3000FB6100233B610023BB610023FB600023B6
:100F40007B610023BB603B68DB7803F00F03FB6130
:100F50003B68DB7803F01003002B05D03B689B78DF
:100F60001A46FB691343FB613B681B88DBB2002B0D
:100F700044D07B681B687B610023BB6138E00122A1
:100F8000BB6902FA03F3FB603B681B881A46FB68E7
:100F900013403B613A69FB689A4226D1BB699B00CA
:100FA000FB600F22FB6802FA03F3BB60BB68DB4304
:100FB0007A6913407B61FA69FB6802FA03F37A6984
:100FC00013437B613B68DB78282B05D10122BB6989
:100FD0009A407B685A6108E03B68DB78482B04D173
:100FE0000122BB699A407B681A61BB690133BB610E
:100FF000BB69072BC3D97B687A691A603B681B8879
:10100000FF2B46D97B685B687B610023BB613AE0BC
:10101000BB690833012202FA03F3FB603B681B88BB
:101020001A46FB6813403B613A69FB689A4227D134
:10103000BB699B00FB600F22FB6802FA03F3BB60F5
:10104000BB68DB437A6913407B61FA69FB6802FA8B
:1010500003F37A6913437B613B68DB78282B05D166
:10106000BB69083301229A407B685A613B68DB7890
:10107000482B05D1BB69083301229A407B681A616D
:10108000BB690133BB61BB69072BC1D97B687A6936
:101090005A6000BF2437BD4680BC704780B483B01F
:1010A00000AF78600B467B807A887B681A6100BF4E
:1010B0000C37BD4680BC704780B483B000AF786009
:1010C0000B467B807A887B685A6100BF0C37BD462F
:1010D00080BC704780B483B000AF7860134A134B74
:1010E0001B6823F480331360104A104B1B6823F4F1
:1010F000802313607B68B3F5803F03D0B3F5802F66
:1011000007D00DE0094A094B1B6843F48033136094
:1011100006E0064A054B1B6843F4A023136000BF9A
:1011200000BF0C37BD4680BC704700BF00100240B6
:1011300080B582B000AF00233B600023FB71002329
:10114000BB71312000F0B4F90346BB713B68013339
:101150003B603B68B3F5A06F02D0BB79002BF0D0A9
:10116000312000F0A5F90346002B02D00123FB71CA
:1011700001E00023FB71FB7918460837BD4680BDAE
:1011800080B485B000AF786039600023FB600A4B03
:101190005B68FB60FB6823F47C13FB607A683B6848
:1011A0001343FA681343FB60034AFB68536000BFB4
:1011B0001437BD4680BC70470010024080B483B035
:1011C00000AF0346FB71044AFB79136000BF0C3784
:1011D000BD4680BC704700BF6000424280B485B00D
:1011E00000AF78600023FB60094B5B68FB60FB6825
:1011F00023F00303FB60FA687B681343FB60044A37
:10120000FB68536000BF1437BD4680BC704700BF09
:101210000010024080B400AF044B5B68DBB203F007
:101220000C03DBB21846BD4680BC7047001002407C
:1012300080B485B000AF78600023FB60094B5B6829
:10124000FB60FB6823F0F003FB60FA687B681343E4
:10125000FB60044AFB68536000BF1437BD4680BC86
:10126000704700BF0010024080B485B000AF7860C6
:101270000023FB60094B5B68FB60FB6823F4E063C1
:10128000FB60FA687B681343FB60044AFB685360A9
:1012900000BF1437BD4680BC704700BF001002403D
:1012A00080B485B000AF78600023FB60094B5B68B9
:1012B000FB60FB6823F46053FB607B68DB00FA682B
:1012C0001343FB60034AFB68536000BF1437BD46FD
:1012D00080BC70470010024080B487B000AF7860D7
:1012E00000237B6100233B610023FB600023BB6084
:1012F0004C4B5B6803F00C037B617B69042B07D0CC
:10130000082B09D0002B33D17B68474A1A6033E0A1
:101310007B68454A1A602FE0424B5B6803F4701308
:101320003B61404B5B6803F48033FB603B699B0C83
:1013300002333B61FB68002B06D13B693B4A02FB51
:1013400003F27B681A6017E0364B5B6803F40033E6
:10135000002B06D03B69354A02FB03F27B681A601A
:101360000AE03B69304A02FB03F27B681A6003E043
:101370007B682D4A1A6000BF2A4B5B6803F0F003BC
:101380007B617B691B097B61294A7B6913441B785C
:10139000DBB2BB607B681A68BB68DA407B685A6066
:1013A000204B5B6803F4E0637B617B691B0A7B6114
:1013B0001F4A7B6913441B78DBB2BB607B685A68A9
:1013C000BB68DA407B689A60164B5B6803F4605335
:1013D0007B617B69DB0A7B61154A7B6913441B785F
:1013E000DBB2BB607B685A68BB68DA407B68DA6056
:1013F0000C4B5B6803F440437B617B699B0B7B6117
:101400000C4A7B6913441B78DBB2BB607B68DA68EB
:10141000BB68B2FBF3F27B681A6100BF1C37BD46A4
:1014200080BC70470010024000127A0000093D00A5
:10143000000000201000002080B483B000AF78606E
:101440000B46FB70FB78002B06D00949084B9A69C4
:101450007B6813438B6106E00549054B9A697B68FD
:10146000DB4313408B6100BF0C37BD4680BC704727
:101470000010024080B483B000AF78600B46FB7070
:10148000FB78002B06D00949084BDA697B681343C7
:10149000CB6106E00549054BDA697B68DB43134005
:1014A000CB6100BF0C37BD4680BC704700100240C6
:1014B00080B487B000AF0346FB710023FB600023BC
:1014C0007B610023FB74FB795B09DBB2FB60FB688B
:1014D000012B03D1124B1B687B6109E0FB68022BD7
:1014E00003D10F4B1B6A7B6102E00D4B5B6A7B6192
:1014F000FB7903F01F03FB607A69FB6822FA03F3B0
:1015000003F00103002B02D00123FB7401E0002350
:10151000FB74FB7C18461C37BD4680BC704700BF7F
:101520000010024080B485B000AF786039600023BD
:10153000FB817B681B88FB81FB8903F44153FB81A2
:101540003B681A883B685B8813439AB23B689B8868
:1015500013439AB23B68DB8813439AB23B681B89FA
:1015600013439AB23B685B8913439AB23B689B89E9
:1015700013439AB23B68DB8913439AB2FB89134346
:10158000FB817B68FA891A807B689B8B9BB223F472
:1015900000639AB27B689A833B681A8A7B681A82D6
:1015A00000BF1437BD4680BC704780B483B000AF25
:1015B00078600B46FB70FB78002B08D07B681B889B
:1015C0009BB243F040039AB27B681A8007E07B68C5
:1015D0001B889BB223F040039AB27B681A8000BF3D
:1015E0000C37BD4680BC704780B483B000AF7860D4
:1015F0000B467B807B687A889A8100BF0C37BD469A
:1016000080BC704780B483B000AF78607B689B89F2
:101610009BB218460C37BD4680BC704780B485B07D
:1016200000AF78600B467B800023FB737B681B89CF
:101630009AB27B8813409BB2002B02D00123FB732C
:1016400001E00023FB73FB7B18461437BD4680BCCA
:101650007047000080B58CB000AF7860396000231F
:10166000FB620023BB6200237B6200233B620023FA
:10167000FB617B68FB617B681B8A9BB2FB62FA6A39
:101680004CF6FF731340FB623B68DB881A46FB6A2B
:101690001343FB62FB6A9AB27B681A827B689B8960
:1016A0009BB2FB62FA6A4EF6F3131340FB623B688F
:1016B0009A883B681B8913439AB23B685B89134342
:1016C0009BB21A46FB6A1343FB62FB6A9AB27B68C1
:1016D0009A817B689B8A9BB2FB62FA6A4FF6FF4352
:1016E0001340FB623B689B891A46FB6A1343FB620B
:1016F000FB6A9AB27B689A8207F108031846FFF7E3
:10170000EBFDFB692E4A934202D17B69BB6201E08B
:101710003B69BB627B689B899BB21BB2002B0CDAD6
:10172000BA6A13469B0013449A001A443B681B682C
:101730005B00B2FBF3F37B620BE0BA6A13469B00DB
:1017400013449A001A443B681B689B00B2FBF3F3F6
:101750007B627B6A1B4AA2FB03235B091B01FB62C2
:10176000FB6A1B09642202FB03F37A6AD31A3B6209
:101770007B689B899BB21BB2002B0CDA3B6ADB00B7
:101780003233104AA2FB03235B0903F00703FA6A12
:101790001343FB620BE03B6A1B013233094AA2FB95
:1017A00003235B0903F00F03FA6A1343FB62FB6A2E
:1017B0009AB27B681A8100BF3037BD4680BD00BF3A
:1017C000003801401F85EB5180B483B000AF7860D2
:1017D0000B46FB70FB78002B08D07B689B899BB283
:1017E00043F400539AB27B689A8107E07B689B8937
:1017F0009BB223F400539AB27B689A8100BF0C37E6
:10180000BD4680BC704780B487B000AF78600B469F
:101810007B8013467B7000233B610023FB60002329
:10182000BB6000237B617B687B617B88DBB25B09EB
:10183000DBB23B617B8803F01F03FB600122FB6886
:1018400002FA03F3BB603B69012B03D17B690C33C4
:101850007B6109E03B69022B03D17B6910337B611B
:1018600002E07B6914337B617B78002B06D07B69B7
:101870007A691168BA680A431A6006E07B697A6976
:101880001168BA68D2430A401A6000BF1C37BD46CF
:1018900080BC704780B483B000AF78600B467B801B
:1018A0007B88C3F308039AB27B689A8000BF0C3729
:1018B000BD4680BC704780B483B000AF78607B6861
:1018C0009B889BB2C3F308039BB218460C37BD46F6
:1018D00080BC704780B485B000AF78600B467B80D9
:1018E0000023FB737B681B889AB27B8813409BB2F2
:1018F000002B02D00123FB7301E00023FB73FB7B71
:1019000018461437BD4680BC704780B487B000AF1E
:1019100078600B467B800023FB6000237B61002303
:10192000BB600023FB747B88DBB25B09DBB2BB606E
:101930007B8803F01F037B6101227B6902FA03F3BA
:101940007B61BB68012B07D17B689B899BB21A46E0
:101950007B6913407B6111E0BB68022B07D17B6878
:101960001B8A9BB21A467B6913407B6106E07B6849
:101970009B8A9BB21A467B6913407B617B881B0A5A
:101980009BB2FB600122FB6802FA03F3FB607B68F9
:101990001B889BB21A46FB681340FB607B69002BD7
:1019A00005D0FB68002B02D00123FB7401E000236B
:1019B000FB74FB7C18461C37BD4680BC704780B565
:1019C00000AF01F0FDF801F039F901F0AFFB01F0D3
:1019D00071FD04F0D7FE01F0DBFE4FF4967001F0CC
:1019E000DBF8F6E7DFF834D0002103E00C4B5B585E
:1019F000435004310B480C4B42189A42F6D30B4A21
:101A000002E0002342F8043B094B9A42F9D300F06C
:101A100071F806F0DDFCFFF7D2FF704700500020A0
:101A20006CF50008000000209806002098060020B1
:101A3000C41A0020FEE780B400AF00BFBD4680BCE2
:101A4000704780B400AFFEE780B400AFFEE780B41B
:101A500000AFFEE780B400AFFEE780B400AF00BF88
:101A6000BD4680BC704780B400AF00BFBD4680BC9F
:101A7000704780B400AF00BFBD4680BC704780B5E2
:101A800000AF01F07BF800BF80BD000080B582B0E0
:101A900000AF40F225510948FFF737FF0346002BFE
:101AA00008D00648FFF707FF0346FB71FB7918468D
:101AB00001F0F8FB00BF0837BD4680BD003801408B
:101AC00080B582B000AF40F225510948FFF71DFFF5
:101AD0000346002B08D00648FFF7EDFE0346FB71D6
:101AE000FB79184601F0CCFB00BF0837BD4680BD2E
:101AF0000044004080B500AF154A154B1B6843F009
:101B0000010313601249124B5A68124B13404B6089
:101B10000F4A0F4B1B6823F0847323F48033136048
:101B20000B4A0B4B1B6823F480231360084A084BB5
:101B30005B6823F4FE035360054B4FF41F029A6069
:101B400000F078F8044B4FF000629A6000BF80BD4F
:101B5000001002400000FFF800ED00E080B485B006
:101B600000AF0023FB600023BB6000237B602C4B95
:101B70005B6803F00C03FB60FB68042B07D0082BA9
:101B800009D0002B33D1274B274A1A6033E0254B6D
:101B9000254A1A602FE0224B5B6803F47013BB6088
:101BA0001F4B5B6803F480337B60BB689B0C023384
:101BB000BB607B68002B06D1BB681C4A02FB03F3A9
:101BC000184A136017E0164B5B6803F40033002BD0
:101BD00006D0BB68154A02FB03F3124A13600AE001
:101BE000BB68114A02FB03F30E4A136003E00D4B7E
:101BF0000D4A1A6000BF0A4B5B681B0903F00F0314
:101C00000B4AD35CDBB2FB60064B1A68FB6822FA16
:101C100003F3044A136000BF1437BD4680BC70470D
:101C2000001002401400002000127A0000093D005C
:101C30001800002080B500AF00F002F800BF80BDA2
:101C400080B483B000AF00237B6000233B603A4A3E
:101C5000394B1B6843F480331360374B1B6803F424
:101C600000333B607B6801337B603B68002B03D112
:101C70007B68B3F5A06FF0D12F4B1B6803F40033E2
:101C8000002B02D001233B6001E000233B603B6856
:101C9000012B4BD1294A294B1B6843F010031360D9
:101CA000264A264B1B6823F003031360234A234B69
:101CB0001B6843F0020313601F4A1F4B5B685360AD
:101CC0001D4A1D4B5B6853601B4A1B4B5B6843F40A
:101CD00080635360184A184B5B6823F47C1353608D
:101CE000154A154B5B6843F4E8135360124A124BD4
:101CF0001B6843F08073136000BF0F4B1B6803F039
:101D00000073002BF9D00C4A0B4B5B6823F00303E4
:101D10005360094A084B5B6843F00203536000BFFD
:101D2000054B5B6803F00C03082BF9D100BF0C379F
:101D3000BD4680BC704700BF00100240002002403A
:101D400080B487B000AFF860B9607A6001237B612E
:101D500004E07B697A6802FB03F37B617B69BA6804
:101D6000B2FBF3F27B689A42F3D229E07B69BA684E
:101D7000B2FBF3F33B617A69BB68B3FBF2F102FBA0
:101D800001F29B1ABB607A697B6892FBF3F37B617B
:101D90003B69092B0ADDFB681B68591CFA68116056
:101DA0003A69D2B23732D2B21A7009E0FB681B68C6
:101DB000591CFA6811603A69D2B23032D2B21A7044
:101DC0007B69002BD2D100BF1C37BD4680BC704759
:101DD00080B588B000AFF860B9607A60FB687B615D
:101DE0007DE0BB681B78252B71D1BB680133BB60DC
:101DF000BB681B78642B1ED0642B06DC582B50D09C
:101E0000632B0ED0252B58D05DE0732B2BD0732B7A
:101E100002DC692B0FD056E0752B37D0782B40D0E1
:101E200051E0FB685A1CFA607A68111D79601268EB
:101E3000D2B21A7047E07B681A1D7A601B68FB619A
:101E4000FB69002B07DAFB695B42FB61FB685A1CEC
:101E5000FA602D221A70F96907F10C030A2218465C
:101E6000FFF76EFF2FE07B681A1D7A601B68BB616D
:101E700007E0FB685A1CFA60BA69511CB961127814
:101E80001A70BB691B78002BF3D11CE07B681A1D0C
:101E90007A60196807F10C030A221846FFF750FF11
:101EA00011E07B681A1D7A601B68194607F10C0364
:101EB00010221846FFF744FF05E0FB685A1CFA6041
:101EC00025221A7000BFBB680133BB6007E0FB68C6
:101ED0005A1CFA60BA68511CB96012781A70BB6853
:101EE0001B78002B7FF47DAFFB6800221A70FB6823
:101EF0001A467B69D31A18462037BD4680BD0EB4FA
:101F000080B585B000AF786007F12003BB60BA6888
:101F1000F9697868FFF75CFFF860FB6818461437CA
:101F2000BD46BDE8804003B0704780B487B000AFC5
:101F3000F860B9607A60FB685A687B689A4201D39E
:101F4000002317E0FB685B68591CFA6851601B01AD
:101F5000BA6813447B617B694FF0FF329A607B69FA
:101F60009A687B695A607B690022DA607B6900228B
:101F70001A707B6918461C37BD4680BC704780B418
:101F800085B000AFF8607A603B600B46FB72FB687F
:101F9000FA7A1A70FB687A685A60FB683A689A6045
:101FA000FB680022DA6000BF1437BD4680BC704772
:101FB00080B588B000AFF860B9607A603B60FB68BC
:101FC0001B68FB612BE0FB681B68BA6813441B7835
:101FD000FB76FB7E092B27D0FB7E0D2B24D0FB7ECE
:101FE0000A2B21D0FB7E202B1ED0FB7E2C2B1BD05E
:101FF000FB7E5D2B18D0FB7E7D2B15D0FB7E1F2B2F
:1020000002D9FB7E7E2B05D9FA69FB681A606FF056
:1020100001032FE0FB681B685A1CFB681A60FB6811
:102020001A687B689A42CED33B68002B06D1FB68C6
:102030001B685A1EFB681A6000231BE0BA6A3968E5
:10204000F868FFF772FF78617B69002B05D1FA69A8
:10205000FB681A604FF0FF330CE0FB681B68FA69FD
:1020600004217869FFF78BFFFB681B685A1EFB6829
:102070001A60002318462037BD4680BD80B588B061
:1020800000AFF860B9607A603B60FB681B68FB6179
:10209000FB681B685A1CFB681A60FDE0FB681B6844
:1020A000BA6813441B78FB76FB7E222B1DD13B685C
:1020B000002B01D10023FAE0BA6A3968F868FFF70B
:1020C00034FF78617B69002B05D1FA69FB681A60DF
:1020D0004FF0FF33EBE0FB695A1CFB681B680321E0
:1020E0007869FFF74CFF0023E1E0FB7E5C2B40F0BA
:1020F000CE80FB681B685A1C7B689A4280F0C780C0
:10210000FB681B685A1CFB681A60FB681B68BA688E
:1021100013441B78223B532B00F2B28001A252F8E9
:1021200023F000BF8D2200088122000881220008D0
:1021300081220008812200088122000881220008F3
:1021400081220008812200088122000881220008E3
:1021500081220008812200088D22000881220008C7
:1021600081220008812200088122000881220008C3
:1021700081220008812200088122000881220008B3
:1021800081220008812200088122000881220008A3
:102190008122000881220008812200088122000893
:1021A0008122000881220008812200088122000883
:1021B0008122000881220008812200088122000873
:1021C0008122000881220008812200088122000863
:1021D0008122000881220008812200088122000853
:1021E0008122000881220008812200088122000843
:1021F0008122000881220008812200088122000833
:102200008122000881220008812200088D22000816
:102210008122000881220008812200088122000812
:10222000812200088D2200088122000881220008F6
:10223000812200088D2200088122000881220008E6
:1022400081220008812200088122000881220008E2
:10225000812200088D2200088122000881220008C6
:10226000812200088D220008812200088D220008AA
:1022700075220008FB681B681A1DFB681A6006E0DF
:10228000FA69FB681A606FF0010310E000BFFB6899
:102290001B685A1CFB681A60FB681A687B689A42C4
:1022A000FFF4FCAEFA69FB681A606FF0020318468F
:1022B0002037BD4680BD00BF80B58AB002AFF86050
:1022C000B9607A603B6046E1FB681B68BA681344FA
:1022D0001B78FB76FB7E2C2B00F0CB802C2B10DCAC
:1022E0000D2B00F02C810D2B04DC093B012B00F29F
:1022F000078124E1202B00F02281222B00F0938023
:10230000FEE05D2B39D05D2B05DC3A2B00F0AA8076
:102310005B2B05D0F4E07B2B02D07D2B2DD0EFE0A2
:10232000BA6A3968F868FFF700FE78617B69002BAC
:1023300002D14FF0FF3334E1FB689B68B3F1FF3FFC
:1023400007D0FB689B681B013A681344DA680132C6
:10235000DA60FB7E7B2B01D1012200E002227B6947
:102360001A70FB681B681A467B695A60FB685B68D9
:10237000013B1A46FB689A60E8E0FB7E7D2B01D1A9
:10238000012300E00223BB76FB685B68013BFB6135
:1023900024E0FB691B013A6813447B617B695B683D
:1023A000B3F1FF3F17D07B699B68B3F1FF3F12D1B8
:1023B0007B691B78BA7E9A4202D06FF00103F0E08D
:1023C000FB681B6801331A467B699A60FB684FF013
:1023D000FF329A6005E0FB69013BFB61FB69002B62
:1023E000D7DAFB69B3F1FF3F19D16FF00103D8E0F1
:1023F000FB691B013A6813447B617B695B68B3F13D
:10240000FF3F09D07B699B68B3F1FF3F04D1FB68B4
:10241000FA699A6000BF99E0FB69013BFB61FB69C7
:10242000002BE5DA92E0BB6A00933B687A68B968F2
:10243000F868FFF723FE38613B69002B01DA3B693E
:10244000AFE0FB689B68B3F1FF3F7AD03B68002B9D
:1024500077D0FB689B681B013A681344DA68013245
:10246000DA606EE0FB685B68013B1A46FB689A60C5
:102470006CE03B68002B66D0FB689B68B3F1FF3FC4
:1024800061D0FB689B681B013A6813441B78022BE0
:1024900059D0FB689B681B013A6813441B78012BD9
:1024A00051D0FB685B68013BFB6125E0FB691B01C8
:1024B0003A6813441B78022B06D0FB691B013A686B
:1024C00013441B78012B14D1FB691B013A68134498
:1024D0005B68B3F1FF3F0CD0FB691B013A68134402
:1024E0009B68B3F1FF3F04D1FB68FA699A6000BFB3
:1024F00029E0FB69013BFB61FB69002BD6DA22E096
:10250000BB6A00933B687A68B968F868FFF750FDCA
:1025100038613B69002B01DA3B6942E0FB689B684C
:10252000B3F1FF3F11D03B68002B0ED0FB689B68D6
:102530001B013A681344DA680132DA6005E000BF33
:1025400004E000BF02E000BF00E000BFFB681B68C2
:102550005A1CFB681A60FB681A687B689A42FFF491
:10256000B3AEFB685B68013BFB6115E0FB691B01D7
:102570003A6813445B68B3F1FF3F0AD0FB691B0163
:102580003A6813449B68B3F1FF3F02D16FF0020336
:1025900007E0FB69013BFB61FB69002BE6DAFB68A6
:1025A0005B6818462037BD4680BD80B483B000AF5D
:1025B00078607B6800221A607B6800225A607B6822
:1025C0004FF0FF329A6000BF0C37BD4680BC7047A9
:1025D00080B584B000AFF860B9607A60FB68002B0A
:1025E00005D0BB68002B02D07B68002B01D10023F3
:1025F0000BE010220021F86805F019FFFB687A68EB
:102600005A60FB68BA681A60012318461037BD4645
:1026100080BD80B588B000AFF860B9607A60BB68F3
:10262000FB61FB68002B0DD0FB681B68002B09D0F9
:10263000FB685B68002B05D0BB68002B02D07B6871
:10264000002B01D1002347E0F86800F0B0F8B86132
:102650007A68BB69934228BF13467B607B68002B76
:1026600001D1002338E0FB685A68FB68DB68D21AA6
:102670007B68934228BF13467B61FB681A68FB683E
:10268000DB6813447A69F969184605F0C5FEFB68F2
:10269000DA687B691A44FB68DA607A687B69D31A66
:1026A0007B607B68002B0BD0FB681868FA697B693C
:1026B00013447A68194605F0AFFEFB687A68DA6061
:1026C000FB68DA68FB685B689A4202D3FB68002209
:1026D000DA607A697B68134418462037BD4680BDAE
:1026E00080B588B000AFF860B9607A60BB68FB6104
:1026F000FB68002B0DD0FB681B68002B09D0FB6822
:102700005B68002B05D0BB68002B02D07B68002BD8
:1027100001D1002347E0F86800F07FF8B8617A68DB
:10272000BB69934228BF13467B607B68002B01D1B5
:10273000002338E0FB685A68FB689B68D21A7B6804
:10274000934228BF13467B61FB681A68FB689B684D
:1027500013447A691946F86905F05EFEFB689A68C9
:102760007B691A44FB689A607A687B69D31A7B603C
:102770007B68002B0BD0FA697B69D018FB681B685B
:102780007A68194605F048FEFB687A689A60FB682B
:102790009A68FB685B689A4202D3FB6800229A60E1
:1027A0007A697B68134418462037BD4680BD80B4E3
:1027B00087B000AF78607B68002B07D07B681B6810
:1027C000002B03D07B685B68002B01D100231FE046
:1027D0007B68DB683B617B689B68FB603A69FB68F0
:1027E0009A4203D17B685B687B610FE0FA683B69C2
:1027F0009A4204D9FA683B69D31A7B6106E07B6888
:102800005A68F9683B69CB1A13447B617B69013BC9
:1028100018461C37BD4680BC704780B487B000AFF7
:1028200078607B68002B07D07B681B68002B03D087
:102830007B685B68002B01D100231DE07B68DB68AF
:102840003B617B689B68FB603A69FB689A4202D1F6
:1028500000237B610FE03A69FB689A4204D93A6928
:10286000FB68D31A7B6106E07B685A683969FB68AC
:10287000CB1A13447B617B6918461C37BD4680BC6C
:102880007047000080B582B000AF0346FB71102195
:102890000748FEF711FCFB79184600F0DFFB10211A
:1028A0000348FEF7FBFB00BF0837BD4680BD00BFF5
:1028B0000008014080B500AF00F070FB1021034814
:1028C000FEF7ECFB00F004F800BF80BD00080140FB
:1028D00080B582B000AF00237B6010211248FEF764
:1028E000EBFB9F2000F0BAFBFF2000F0B7FB034694
:1028F0001B047B60FF2000F0B1FB03461B027A68DB
:1029000013437B60FF2000F0A9FB03461A467B6857
:1029100013437B6010210448FEF7C0FB7B68184618
:102920000837BD4680BD00BF0008014080B500AF3C
:102930000620FFF7A7FF00BF80BD000080B582B072
:1029400000AF10210B48FEF7B7FB052000F086FB17
:10295000FF2000F083FB0346FB7110210548FEF7C2
:102960009DFBFB7903F00103002BEAD100BF083780
:10297000BD4680BD0008014080B582B000AF7860E0
:10298000FFF7D4FF10211048FEF796FB202000F03F
:1029900065FB7B681B0CDBB2184600F05FFB7B68B5
:1029A0001B0ADBB2184600F059FB7B68DBB2184605
:1029B00000F054FB10210448FEF770FBFFF7BEFF48
:1029C00000BF0837BD4680BD0008014080B586B015
:1029D00000AFF860B9601346FB80FB88B3F5807FD9
:1029E00002D94FF48073FB80FFF7A0FF1021194834
:1029F000FEF762FB022000F031FBFB681B0CDBB230
:102A0000184600F02BFBFB681B0ADBB2184600F0EF
:102A100025FBFB68DBB2184600F020FB0023FB829D
:102A200009E0FB8ABA6813441B78184600F016FBCD
:102A3000FB8A0133FB82FA8AFB889A42F1D3102188
:102A40000448FEF72BFBFFF779FF00BF1837BD46A0
:102A500080BD00BF0008014090B587B000AFF860AE
:102A6000B9601346FB8010211848FEF725FB0320B0
:102A700000F0F4FAFB681B0CDBB2184600F0EEFA2B
:102A8000FB681B0ADBB2184600F0E8FAFB68DBB211
:102A9000184600F0E3FA0023FB820AE0FB8ABA68DA
:102AA000D418FF2000F0DAFA03462370FB8A0133C2
:102AB000FB82FA8AFB889A42F0D310210348FEF782
:102AC000EDFA00BF1C37BD4690BD00BF00080140B5
:102AD00080B483B000AF03463960FB7197F90730CB
:102AE000002B0BDA0D49FB7903F00F03043B3A6826
:102AF000D2B21201D2B20B441A7609E0084997F912
:102B000007303A68D2B21201D2B20B4483F80023E4
:102B100000BF0C37BD4680BC704700BF00ED00E031
:102B200000E100E080B582B000AF78607B68B3F16F
:102B3000807F01D3012311E00A4A7B6823F07F43A1
:102B4000013B53600F214FF0FF30FFF7C1FF054BF2
:102B500000229A60034B07221A60002318460837A8
:102B6000BD4680BD10E000E080B400AF024B1B68A2
:102B70001846BD4680BC7047B406002080B400AF44
:102B8000044B1B680133034A136000BFBD4680BC81
:102B9000704700BFB406002080B584B000AF7860F5
:102BA000FFF7E2FFF86000BFFFF7DEFF0246FB68B9
:102BB000D21A7B689A42F7D300BF1037BD4680BD5A
:102BC00080B582B000AF4FF48030FEF783FAFEF795
:102BD000AFFA0346FB71FB79012B28D11020FEF7D9
:102BE00089F90220FEF76AF90020FEF721FB002098
:102BF000FEF756FB4FF48060FEF736FB4FF4E01112
:102C00004FF48030FEF7BCFA0120FEF7D7FA00BF80
:102C10003920FEF74DFC0346002BF9D00220FEF7C9
:102C2000DDFA00BFFEF7F6FA0346082BFAD1FEF7ED
:102C300095FF00BF0837BD4680BD000080B500AFDE
:102C40000420FEF71FF90A4B1B680A4AA2FB032364
:102C50009B091846FFF766FF0346002B00D0FEE7EE
:102C60000F214FF0FF30FFF733FF00BF80BD00BFE3
:102C700014000020D34D621080B582B000AF012156
:102C80001020FEF7D9FB4FF40053BB801023FB71DB
:102C90000323BB713B1D19460448FEF743F900F0BE
:102CA00013F800BF0837BD4680BD00BF00100140CB
:102CB00080B500AF4FF400510248FEF7EFF900BFB6
:102CC00080BD00BF0010014080B500AF4FF400513F
:102CD0000248FEF7F1F900BF80BD00BF00100140BF
:102CE00080B500AF00F034F803461A46044B1A7062
:102CF000034B1B78184600F041F800BF80BD00BFB1
:102D0000B806002080B584B000AF0346FB71FB79A4
:102D1000012B17D84FF48050FFF72EFEFB793B7341
:102D2000FF237B73FF23BB73FF23FB7307F10C03AC
:102D3000042219464FF48050FFF748FE034AFB79FE
:102D4000137000E000BF1037BD4680BDB8060020FC
:102D500080B582B000AF3B46042219464FF4805044
:102D6000FFF77AFE3B78FB71FB79012B01D8FB79E9
:102D700000E0002318460837BD4680BD80B582B00C
:102D800000AF0346FB71FB79012B02D1FFF790FFE7
:102D900001E0FFF799FF034AFB79137000BF083782
:102DA000BD4680BDB806002080B586B000AF786013
:102DB0007B68002B02D14FF0FF336CE07B687B61B6
:102DC00002E07B6901337B617B691B78202BF8D0A3
:102DD0007B691B780D2BF4D07B691B780A2BF0D014
:102DE0007B691B78092BECD07B691B78222BE8D000
:102DF0007868FDF7B7F902467B6813443B6102E04F
:102E00003B69013B3B613A697B699A4218D93B694E
:102E1000013B1B78202BF3D03B69013B1B780D2B2A
:102E2000EED03B69013B1B780A2BE9D03B69013BA3
:102E30001B78092BE4D03B69013B1B78222BDFD0A8
:102E40003A697B699A4203D93A697B69D31A00E0EF
:102E50000023FB60FB68012B02D04FF0FF331AE028
:102E60007B691B78FB72FB7A302B07D10020FFF7C0
:102E700085FF0020FFF746FF00230CE0FB7A312B93
:102E800007D10120FFF77AFF0120FFF73BFF012365
:102E900001E04FF0FF3318461837BD4680BD0000F3
:102EA00080B500AF0D220021024805F0C0FA00BF36
:102EB00080BD00BFBC06002080B483B000AF0346D5
:102EC000FB71144B1B7B092B01D900231DE0114B17
:102ED0009B7A19460F4AFB7953540E4B9B7A5A1C26
:102EE0000D4B83FB02139910D317C91A0B469B0095
:102EF0000B445B00D11ACAB2064B9A72054B1B7B7E
:102F00000133DAB2034B1A73012318460C37BD465E
:102F100080BC7047BC0600206766666680B483B0DC
:102F200000AF7860164B1B7B002B02D07B68002B18
:102F300001D100231EE0124BDB7A1A46104B9A5C3B
:102F40007B681A700E4BDB7A5A1C0E4B83FB021304
:102F50009910D317C91A0B469B000B445B00D11A7A
:102F6000CAB2074BDA72064B1B7B013BDAB2044B49
:102F70001A73012318460C37BD4680BC704700BF4A
:102F8000BC0600206766666680B400AF024B1B7B00
:102F90001846BD4680BC7047BC06002080B586B090
:102FA00000AF01214FF48050FEF746FA1023BB8298
:102FB0001023FB750323BB7507F11403194625483D
:102FC000FDF7B0FF2023BB821823FB750323BB75DD
:102FD00007F1140319461F48FDF7A4FF4023BB82E5
:102FE0000423FB7507F1140319461A48FDF79AFFED
:102FF0008023BB821823FB750323BB7507F11403E1
:1030000019461448FDF78EFF0823BB814FF48273E5
:103010007B8001233B810223FB804FF400737B8183
:1030200000233B800023BB800023FB8107233B82DE
:103030003B4619460848FEF775FA01210648FEF797
:10304000B4FA10210348FEF729F800BF1837BD462F
:1030500080BD00BF000801400030014080B582B053
:1030600000AF0346FB7100BF02210E48FEF7D6FAFF
:103070000346002BF8D0FB799BB219460948FEF7AE
:10308000B3FA00BF01210748FEF7C8FA0346002B38
:10309000F8D00448FEF7B6FA0346DBB21846083704
:1030A000BD4680BD0030014080B483B000AF034610
:1030B000FB71084997F907305B09FA7902F01F02A2
:1030C000012000FA02F241F8232000BF0C37BD4670
:1030D00080BC704700E100E080B483B000AF0346DD
:1030E0003960FB7197F90730002B0BDA0D49FB793A
:1030F00003F00F03043B3A68D2B21201D2B20B4480
:103100001A7609E0084997F907303A68D2B21201F5
:10311000D2B20B4483F8002300BF0C37BD4680BCFD
:10312000704700BF00ED00E000E100E080B58AB02C
:1031300000AF01210420FEF77FF901214FF4804008
:10314000FEF77AF901214FF40030FEF793F90423DA
:10315000BB84032387F82630182387F8273007F12C
:10316000240319463F48FDF7DDFE0823BB840423F2
:1031700087F8273007F1240319463A48FDF7D2FEB5
:103180004FF40073BB84032387F82630182387F895
:10319000273007F1240319463248FDF7C3FE4FF4E8
:1031A0008063BB84042387F8273007F12403194682
:1031B0002C48FDF7B7FE4FF480722B492B48FFF7E0
:1031C00007FA4FF480722A492A48FFF701FA4FF4B0
:1031D000E1337B610023BB830C23FB8300237B83D0
:1031E00000233B8400233B8307F114031946224844
:1031F000FEF730FA012240F225511F48FEF703FB8B
:1032000001212620FFF768FF2620FFF74DFF01214F
:103210001948FEF7D9FA4FF4E1337B600023BB81F4
:103220000C23FB8100237B8100233B8200233B8115
:103230003B1D19461148FEF70DFA012240F22551B7
:103240000E48FEF7E0FA02212520FFF745FF252072
:10325000FFF72AFF01210948FEF7B6FA00BF283719
:10326000BD4680BD00080140DC070020DC080020CE
:10327000CC060020CC07002000440040003801406C
:1032800080B582B000AF0346FB71FB1D01221946D9
:103290000348FFF7BEF900BF0837BD4680BD00BF39
:1032A000DC08002080B582B000AF0346FB71FB1D37
:1032B000012219460348FFF7ACF900BF0837BD46A5
:1032C00080BD00BFCC07002080B582B000AF786021
:1032D0000B467B807B881A4679680448FFF700FA22
:1032E00003469BB218460837BD4680BDCC07002078
:1032F00080B500AF0348FFF790FA03469BB218462B
:1033000080BD00BFCC07002080B582B000AF7860E0
:103310000B46FB7000BF80217868FEF7DBFA03469E
:10332000002BF8D0FB789BB219467868FEF7B2FA0A
:1033300000BF0837BD4680BD80B586B000AFF860DD
:10334000B9601346FB800023FB820AE0FB8ABA685F
:1033500013441B781946F868FFF7D6FFFB8A013340
:10336000FB82FA8AFB889A42F0D300BF1837BD4629
:1033700080BD000080B582B000AF78607868FCF74F
:10338000F1FE03469BB21A4679680348FFF7D4FF63
:1033900000BF0837BD4680BD0038014080B582B00F
:1033A00000AF78607868FCF7DDFE03469BB21A46F2
:1033B00079680348FFF7C0FF00BF0837BD4680BDEE
:1033C0000044004080B582B000AF78603960FFF7FC
:1033D000CBFB02467B68D21A3B689A422CBF012382
:1033E0000023DBB218460837BD4680BD80B582B0E9
:1033F00000AF78607868FFF7D1FF0348FFF7CEFF92
:1034000000BF0837BD4680BDF0DA000880B500AFC8
:10341000FFF7D6FBFFF712FCFFF788FEFFF74AFA2B
:1034200002F0DCFBFFF728FCFFF75AFCFFF738FD42
:1034300003F044FA074804F0F9FA0021002000F0F4
:103440002DFC002300220449002002F0A5FA00BF51
:1034500080BD00BFF4DA000804DB000880B500AFCF
:1034600002F0BCFB03F02AFA0021002000F016FC59
:10347000002300220C49002002F08EFA0B4B0022A0
:103480001A700B4B01221A76094B01221A70FFF7B2
:103490006BFB0246064B9A60FFF766FB0246044B45
:1034A0005A6000BF80BD00BF04DB00080C0900208B
:1034B000EC08002080B500AF202200210A4804F06B
:1034C000B6FF094B00221A70FFF74EFB0246064B6F
:1034D0009A60FFF749FB0246034B5A60024B0122F8
:1034E0001A7600BF80BD00BFEC08002090B5A5B0E3
:1034F00002AF37E097F887301C46FFF745FD0346DB
:10350000381D009323461D4A802104F099FF3B1D7E
:103510001846FFF743FF97F88730012B09D1184869
:10352000FFF73CFF1748FFF73FFC1748FFF736FF50
:1035300018E097F88730022B09D11448FFF72EFFC7
:103540001348FFF731FC1348FFF728FF0AE097F80C
:103550008730381D104A802104F072FF3B1D184649
:10356000FFF71CFF07F187031846FFF7D7FC034658
:10357000002BBFD100BF8C37BD4690BD14DB0008C7
:103580003CDB00085CDB000860DB00087CDB00083B
:103590009CDB0008A0DB0008BCDB000880B59EB007
:1035A00000AF744B93F8DC3183F00103DBB2002BE6
:1035B00000F0BC80704B1B78012B08D06E4B1B7841
:1035C000022B06D16C4B93F8DC30012B01D901237F
:1035D00000E0002387F8773097F8773003F0010395
:1035E00087F87730634B5B78092B05D0614B5B78AC
:1035F000002B01D0012300E0002387F8763097F8F4
:10360000763003F0010387F876305C4B1B7B83F048
:103610000103DBB2002B2AD097F8773083F0010347
:10362000DBB2002B23D097F8763083F00103DBB2B6
:10363000002B1CD0514B5B6942F210711846FFF70A
:10364000C1FE0346002B12D04D48FFF7A7FE4D48A0
:10365000FFF790FE494B01221A73FFF785FA0246E5
:10366000464B1A61FFF780FA0246444B5A61434BBE
:103670001B7B002B5AD007F154031E21184603F080
:1036800035F80346002B39D007F154031846FFF7ED
:10369000ADFE3A1D07F154031146184604F036FA00
:1036A0000346002B2AD03B79022B06D1334B012253
:1036B0001A76324B00221A7320E03B79002B06D198
:1036C0002E4B01221A762D4B00221A7316E03B79FD
:1036D000032B05D03B79042B02D03B79012B0DD174
:1036E0002948FFF75BFE254B00221A76234B002268
:1036F0001A73224B01221A70FFF7B0FE1F4B1B6991
:1037000040F6B8311846FFF75DFE0346002B0DD09A
:103710001E48FFF743FE194B00221A73174B002275
:103720001A76164B01221A70FFF798FE114B5B7840
:10373000092B05D00F4B5B78002B01D0012300E053
:10374000002387F8753097F8753003F0010387F888
:103750007530094B1B78012B08D097F8753083F032
:103760000103DBB2002B01D003F09EFA00BF7837D3
:10377000BD4680BDE01100201C190020EC0800208F
:10378000DCDB0008F4DB000800DC00081CDC0008BF
:1037900080B500AF174B1B78012B0AD0022B12D03B
:1037A000002B00D023E0FFF731FE124B01221A70EC
:1037B0001DE002F031FF104B1B7A022B14D10D4B90
:1037C00002221A7010E0FFF7E9FEFFF78FFE04F007
:1037D00005F90A4B1B78012B08D0084B1B78022BEC
:1037E00004D001F043FE01E000BF00E000BF00BFD5
:1037F00080BD00BFEC080020D01800201C1900205C
:1038000090B5CFB002AF07F10C03186007F10803C1
:1038100019603B1D1A6007F588731846FEF7C5FE50
:1038200007F10C031868FCF79DFC044607F1100231
:1038300007F10C0107F58870102300931346224608
:103840000968FEF739FDC7F82801D7F82831002BA1
:1038500001DA002382E00123C7F82C3177E007F179
:103860001002D7F82C311B0113441B78032B69D1AC
:1038700007F11002D7F82C311B01134408331A68E2
:1038800007F11001D7F82C311B010B4404331B68DE
:10389000D31AC7F82431D7F82431072B52D107F1B6
:1038A0001002D7F82C311B01134404331B681A464D
:1038B00007F10C031B68134407222B49184604F038
:1038C0002DFE0346002B3DD1D7F82C315A1CD7F8DA
:1038D00028319A4236DAD7F82C31013307F1100239
:1038E0001B011344C7F82031D7F820319A68D7F864
:1038F00020315B68D31AC7F81C31D7F81C31002B74
:1039000005DDD7F81C213B1D1B689A4201D300231B
:1039100024E0D7F820315B681A4607F10C031B68D6
:103920009918D7F81C2107F10803186804F074FDF2
:10393000D7F81C3107F108021268134400221A70EC
:1039400001230BE0D7F82C310133C7F82C31D7F81D
:103950002C21D7F828319A4281DB0023184607F53D
:103960009A77BD4690BD00BF38DC000880B5F4B042
:1039700004AF07F10C03186007F108031960BB1DC1
:103980001A8007F10C031B68002B00F06F8107F110
:1039900008031B68002B00F06981BB1D1B88002BEE
:1039A00000F06481BB1D1A88BB1D198807F10C0348
:1039B00007F1A400029107F1080109680191009242
:1039C0001B68AD4A4FF4807104F03AFD07F1A4037F
:1039D0001846FFF7E3FC07F10C03A8491868FCF749
:1039E000B7FB0346002B03D0A548FFF7D7FC3EE109
:1039F000BB1D1B887F2B28BF7F23A7F8A831B7F8F2
:103A0000A82107F1080307F12400196804F004FD58
:103A1000B7F8A83107F124020021D154002387F818
:103A2000BF3107F12403C7F8B83107F12403C7F801
:103A3000B43104E0D7F8B4310133C7F8B431D7F862
:103A4000B4311B78202BF5D0D7F8B4311B780D2B6F
:103A5000F0D0D7F8B4311B780A2BEBD0D7F8B431BB
:103A60001B78092BE6D0D7F8B4311B787B2B11D10A
:103A700007F1140310221946D7F8B401FFF7C0FE6E
:103A80000346002B06D007F11403C7F8B831012311
:103A900087F8BF3197F8BF3183F00103DBB2002B09
:103AA00000F0A0800023C7F8B03107F124031846C6
:103AB000FCF758FBC7F8AC0104E0D7F8B03101338C
:103AC000C7F8B031D7F8B021D7F8AC319A422DD22F
:103AD00007F12402D7F8B03113441B78202BECD027
:103AE00007F12402D7F8B03113441B780D2BE4D032
:103AF00007F12402D7F8B03113441B780A2BDCD02D
:103B000007F12402D7F8B03113441B78092BD4D025
:103B100007F12402D7F8B03113441B78222BCCD004
:103B200004E0D7F8AC31013BC7F8AC31D7F8AC2191
:103B3000D7F8B0319A4227D9D7F8AC31013B07F119
:103B40002402D35C202BECD0D7F8AC31013B07F139
:103B50002402D35C0D2BE4D0D7F8AC31013B07F144
:103B60002402D35C0A2BDCD0D7F8AC31013B07F13F
:103B70002402D35C092BD4D0D7F8AC31013B07F138
:103B80002402D35C222BCCD0D7F8AC21D7F8B031AB
:103B90009A4205D9D7F8AC21D7F8B031D31A00E052
:103BA0000023C7F8A431D7F8A431002B1AD0D7F8D6
:103BB000A4310F2B16D807F12402D7F8B031D11851
:103BC00007F11403D7F8A421184604F025FC07F1E7
:103BD0001402D7F8A431134400221A7007F1140319
:103BE000C7F8B831002387F8AB312649D7F8B801B8
:103BF000FCF7AEFA0346002B0FD02349D7F8B801E3
:103C0000FCF7A6FA0346002B07D02049D7F8B801E5
:103C1000FCF79EFA0346002B03D1012387F8AB3152
:103C20001AE01B49D7F8B801FCF792FA0346002BBB
:103C30000FD01849D7F8B801FCF78AFA0346002BD1
:103C400007D01549D7F8B801FCF782FA0346002BD4
:103C500002D1022387F8AB3197F8AB31002B06D0A5
:103C600097F8AB311846FFF727F900E000BF07F5DA
:103C7000E077BD4680BD00BF40DC000874DC000872
:103C800080DC0008B4DC0008B8DC0008BCDC0008FC
:103C9000C0DC0008C4DC0008C8DC000880B582B0C5
:103CA00000AF786039602A4A7B68C2F8E031284A60
:103CB0003B68C2F8E431264B002283F8D021FEF79E
:103CC00053FF0246224BC3F8D421214B00225A70E5
:103CD0001F4B0022C3F8D8211D4B002283F8DC21A2
:103CE0001B4B00221A701A4B00229A70184B0022AC
:103CF00083F88420164B3C22A3F84421144B42F253
:103D0000B322A3F88220124B002283F8C420104B68
:103D1000002283F804210E4B002283F848210C4B2B
:103D20000022A3F8CC210A4B0022C3F8C821084B7B
:103D3000012283F8CE21064B002283F8CF21044BC9
:103D4000044AC3F8E82100BF0837BD4680BD00BF64
:103D5000E01100206D39000890B5A7B004AF3C4BCE
:103D60001B78012B6ED13B4B1A883B4B1B889A4228
:103D700003D3374B02221A7067E0FFF7B9FA034604
:103D8000A7F88630B7F88630002B5DD0324B1A8802
:103D9000304B1B88D31AA7F88430B7F88420B7F8C3
:103DA0008630934228BF1346A7F88230294B1B88E0
:103DB000C3F17F02B7F88230934228BF1346A7F8B9
:103DC0008230B7F88230002B3FD0224B1B881A4636
:103DD000224B1344B7F8822011461846FFF774FAB5
:103DE0000346A7F880301B4B1A88B7F8803013447D
:103DF0009AB2184B1A80B7F88020164B1B881946C8
:103E0000154B1B881C46B7F8863038460293019440
:103E100000911346124A802104F012FB3B461846DB
:103E2000FFF7BCFA0B4B1A880B4B1B889A420CD33A
:103E3000084B1B881A46094B00219954044B022257
:103E40001A7002E000BF00E000BF8C37BD4690BD95
:103E5000980A0020900A0020920A002010090020F1
:103E6000CCDC000890B5A7B004AF3D4B1B78022B0B
:103E70006BD13C4B1B88002B69D03B4B1A88394BCC
:103E80001B889A4265D2FFF733FA0346A7F88630BB
:103E9000B7F88630002B5ED0324B1A88324B1B8825
:103EA000D31AA7F88430B7F88420B7F88630934245
:103EB00028BF1346A7F882302B4B1B88C3F58072AE
:103EC000B7F88230934228BF1346A7F88230B7F87C
:103ED0008230002B40D0244B1B881A46234B1344BE
:103EE000B7F8822011461846FFF7EEF90346A7F807
:103EF00080301D4B1A88B7F8803013449AB21A4BA1
:103F00001A80B7F88020184B1B881946154B1B8860
:103F10001C46B7F886303846029301940091134648
:103F2000134A802104F08CFA3B461846FFF736FA14
:103F30000D4B1A880B4B1B889A420DD30A4B1B88DA
:103F40001A460A4B0021995406E000BF04E000BF66
:103F500002E000BF00E000BF8C37BD4690BD00BF4F
:103F6000980A0020960A0020940A00209009002058
:103F70000CDD000880B5DEB004AF3B1D18603B1DB2
:103F80001B68002B00F0C58107F584723B1D1146AC
:103F9000186803F0BBFD034687F8673197F867316F
:103FA000002B19D097F80831112B13D097F808314E
:103FB000122B0FD097F80831132B0BD097F808313C
:103FC000142B07D097F808310F2B03D097F808313E
:103FD000102B01D1012300E0002387F8663197F808
:103FE000663103F0010387F8663197F8663183F094
:103FF0000103DBB2002B00F0DD80964B1B78012B18
:1040000004D0944B1B78022B40F0D480914B1B784A
:10401000012B6DD1904B1B88002B69D08F4B1A88D8
:104020008D4B1B889A4263D23B1D1B681B78002B6B
:1040300000F071813B1D1B681B782B2B00F06B81FE
:104040003B1D1B681B78412B00F065813B1D1B68E5
:104050001B784F2B00F05F813B1D1B681B78452BA5
:1040600000F059813B1D1868FCF77CF80346A7F85F
:104070006431794B1A88794B1B88D31AA7F86231BF
:10408000B7F86221B7F86431934228BF1346A7F806
:104090006031724B1B88C3F17F02B7F860319342E5
:1040A00028BF1346A7F860316C4B1B881A466C4B2F
:1040B000D018B7F860213B1D196804F0ADF9674BC3
:1040C0001A88B7F8603113449AB2644B1A80634B74
:1040D0001A88614B1B889A42C0F01D815F4B1B8878
:1040E0001A465F4B002199545A4B02221A7012E172
:1040F000584B1B78022B5DD15A4B1B88002B59D093
:10410000594B1A88574B1B889A4253D23B1D1B6848
:104110001B78002B00F001813B1D1B681B782B2BAB
:1041200000F0FB803B1D1B681B78412B00F0F580E5
:104130003B1D1B681B784F2B00F0EF803B1D1B685D
:104140001B78452B00F0E9803B1D1868FCF70AF846
:104150000346A7F85E31434B1A88434B1B88D31A9A
:10416000A7F85C31B7F85C21B7F85E31934228BFFD
:104170001346A7F85A313C4B1B88C3F58072B7F839
:104180005A31934228BF1346A7F85A31364B1B8841
:104190001A46364BD018B7F85A213B1D196804F05F
:1041A0003BF9314B1A88B7F85A3113449AB22E4B67
:1041B0001A80B2E097F8663183F00103DBB2002B7E
:1041C00040F0AD8097F80831112B18D1214B012216
:1041D0001A70224B00221A80D7F810319AB21E4B67
:1041E0001A80214B00221A80D7F814319AB21D4B45
:1041F0001A80FEF7B9FC02461D4B1A6090E097F852
:104200000831122B10D1134B01221A70134B0022CC
:104210001A80D7F810319AB20F4B1A8080220021F1
:104220000F4804F004F97BE097F80831132B21D1F3
:10423000084B02221A700C4B00221A80D7F810315A
:104240009AB2084B1A804FF480720021074804F09C
:10425000EEF865E0980A0020920A0020900A0020FB
:1042600010090020960A0020940A002090090020DE
:104270009C0A002097F80831142B51D12A4B1B8837
:10428000002B39D0294B1B88002B35D0264B1B889F
:104290001A46274B00219954244B1B881A46254B5C
:1042A00000219954204B1B881946204B1B881A4625
:1042B00007F108001F4B029301921D4B00930B4620
:1042C0001D4A4FF4807104F0BBF807F1080318464B
:1042D000FFF764F8194BD3F8E831002B08D0174BDF
:1042E000D3F8E831114A128812491148984706E07C
:1042F0001348FFF753F802E01248FFF74FF8124B4C
:1043000000221A70084B00221A80084B00221A80E3
:1043100006E000BF04E000BF02E000BF00E000BF15
:1043200007F5B477BD4680BD900A0020940A0020AE
:10433000100900209009002050DD0008E011002045
:104340007CDD0008A0DD0008980A002080B500AFE1
:10435000714B1B78042B00F2D98001A252F823F094
:1043600075430008D7430008154400089F4400081F
:10437000E34400086948FFF711F86948FEF7FAFFBF
:10438000FEF7F2FB0246644BC3F8D421624B0122D4
:104390001A700123BEE06349634803F0B7FB03468C
:1043A000002B15D05F4B1B78002B03D05D4B1B7887
:1043B000012B0DD15C4802F029FA574B02221A70EA
:1043C000FEF7D2FB0246544BC3F8D4210123A1E0EF
:1043D000554802F01BFAC821534802F087F90346FA
:1043E000002BD8D14C4BD3F8D43140F6B831184615
:1043F000FEF7E8FF0346002B0AD0474B02221A7053
:10440000FEF7B2FB0246444BC3F8D421012381E0FE
:1044100001237FE04548FEF7ADFFFEF7A5FB02460E
:104420003D4BC3F8D4213C4B03221A70012371E0A9
:104430003D48FEF7DBFF3B493B4803F067FB034683
:10444000002B29D0374B1B78002B10D13848FEF7B2
:10445000A5FF314B04221A70FEF786FB02462E4B55
:10446000C3F8D421304802F0D1F9012352E02D4B9A
:104470001B78012B10D12F48FEF790FF264B04220A
:104480001A70FEF771FB0246234BC3F8D42126486D
:1044900002F0BCF901233DE0234802F0B7F9C8213E
:1044A000214802F023F90346002BC1D11A4BD3F85F
:1044B000D43142F210711846FEF784FF0346002BF8
:1044C0000DD01D48FEF76AFF134B04221A70FEF749
:1044D0004BFB0246104BC3F8D42101231AE0012301
:1044E00018E00D4BD3F8D4314FF4FA611846FEF7BB
:1044F00069FF0346002B07D01048FEF74FFF064B1D
:1045000000221A70002305E0012303E0024B002281
:104510001A700023184680BDE0110020C0DD00089D
:10452000E0DD000890110020C8100020F0DD000838
:1045300000DE000814DE00083CDE000868DE00082B
:1045400080B500AF434B1B78012B4BD0022B68D0BA
:10455000002B78D14048FEF721FF4048FEF70AFFC4
:10456000FEF702FB02463B4BC3F8D421394B012234
:104570001A7001236BE03A48FEF738FF3949384892
:1045800003F0C4FA0346002B29D0364B1B78002BCE
:1045900010D13548FEF702FF2E4B02221A70FEF7AB
:1045A000E3FA02462B4BC3F8D4212D4802F02EF932
:1045B00001234CE02B4B1B78012B10D12B48FEF72D
:1045C000EDFE244B02221A70FEF7CEFA0246214B72
:1045D000C3F8D421224802F019F9012337E020481A
:1045E00002F014F9C8211E4802F080F80346002B9F
:1045F000C1D1184BD3F8D43142F210711846FEF7EE
:10460000E1FE0346002B0AD0124B02221A70FEF77D
:10461000ABFA02460F4BC3F8D421012317E0012364
:1046200015E00C4BD3F8D4314FF4FA711846FEF76D
:10463000C9FE0346002B04D0064B00221A7000234B
:1046400005E0012303E0034B00221A700023184603
:1046500080BD00BFE011002090DE0008A4DE00084D
:10466000C810002090110020B4DE0008C8DE000849
:1046700080B598B000AF684B1B78032B00F2C38065
:1046800001A252F823F000BF99460008EF46000847
:1046900021470008CF4700086048FEF77FFE6048CA
:1046A000FEF768FEFEF760FA02465B4BC3F8D421C2
:1046B000594B01221A700123A9E05A495A4803F0C4
:1046C00025FA0346002B0FD0564B1B78002B03D046
:1046D000544B1B78012B07D14F4B02221A705248C2
:1046E00002F094F8012392E04F4802F08FF8C821BD
:1046F0004D4801F0FBFF0346002BDED1464BD3F8BB
:10470000D43141F288311846FEF75CFE0346002B97
:1047100004D0414B02221A70012378E0012376E095
:10472000424B1B78002B08D13F2241493F4803F000
:1047300007FF394B002283F8C32038463B4B3D4AE4
:10474000602103F07DFE3C48FEF728FE3B461846FC
:10475000FEF710FEFEF708FA02462F4BC3F8D421ED
:104760002D4B03221A70012351E02F48FEF73EFE25
:104770002C492D4803F0CAF90346002B24D0294BBD
:104780001B78002B0AD12D48FEF708FE224B002291
:104790001A70254802F03AF8002338E0214B1B78C4
:1047A000012B03D01F4B1B780E2B0DD12448FEF795
:1047B000F5FD194B0A225A70174B00221A701A483D
:1047C00002F024F8002322E0174802F01FF8C82165
:1047D000154801F08BFF0346002BC6D10E4BD3F8D2
:1047E000D43141F658311846FEF7ECFD0346002B54
:1047F00007D0094B0A225A70074B00221A70002377
:1048000005E0012303E0044B00221A700023184640
:104810006037BD4680BD00BFE0110020F4DE000817
:10482000E0DD000890110020C81000206412002074
:1048300014DF000820DF000838DF000858DF000818
:104840006CDF000880B500AF354B1B78002B02D021
:10485000012B43D05EE03348FEF7A0FD3248FEF75F
:1048600089FDFEF781F902462D4BC3F8D4212C4B6C
:1048700001221A70012351E02C48FEF7B7FD2C49A4
:104880002A4803F043F90346002B24D0284B1B7819
:10489000002B0AD12748FEF781FD214B00221A7018
:1048A000224801F0B3FF002338E0214B1B78012B95
:1048B00003D01F4B1B780E2B0DD11F48FEF76EFD4A
:1048C000174B0A225A70164B00221A70174801F033
:1048D0009DFF002322E0154801F098FFC8211348EE
:1048E00001F004FF0346002BC6D10D4BD3F8D431A1
:1048F00041F658311846FEF765FD0346002B07D0F8
:10490000074B0A225A70064B00221A70002305E05A
:10491000012303E0024B00221A700023184680BDD9
:10492000E011002084DF000898DF0008C810002094
:1049300090110020B8DF0008D0DF000880B500AF7C
:10494000344B1B78002B02D0012B40D05BE0324867
:10495000FEF724FD3148FEF70DFDFEF705F902468E
:104960002C4BC3F8D4212B4B01221A7001234EE0AB
:104970002B48FEF73BFD2B49294803F0C7F80346B7
:10498000002B21D0274B1B78002B0AD12648FEF79D
:1049900005FD204B00221A70214801F037FF00234B
:1049A00035E0204B1B78012B03D01E4B1B780E2BC0
:1049B0000AD11E48FEF7F2FC164B00221A70184866
:1049C00001F024FF002322E0154801F01FFFC82159
:1049D000134801F08BFE0346002BC9D10D4BD3F8D1
:1049E000D43141F658311846FEF7ECFC0346002B53
:1049F00007D00F48FEF7D2FC064B00221A700023A6
:104A000005E0012303E0034B00221A70002318463F
:104A100080BD00BFE0110020ECDF000800E00008CE
:104A2000C81000209011002020E0000838E00008A5
:104A300064E00008B0B590B000AF6E4B1B78032B5C
:104A400000F2CF8001A252F823F000BF5D4A0008B7
:104A5000F34A00082B4B0008AB4B00083B46664A64
:104A60001C4615460FCD0FC495E8070084E80700E3
:104A70006248FEF793FC3B461846FEF77BFCFEF7C8
:104A800073F802465B4BC3F8D4215A4B01221A70CB
:104A90000123AAE05A48FEF7A9FC5A49584803F0F6
:104AA00035F80346002B21D0564B1B78002B0AD13A
:104AB0005548FEF773FC4F4B02221A70504801F024
:104AC000A5FE012391E04F4B1B78012B03D04D4BEA
:104AD0001B780E2B0AD14D48FEF760FC454B022295
:104AE0001A70474801F092FE01237EE0444801F02D
:104AF0008DFEC821424801F0F9FD0346002BC9D1C3
:104B00003C4BD3F8D43141F658311846FEF75AFCE5
:104B10000346002B07D03E48FEF740FC354B0222EF
:104B20001A70012361E001235FE03B46394A1C46CD
:104B300015460FCD0FC40FCD0FC42B681A46228027
:104B400002341B0C23703448FEF728FC3B46184601
:104B5000FEF710FCFEF708F80246264BC3F8D421F6
:104B6000244B03221A7001233FE02548FEF73EFC48
:104B70002449234802F0CAFF0346002B12D0214BE0
:104B80001B78002B03D01F4B1B78012B0AD1234825
:104B9000FEF704FC174B00221A70194801F036FE8C
:104BA000002322E0164801F031FEC821144801F02C
:104BB0009DFD0346002BD8D10E4BD3F8D43141F2E2
:104BC00088311846FEF7FEFB0346002B07D0144839
:104BD000FEF7E4FB074B00221A70002305E00123D7
:104BE00003E0044B00221A70002318464037BD46EC
:104BF000B0BD00BFE011002094E00008B0E0000864
:104C0000C810002090110020C4E00008DCE000087B
:104C100008E1000838E100085CE1000878E10008DC
:104C200098E10008B0B590B000AF7E4B1B78042B24
:104C300000F2ED8001A252F823F000BF514C0008B1
:104C4000674C00088B4C0008714D0008DF4D0008D0
:104C5000FDF78AFF0246734BC3F8D421714B012242
:104C60001A700123DAE06F4BD3F8D4314FF4FA71A4
:104C70001846FEF7A7FB0346002B04D0694B02221F
:104C80001A700123CAE00123C8E03B46664A1C466D
:104C900015460FCD0FC495E8030020600434217041
:104CA0006248FEF77BFB3B461846FEF763FBFDF7C9
:104CB0005BFF02465B4BC3F8D4215A4B03221A70A8
:104CC0000123ABE05A48FEF791FB5A49584802F0DD
:104CD0001DFF0346002B48D0564B1B78002B13D1E9
:104CE0005548FEF75BFB554B00221A704D4B0422D2
:104CF0001A70FDF739FF02464A4BC3F8D4214C48DD
:104D000001F084FD012389E04A4B1B78012B03D07D
:104D1000484B1B780E2B28D1484B1B780133DAB255
:104D2000464B1A70454B1B78012B10D84448FEF7B0
:104D300035FB3C4B00221A70FDF716FF0246394B3B
:104D4000C3F8D4213A4801F061FD012366E03D48F3
:104D5000FEF724FB394B00221A70324B00221A70E6
:104D6000334801F053FD002358E0314801F04EFD77
:104D7000C8212F4801F0BAFC0346002BA2D1294BD1
:104D8000D3F8D43141F658311846FEF71BFB0346E1
:104D9000002B22D0294B1B780133DAB2274B1A7033
:104DA000264B1B78012B0DD82748FEF7F7FA1D4B31
:104DB00000221A70FDF7D8FE02461A4BC3F8D42120
:104DC00001232BE02148FEF7E9FA1C4B00221A7060
:104DD000144B00221A70002320E001231EE0114B27
:104DE000D3F8D4314FF4FA611846FEF7EBFA0346D4
:104DF000002B0AD01648FEF7D1FA104B00221A7089
:104E0000084B00221A70002308E0012306E00B4B38
:104E100000221A70034B00221A70002318464037F4
:104E2000BD46B0BDE0110020D0E10008E8E1000877
:104E3000C810002090110020FCE10008A00A00200A
:104E400014E2000838E2000864E200088CE200087E
:104E5000BCE2000880B5ADF5AE6D04AFBF4B1B786A
:104E6000032B00F2F18101A252F823F07D4E0008DD
:104E7000934E0008B74E0008D9510008FDF774FEA4
:104E80000246B64BC3F8D421B44B01221A70012359
:104E9000DEE1B24BD3F8D43141F288311846FEF747
:104EA00091FA0346002B04D0AC4B02221A70012366
:104EB000CEE10123CCE13B467F22A949184603F00D
:104EC0003FFB3B46002283F87F203B463A211846B1
:104ED00003F016FBC7F85C05D7F85C35002B03D050
:104EE000D7F85C3500221A709E48FBF73BF9034661
:104EF00007F1800001939B4B00939B4B9B4A8021C1
:104F000003F09EFA07F180031846FEF747FA3B4686
:104F100007F5E470964A4FF4807103F091FA07F5B3
:104F2000E4731846FEF73AFA8C4BB3F8823042F23B
:104F3000B32293420CD1894BB3F882301A463B46D8
:104F400007F5807000928B4AC82103F079FA0BE0D4
:104F5000824BB3F882301A463B4607F580700092C8
:104F6000844AC82103F06CFA7C4BB3F844311946EB
:104F700007F5807207F532707A4B03937A4B0293F0
:104F800001230193009113467B4A4FF4967103F07D
:104F900057FAC7F8580507F57D7007F53273009387
:104FA000D7F85835754A4FF4AF7103F049FA07F551
:104FB0007D731846FEF7F2F97148FEF7EFF907F531
:104FC00032731846FEF7D6F9FDF7CEFD0246634B65
:104FD000C3F8D421614B03221A70012338E16948D8
:104FE000FEF704FA6849674803F0BFFA0346002B4E
:104FF00003D0644801F00AFCEEE06449614802F025
:1050000085FD0346002B00F0E480604B1B780F2BDE
:1050100053D15E4B9B68C7F85435D7F85435002BF5
:1050200014D15B48FEF7BAF95A4B00221A704B4B69
:10503000012283F8DC21494B09225A70474B002298
:105040001A70504801F0E2FB002301E107F57D7082
:10505000D7F85435504A802103F0F2F907F57D73F3
:105060001846FEF79BF9D7F85435202B17D1494B3A
:105070001B78012B13D8474B1B780133DAB2454B11
:105080001A704648FEF78AF9344B00225A70334BA7
:1050900000221A703B4801F0B9FB0023D8E03D4BD9
:1050A00000221A702D4B0A225A702C4B00221A70C3
:1050B000344801F0ABFB0023CAE0344B1B78002BD3
:1050C00006D13748FEF76AF92E4801F09FFB83E0CE
:1050D0002E4B1B78012B03D02C4B1B780E2B78D139
:1050E0002A4B1B780E2B10D1284B9B68002B0CD021
:1050F000264B9A6807F57D70224B00931346294A88
:105100004FF4807103F09CF907E007F57D701D4BAB
:10511000254A4FF4807103F093F907F57D73184623
:10512000FEF73CF91B4B1B78012B41D8194B1B7820
:105130000133DAB2174B1A701C48FEF72FF9FDF74E
:1051400013FD0246054BC3F8D421044B00221A700C
:105150000C4801F05BFB01237AE000BFE011002066
:10516000E2110020E4120020A4120020E0E2000876
:1051700018E3000844E3000850E300087CE300085B
:10518000A0E30008C8100020B4E30008901100203C
:10519000C4E30008A10A0020E8E300080CE40008CA
:1051A00040E4000884E40008B4E40008D4E4000803
:1051B0002A48FEF7F3F82A4B00221A70294B0A22DC
:1051C0005A70284B00221A70274801F01FFB002359
:1051D0003EE0254801F01AFBC821234801F086FA79
:1051E0000346002B7FF4FBAE1E4BD3F8D4314EF6B2
:1051F00060211846FEF7E6F80346002B22D0184B34
:105200001B78012B10D8164B1B780133DAB2144BE4
:105210001A701648FEF7C2F8124B00225A70114B52
:1052200000221A70002313E01148FEF7B7F80C4B68
:1052300000221A700B4B0A225A700A4B00221A7075
:10524000002305E0012303E0064B00221A7000232F
:10525000184607F5AC67BD4680BD00BF04E50008F1
:10526000A10A0020E0110020C810002034E5000849
:105270005CE5000880B5A2B000AF6E4B1B78002B38
:1052800002D0012B1FD0CDE06B48FAF76BFF03462D
:10529000A7F88630B7F886303846684A802103F090
:1052A000CFF86748FEF77AF83B461846FEF762F8F3
:1052B000FDF75AFC02465F4BC3F8D4215D4B012237
:1052C0001A700123B2E05F4B1B7883F00103DBB25D
:1052D000002B00F085805C48FEF760F85648FEF72A
:1052E00049F85A48FEF746F8564B01221A70FDF766
:1052F0003BFC02464F4BC3F8D421012396E05448AF
:10530000FEF774F85349524802F000FC0346002BA4
:1053100063D0504B1B78102B31D14E4B9B68C7F894
:105320008030D7F88030002B10D14B48FEF736F88C
:10533000404B09225A703F4B00221A70414B002209
:105340001A70434801F062FA00236FE03846D7F83C
:105350008030424A802103F073F83B461846FEF73E
:105360001DF8344B0A225A70324B00221A70354B0A
:1053700000221A70364801F049FA002356E0354BF6
:105380001B78002B10D13648FEF708F8294B09226C
:105390005A70284B00221A702A4B00221A702C488F
:1053A00001F034FA002341E02A4B1B78012B03D093
:1053B000284B1B780E2B10D12A48FDF7EFFF1D4B11
:1053C0000A225A701B4B00221A701E4B00221A70C0
:1053D0001F4801F01BFA002328E01D4801F016FACF
:1053E000C8211B4801F082F90346002B87D1114BDD
:1053F000D3F8D43141F288311846FDF7E3FF034674
:10540000002B0DD01848FDF7C9FF0A4B0A225A702D
:10541000084B00221A700B4B00221A70002305E083
:10542000012303E0034B00221A700023184688373B
:10543000BD4680BDE01100202813002080E5000853
:1054400098E50008A20A0020A8E50008C0E50008C9
:10545000C810002090110020C4E50008E4E5000811
:1054600004E6000820E6000838E60008B0B5CAB037
:1054700000AFB74B5A78B74B1B789A4208D0FDF76C
:1054800073FB0246B44B1A60B14B5A78B14B1A7099
:1054900043F69823C7F82431AD4B5B78072B03D133
:1054A0004EF66023C7F82431A94B5B78092B07D14E
:1054B000A74B93F8DC3183F00103DBB2002B1CD047
:1054C000FDF752FB0246A44B1B68D21AD7F82431D1
:1054D0009A4212D99E4B00225A709D4B00221A709C
:1054E000FDF742FB02469C4B1A609A4B00221A7051
:1054F000FDF73AFB0246994B1A60984B1B68002B4C
:1055000009D0FDF731FB0246944B1B68D31AB3F563
:10551000FA6FC0F01082914B00221A608C4B5B78BE
:105520000A2B00F2F88101A252F823F05955000825
:1055300089550008B9550008415600087156000801
:1055400011560008A1560008D15600081F57000840
:1055500065570008C7580008FEF7F8FE034683F0B9
:105560000103DBB2002B00F0E881794B01225A7075
:10557000774B00221A70FDF7F7FA0246764B1A6055
:10558000744B01221A70D8E1FEF7DAFF034683F06C
:105590000103DBB2002B00F0D2816D4B02225A7066
:1055A0006B4B00221A70FDF7DFFA02466A4B1A6055
:1055B000684B02221A70C2E1FFF75AF8034683F0E3
:1055C0000103DBB2002B00F0BC81614BB3F88230E9
:1055D00042F2B32293420CBF0123002387F81F310C
:1055E00097F81F31002B03D0594B05225A7002E067
:1055F000574B07225A70564B00221A70FDF7B4FA27
:105600000246554B1A60524B5A78524B1A7098E129
:10561000FFF710FA034683F00103DBB2002B00F022
:1056200092814B4B03225A70494B00221A70FDF7AE
:105630009BFA0246484B1A60464B03221A7082E1DD
:10564000FFF700F9034683F00103DBB2002B00F003
:105650007C813F4B04225A703D4B00221A70FDF7AB
:1056600083FA02463C4B1A603A4B04221A706CE1F2
:10567000FFF764F9034683F00103DBB2002B00F06F
:105680006681334B06225A70314B00221A70FDF7A7
:105690006BFA0246304B1A602E4B06221A7056E106
:1056A000FFF7C0FA034683F00103DBB2002B00F0E2
:1056B0005081274B07225A70254B00221A70FDF7A4
:1056C00053FA0246244B1A60224B07221A7040E11B
:1056D000FFF7C0FB034683F00103DBB2002B00F0B1
:1056E0003A811B4B93F8DC31002B00F034811C4BCA
:1056F0001B78002B03D0164B08225A7002E0144B83
:1057000009225A70124B00221A70FDF72DFA024638
:10571000114B1A600E4B5A780E4B1A701BE1FFF7B3
:10572000A9FD034683F00103DBB2002B00F01581D5
:10573000074B09225A70064B00221A70FDF714FA23
:105740000246054B1A60034B09221A7005E100BF9F
:10575000E0110020A30A0020A40A0020A80A0020CB
:1057600028130020804B93F8DC3183F00103DBB277
:10577000002B0ED07C4B00225A707B4B00221A70FB
:10578000FDF7F2F90246794B1A60794B00221A7044
:10579000E6E0754BB3F84431002B08D0724BB3F8F8
:1057A00044311A464FF4FA7303FB02F301E047F267
:1057B0003053C7F82031D7F8203147F22F529342A7
:1057C00003D847F23053C7F820316A4B1B78002BBF
:1057D00038D02EE03A1D07F154031146184602F066
:1057E00095F90346002B1FD03B1D1B78002B0BD1D6
:1057F0006148FDF7D3FD5F4B00221A7007F1540397
:10580000184601F003F81DE03B1D1B78012B0BD15E
:105810005A48FDF7C3FD574B00221A7007F1540395
:10582000184600F0F3FF0DE007F15403184600F0AE
:10583000EDFF07F15403C821184600F057FF034657
:10584000002BC7D14B4B1B7883F00103DBB2002B3D
:105850002DD04B4B1B68002B09D0FDF785F9024674
:10586000474B1B68D21AD7F820319A421FD907F14B
:105870005403444A1C4615460FCD0FC42B682370B1
:1058800007F154031846FDF775FDFDF76DF9024663
:105890003B4B1A60374B01221A703B48FDF77EFDE7
:1058A00005E03A48FDF7A2FD3848FEF763FBC82142
:1058B000364800F01BFF0346002BF2D1FEF74CFAEE
:1058C000FEF7D0FA4CE0324B1B68002B04D1FDF7F9
:1058D0004BF902462E4B1A60FDF746F902462C4B57
:1058E0001B68D31A40F6B832934238D92948FDF7DD
:1058F00055FD1D4B09225A701B4B00221A70FDF7F3
:1059000033F90246194B1A60194B09221A70204BC1
:1059100000221A6023E0144B00225A70124B00221E
:105920001A70FDF721F90246104B1A60104B002245
:105930001A7000BF14E000BF12E000BF10E000BF0B
:105940000EE000BF0CE000BF0AE000BF08E000BFAF
:1059500006E000BF04E000BF02E000BF00E000BFBF
:1059600007F59477BD46B0BDE0110020A40A0020E1
:10597000A30A0020AC0A002050E6000864E60008F4
:10598000B00A002084E6000898E60008C81000204D
:10599000B40A0020B0E6000880B5A8B000AFF860F7
:1059A000B9607A603B60FB68002B09D07F22F96800
:1059B0007C4802F0C5FD7C4B002283F8812008E082
:1059C0007F227A49774802F0BBFD774B002283F8AB
:1059D0008120744BC7F898307549D7F8980002F0C9
:1059E000C4FDC7F89C00D7F89C30002B05D0D7F831
:1059F0009C300333C7F89C3003E0D7F89830C7F8E1
:105A00009C303A21D7F89C0002F07AFDC7F8940048
:105A1000D7F89430002B20D0D7F8943001331B787E
:105A2000002B1AD0D7F894300133184602F0CCFC82
:105A3000C7F89000D7F89030002B0ADDD7F89030E7
:105A4000B3F5803F05DAD7F890309AB2564BA3F8F9
:105A50008220D7F8943000221A7006225549514806
:105A600002F05CFD0346002B16D107F110037F22E4
:105A70004C49184602F064FD002387F88F3007F187
:105A8000100306337F221946464802F059FD464B63
:105A9000002283F881203CE006224749414802F079
:105AA0003DFD0346002B16D107F110037F223D492F
:105AB000184602F045FD002387F88F3007F11003E8
:105AC00006337F221946374802F03AFD364B002252
:105AD00083F881201DE006223849324802F01EFD7D
